{
  "contractName": "Blacklistable",
  "abi": [
    {
      "inputs": [
        {
          "internalType": "address",
          "name": "_address",
          "type": "address"
        }
      ],
      "name": "isBlacklisted",
      "outputs": [
        {
          "internalType": "bool",
          "name": "",
          "type": "bool"
        }
      ],
      "stateMutability": "view",
      "type": "function"
    }
  ],
  "bytecode": "0x608060405234801561001057600080fd5b5060ce8061001f6000396000f3fe6080604052348015600f57600080fd5b506004361060285760003560e01c8063fe575a8714602d575b600080fd5b60566038366004606a565b6001600160a01b031660009081526020819052604090205460ff1690565b604051901515815260200160405180910390f35b600060208284031215607b57600080fd5b81356001600160a01b0381168114609157600080fd5b939250505056fea264697066735822122052d996e91162ededd4d4104b916066adceef88c6d12056c9332eacd223a5414964736f6c634300080b0033",
  "immutableReferences": {},
  "source": "// SPDX-License-Identifier: MIT\npragma solidity ^0.8.11;\n\ncontract Blacklistable {\n    mapping(address => bool) private _blacklist;\n\n    /**\n     * @notice Require msg.sender to not be blacklisted\n     * @dev Reverts if msg.sender is blacklisted\n     */\n    modifier noBlacklisters() {\n        require(\n            !_blacklist[msg.sender],\n            \"Blacklistable: BLACKLISTED_ADDRESSES_ARE_FORBIDDEN\"\n        );\n        _;\n    }\n\n    /**\n     * @notice Returns true if address is blacklisted, false if not.\n     * @param _address The address to check.\n     */\n    function isBlacklisted(address _address) public view returns (bool) {\n        return _blacklist[_address];\n    }\n\n    /**\n     * @notice Prevent account from minting tokens and voting\n     * @param _address The address to add to the blacklist\n     */\n    function _addToBlacklist(address _address) internal virtual {\n        _blacklist[_address] = true;\n    }\n\n    /**\n     * @notice Allow account to mint tokens and vote again\n     * @param _address The address to remove from the blacklist\n     */\n    function _removeFromBlacklist(address _address) internal virtual {\n        _blacklist[_address] = false;\n    }\n}\n",
  "sourcePath": "/Users/rileystephens/Development/Accel/phlip.io/phlip-contracts/contracts/extensions/Blacklistable.sol",
  "compiler": {
    "name": "solc",
    "version": "0.8.11+commit.d7f03943.Emscripten.clang"
  },
  "schemaVersion": "3.4.4",
  "updatedAt": "2022-03-08T18:12:57.730Z",
  "devdoc": {
    "kind": "dev",
    "methods": {
      "isBlacklisted(address)": {
        "params": {
          "_address": "The address to check."
        }
      }
    },
    "version": 1
  },
  "userdoc": {
    "kind": "user",
    "methods": {
      "isBlacklisted(address)": {
        "notice": "Returns true if address is blacklisted, false if not."
      }
    },
    "version": 1
  }
}