{
  "contractName": "Claimable",
  "abi": [
    {
      "inputs": [
        {
          "internalType": "address",
          "name": "_address",
          "type": "address"
        }
      ],
      "name": "hasClaim",
      "outputs": [
        {
          "internalType": "bool",
          "name": "",
          "type": "bool"
        }
      ],
      "stateMutability": "view",
      "type": "function"
    },
    {
      "inputs": [
        {
          "internalType": "address",
          "name": "_address",
          "type": "address"
        }
      ],
      "name": "remainingClaims",
      "outputs": [
        {
          "internalType": "uint256",
          "name": "",
          "type": "uint256"
        }
      ],
      "stateMutability": "view",
      "type": "function"
    },
    {
      "inputs": [
        {
          "internalType": "address",
          "name": "_address",
          "type": "address"
        }
      ],
      "name": "nextClaimableID",
      "outputs": [
        {
          "internalType": "uint256",
          "name": "",
          "type": "uint256"
        }
      ],
      "stateMutability": "view",
      "type": "function"
    },
    {
      "inputs": [
        {
          "internalType": "address",
          "name": "_address",
          "type": "address"
        },
        {
          "internalType": "uint256",
          "name": "_index",
          "type": "uint256"
        }
      ],
      "name": "getClaimableID",
      "outputs": [
        {
          "internalType": "uint256",
          "name": "",
          "type": "uint256"
        }
      ],
      "stateMutability": "view",
      "type": "function"
    }
  ],
  "bytecode": "0x608060405234801561001057600080fd5b5061039b806100206000396000f3fe608060405234801561001057600080fd5b506004361061004c5760003560e01c806368154a3614610051578063a701b68414610077578063f2fc4ba61461008a578063fa2ce79b1461009d575b600080fd5b61006461005f3660046102ce565b6100d9565b6040519081526020015b60405180910390f35b6100646100853660046102f0565b610158565b6100646100983660046102ce565b610257565b6100c96100ab3660046102ce565b6001600160a01b031660009081526020819052604090205460ff1690565b604051901515815260200161006e565b6001600160a01b038116600090815260208190526040812054829060ff1661011c5760405162461bcd60e51b81526004016101139061031a565b60405180910390fd5b6001600160a01b038316600090815260016020526040812080549091906101455761014561034f565b9060005260206000200154915050919050565b6001600160a01b038216600090815260208190526040812054839060ff166101925760405162461bcd60e51b81526004016101139061031a565b6001600160a01b0384166000908152600160208190526040909120015483106102195760405162461bcd60e51b815260206004820152603360248201527f436c61696d61626c652e676574436c61696d61626c6549443a20417373657420604482015272696e646578206f7574206f6620626f756e647360681b6064820152608401610113565b6001600160a01b03841660009081526001602052604090208054849081106102435761024361034f565b906000526020600020015491505092915050565b6001600160a01b038116600090815260208190526040812054829060ff166102915760405162461bcd60e51b81526004016101139061031a565b50506001600160a01b03166000908152600160208190526040909120015490565b80356001600160a01b03811681146102c957600080fd5b919050565b6000602082840312156102e057600080fd5b6102e9826102b2565b9392505050565b6000806040838503121561030357600080fd5b61030c836102b2565b946020939093013593505050565b6020808252818101527f436c61696d61626c653a20436c61696d20646f6573206e6f742065786973742e604082015260600190565b634e487b7160e01b600052603260045260246000fdfea2646970667358221220e0b9e56ca13bc6c0acfb8a550d12fc9f4503af067521f307da4de06cf806ede564736f6c634300080b0033",
  "immutableReferences": {},
  "source": "// SPDX-License-Identifier: MIT\npragma solidity ^0.8.11;\n\n/**\n * @title Claimable\n * @author Riley Stephens\n * @notice A Claim represents an asset(s) IOU that can be redeemed\n * by an address. Claims allow contracts to track the ownership of\n * NF assets that are intended to be minted at a later date.\n */\ncontract Claimable {\n    struct Claim {\n        uint256[] assetIds;\n        uint256 remainingAmount;\n    }\n\n    mapping(address => bool) private _beneficiaries;\n    mapping(address => Claim) private _claims;\n    mapping(uint256 => address) private _assetBeneficiaries;\n\n    /**\n     * @notice Require msg.sender to be a beneficiary\n     * @dev Reverts if msg.sender is not\n     */\n    modifier onlyBeneficiary() {\n        require(\n            _beneficiaries[msg.sender],\n            \"Claimable: Address is not a beneficiary\"\n        );\n        _;\n    }\n\n    /**\n     * @notice Require address to be a beneficiary of an asset\n     * @dev Reverts if address is not\n     * @param _assetID The ID of an asset\n     */\n    modifier onlyClaimer(uint256 _assetID) {\n        require(\n            _assetBeneficiaries[_assetID] == msg.sender,\n            \"Claimable: Address is not the beneficiary of asset ID\"\n        );\n        _;\n    }\n\n    /**\n     * @notice Require address to be a beneficiary (means claim exists)\n     * @dev Reverts if address is not\n     * @param _address The address to check.\n     */\n    modifier claimExists(address _address) {\n        require(_beneficiaries[_address], \"Claimable: Claim does not exist.\");\n        _;\n    }\n\n    /**\n     * @notice Returns true if address has a claim, false if not.\n     * @param _address The address to check.\n     */\n    function hasClaim(address _address) public view returns (bool) {\n        return _beneficiaries[_address];\n    }\n\n    /**\n     * @notice Returns the number of remaining claims for an account.\n     * @param _address Beneficiary address of the claim.\n     */\n    function remainingClaims(address _address)\n        public\n        view\n        virtual\n        claimExists(_address)\n        returns (uint256)\n    {\n        return _claims[_address].remainingAmount;\n    }\n\n    /**\n     * @notice Returns the first asset ID in the claim.\n     * @param _address Beneficiary address of the claim.\n     */\n    function nextClaimableID(address _address)\n        public\n        view\n        virtual\n        claimExists(_address)\n        returns (uint256)\n    {\n        return _claims[_address].assetIds[0];\n    }\n\n    /**\n     * @notice Returns the asset ID at specified position in the claim.\n     * @param _address Beneficiary address of the claim.\n     */\n    function getClaimableID(address _address, uint256 _index)\n        public\n        view\n        virtual\n        claimExists(_address)\n        returns (uint256)\n    {\n        require(\n            _index < _claims[_address].remainingAmount,\n            \"Claimable.getClaimableID: Asset index out of bounds\"\n        );\n        return _claims[_address].assetIds[_index];\n    }\n\n    /**\n     * @notice Creates a new claim for an address.\n     * @param _beneficiary Beneficiary address for new claim.\n     * @param _assetIds Array of asset ids to claim.\n     */\n    function _createClaim(address _beneficiary, uint256[] memory _assetIds)\n        internal\n        virtual\n    {\n        // Add address to beneficiaries\n        require(\n            !_beneficiaries[_beneficiary],\n            \"Claimable._createClaim: Claim has already been created for this address. Call _updateClaim() for existing beneficiaries.\"\n        );\n        _beneficiaries[_beneficiary] = true;\n\n        // Register asset beneficiaries\n        for (uint256 i = 0; i < _assetIds.length; i++) {\n            require(\n                _assetBeneficiaries[_assetIds[i]] == address(0),\n                \"Claimable._createClaim: Asset ID has already been claimed.\"\n            );\n            _assetBeneficiaries[_assetIds[i]] = _beneficiary;\n        }\n\n        // Create new claim\n        _claims[_beneficiary] = Claim(_assetIds, _assetIds.length);\n    }\n\n    /**\n     * @notice Adds an asset ID to an existing claim.\n     * @param _address Beneficiary address of the claim.\n     * @param _assetId Asset ID to add to the claim.\n     */\n    function _addToClaim(address _address, uint256 _assetId)\n        internal\n        virtual\n        claimExists(_address)\n    {\n        require(\n            _assetBeneficiaries[_assetId] == address(0),\n            \"Claimable._addToClaim: Asset ID has already been claimed.\"\n        );\n        Claim storage claim = _claims[_address];\n        claim.assetIds.push(_assetId);\n        claim.remainingAmount += 1;\n    }\n\n    /**\n     * @notice Removes an asset at a specified index from\n     * an existing claim. If the claim is fully redeemed after\n     * the asset is removed, the claim is deleted.\n     * @param _address Beneficiary address of the claim.\n     * @param _index Index of the asset ID to remove from the claim.\n     */\n    function _removeFromClaim(address _address, uint256 _index)\n        internal\n        virtual\n        claimExists(_address)\n    {\n        Claim storage claim = _claims[_address];\n        require(\n            _index < claim.remainingAmount,\n            \"Claimable._removeFromClaim: Index is out of bounds.\"\n        );\n\n        // Save asset ID before removal\n        uint256 assetId = claim.assetIds[_index];\n\n        // reduce remaining amount first to prevent reentrancy\n        claim.remainingAmount -= 1;\n\n        // Remove asset ID from claim and asset beneficiaries\n        delete claim.assetIds[_index];\n        delete _assetBeneficiaries[assetId];\n\n        // If there are no more assets in the claim, delete the claim\n        if (claim.remainingAmount == 0) {\n            delete _claims[_address];\n            delete _beneficiaries[_address];\n        }\n    }\n}\n",
  "sourcePath": "/Users/rileystephens/Development/Accel/phlip.io/phlip-contracts/contracts/extensions/Claimable.sol",
  "compiler": {
    "name": "solc",
    "version": "0.8.11+commit.d7f03943.Emscripten.clang"
  },
  "schemaVersion": "3.4.4",
  "updatedAt": "2022-03-08T18:12:57.731Z",
  "devdoc": {
    "author": "Riley Stephens",
    "kind": "dev",
    "methods": {
      "getClaimableID(address,uint256)": {
        "params": {
          "_address": "Beneficiary address of the claim."
        }
      },
      "hasClaim(address)": {
        "params": {
          "_address": "The address to check."
        }
      },
      "nextClaimableID(address)": {
        "params": {
          "_address": "Beneficiary address of the claim."
        }
      },
      "remainingClaims(address)": {
        "params": {
          "_address": "Beneficiary address of the claim."
        }
      }
    },
    "title": "Claimable",
    "version": 1
  },
  "userdoc": {
    "kind": "user",
    "methods": {
      "getClaimableID(address,uint256)": {
        "notice": "Returns the asset ID at specified position in the claim."
      },
      "hasClaim(address)": {
        "notice": "Returns true if address has a claim, false if not."
      },
      "nextClaimableID(address)": {
        "notice": "Returns the first asset ID in the claim."
      },
      "remainingClaims(address)": {
        "notice": "Returns the number of remaining claims for an account."
      }
    },
    "notice": "A Claim represents an asset(s) IOU that can be redeemed by an address. Claims allow contracts to track the ownership of NF assets that are intended to be minted at a later date.",
    "version": 1
  }
}