{
  "contractName": "PhlipProfile",
  "abi": [
    {
      "inputs": [],
      "stateMutability": "nonpayable",
      "type": "constructor"
    },
    {
      "anonymous": false,
      "inputs": [
        {
          "indexed": true,
          "internalType": "address",
          "name": "owner",
          "type": "address"
        },
        {
          "indexed": true,
          "internalType": "address",
          "name": "approved",
          "type": "address"
        },
        {
          "indexed": true,
          "internalType": "uint256",
          "name": "tokenId",
          "type": "uint256"
        }
      ],
      "name": "Approval",
      "type": "event"
    },
    {
      "anonymous": false,
      "inputs": [
        {
          "indexed": true,
          "internalType": "address",
          "name": "owner",
          "type": "address"
        },
        {
          "indexed": true,
          "internalType": "address",
          "name": "operator",
          "type": "address"
        },
        {
          "indexed": false,
          "internalType": "bool",
          "name": "approved",
          "type": "bool"
        }
      ],
      "name": "ApprovalForAll",
      "type": "event"
    },
    {
      "anonymous": false,
      "inputs": [
        {
          "indexed": true,
          "internalType": "bytes32",
          "name": "role",
          "type": "bytes32"
        },
        {
          "indexed": true,
          "internalType": "bytes32",
          "name": "previousAdminRole",
          "type": "bytes32"
        },
        {
          "indexed": true,
          "internalType": "bytes32",
          "name": "newAdminRole",
          "type": "bytes32"
        }
      ],
      "name": "RoleAdminChanged",
      "type": "event"
    },
    {
      "anonymous": false,
      "inputs": [
        {
          "indexed": true,
          "internalType": "bytes32",
          "name": "role",
          "type": "bytes32"
        },
        {
          "indexed": true,
          "internalType": "address",
          "name": "account",
          "type": "address"
        },
        {
          "indexed": true,
          "internalType": "address",
          "name": "sender",
          "type": "address"
        }
      ],
      "name": "RoleGranted",
      "type": "event"
    },
    {
      "anonymous": false,
      "inputs": [
        {
          "indexed": true,
          "internalType": "bytes32",
          "name": "role",
          "type": "bytes32"
        },
        {
          "indexed": true,
          "internalType": "address",
          "name": "account",
          "type": "address"
        },
        {
          "indexed": true,
          "internalType": "address",
          "name": "sender",
          "type": "address"
        }
      ],
      "name": "RoleRevoked",
      "type": "event"
    },
    {
      "anonymous": false,
      "inputs": [
        {
          "indexed": true,
          "internalType": "address",
          "name": "from",
          "type": "address"
        },
        {
          "indexed": true,
          "internalType": "address",
          "name": "to",
          "type": "address"
        },
        {
          "indexed": true,
          "internalType": "uint256",
          "name": "tokenId",
          "type": "uint256"
        }
      ],
      "name": "Transfer",
      "type": "event"
    },
    {
      "inputs": [],
      "name": "DEFAULT_ADMIN_ROLE",
      "outputs": [
        {
          "internalType": "bytes32",
          "name": "",
          "type": "bytes32"
        }
      ],
      "stateMutability": "view",
      "type": "function"
    },
    {
      "inputs": [],
      "name": "RECORDER_ROLE",
      "outputs": [
        {
          "internalType": "bytes32",
          "name": "",
          "type": "bytes32"
        }
      ],
      "stateMutability": "view",
      "type": "function"
    },
    {
      "inputs": [
        {
          "internalType": "address",
          "name": "to",
          "type": "address"
        },
        {
          "internalType": "uint256",
          "name": "tokenId",
          "type": "uint256"
        }
      ],
      "name": "approve",
      "outputs": [],
      "stateMutability": "nonpayable",
      "type": "function"
    },
    {
      "inputs": [
        {
          "internalType": "address",
          "name": "owner",
          "type": "address"
        }
      ],
      "name": "balanceOf",
      "outputs": [
        {
          "internalType": "uint256",
          "name": "",
          "type": "uint256"
        }
      ],
      "stateMutability": "view",
      "type": "function"
    },
    {
      "inputs": [
        {
          "internalType": "uint256",
          "name": "tokenId",
          "type": "uint256"
        }
      ],
      "name": "getApproved",
      "outputs": [
        {
          "internalType": "address",
          "name": "",
          "type": "address"
        }
      ],
      "stateMutability": "view",
      "type": "function"
    },
    {
      "inputs": [
        {
          "internalType": "bytes32",
          "name": "role",
          "type": "bytes32"
        }
      ],
      "name": "getRoleAdmin",
      "outputs": [
        {
          "internalType": "bytes32",
          "name": "",
          "type": "bytes32"
        }
      ],
      "stateMutability": "view",
      "type": "function"
    },
    {
      "inputs": [
        {
          "internalType": "bytes32",
          "name": "role",
          "type": "bytes32"
        },
        {
          "internalType": "address",
          "name": "account",
          "type": "address"
        }
      ],
      "name": "grantRole",
      "outputs": [],
      "stateMutability": "nonpayable",
      "type": "function"
    },
    {
      "inputs": [
        {
          "internalType": "bytes32",
          "name": "role",
          "type": "bytes32"
        },
        {
          "internalType": "address",
          "name": "account",
          "type": "address"
        }
      ],
      "name": "hasRole",
      "outputs": [
        {
          "internalType": "bool",
          "name": "",
          "type": "bool"
        }
      ],
      "stateMutability": "view",
      "type": "function"
    },
    {
      "inputs": [
        {
          "internalType": "address",
          "name": "owner",
          "type": "address"
        },
        {
          "internalType": "address",
          "name": "operator",
          "type": "address"
        }
      ],
      "name": "isApprovedForAll",
      "outputs": [
        {
          "internalType": "bool",
          "name": "",
          "type": "bool"
        }
      ],
      "stateMutability": "view",
      "type": "function"
    },
    {
      "inputs": [],
      "name": "name",
      "outputs": [
        {
          "internalType": "string",
          "name": "",
          "type": "string"
        }
      ],
      "stateMutability": "view",
      "type": "function"
    },
    {
      "inputs": [
        {
          "internalType": "uint256",
          "name": "tokenId",
          "type": "uint256"
        }
      ],
      "name": "ownerOf",
      "outputs": [
        {
          "internalType": "address",
          "name": "",
          "type": "address"
        }
      ],
      "stateMutability": "view",
      "type": "function"
    },
    {
      "inputs": [
        {
          "internalType": "bytes32",
          "name": "role",
          "type": "bytes32"
        },
        {
          "internalType": "address",
          "name": "account",
          "type": "address"
        }
      ],
      "name": "renounceRole",
      "outputs": [],
      "stateMutability": "nonpayable",
      "type": "function"
    },
    {
      "inputs": [
        {
          "internalType": "bytes32",
          "name": "role",
          "type": "bytes32"
        },
        {
          "internalType": "address",
          "name": "account",
          "type": "address"
        }
      ],
      "name": "revokeRole",
      "outputs": [],
      "stateMutability": "nonpayable",
      "type": "function"
    },
    {
      "inputs": [
        {
          "internalType": "address",
          "name": "from",
          "type": "address"
        },
        {
          "internalType": "address",
          "name": "to",
          "type": "address"
        },
        {
          "internalType": "uint256",
          "name": "tokenId",
          "type": "uint256"
        }
      ],
      "name": "safeTransferFrom",
      "outputs": [],
      "stateMutability": "nonpayable",
      "type": "function"
    },
    {
      "inputs": [
        {
          "internalType": "address",
          "name": "from",
          "type": "address"
        },
        {
          "internalType": "address",
          "name": "to",
          "type": "address"
        },
        {
          "internalType": "uint256",
          "name": "tokenId",
          "type": "uint256"
        },
        {
          "internalType": "bytes",
          "name": "_data",
          "type": "bytes"
        }
      ],
      "name": "safeTransferFrom",
      "outputs": [],
      "stateMutability": "nonpayable",
      "type": "function"
    },
    {
      "inputs": [
        {
          "internalType": "address",
          "name": "operator",
          "type": "address"
        },
        {
          "internalType": "bool",
          "name": "approved",
          "type": "bool"
        }
      ],
      "name": "setApprovalForAll",
      "outputs": [],
      "stateMutability": "nonpayable",
      "type": "function"
    },
    {
      "inputs": [],
      "name": "symbol",
      "outputs": [
        {
          "internalType": "string",
          "name": "",
          "type": "string"
        }
      ],
      "stateMutability": "view",
      "type": "function"
    },
    {
      "inputs": [
        {
          "internalType": "uint256",
          "name": "tokenId",
          "type": "uint256"
        }
      ],
      "name": "tokenURI",
      "outputs": [
        {
          "internalType": "string",
          "name": "",
          "type": "string"
        }
      ],
      "stateMutability": "view",
      "type": "function"
    },
    {
      "inputs": [
        {
          "internalType": "address",
          "name": "from",
          "type": "address"
        },
        {
          "internalType": "address",
          "name": "to",
          "type": "address"
        },
        {
          "internalType": "uint256",
          "name": "tokenId",
          "type": "uint256"
        }
      ],
      "name": "transferFrom",
      "outputs": [],
      "stateMutability": "nonpayable",
      "type": "function"
    },
    {
      "inputs": [
        {
          "internalType": "address",
          "name": "_address",
          "type": "address"
        }
      ],
      "name": "hasProfile",
      "outputs": [
        {
          "internalType": "bool",
          "name": "",
          "type": "bool"
        }
      ],
      "stateMutability": "view",
      "type": "function"
    },
    {
      "inputs": [
        {
          "internalType": "string",
          "name": "_uri",
          "type": "string"
        }
      ],
      "name": "createProfile",
      "outputs": [],
      "stateMutability": "nonpayable",
      "type": "function"
    },
    {
      "inputs": [
        {
          "internalType": "string",
          "name": "_name",
          "type": "string"
        }
      ],
      "name": "createTeam",
      "outputs": [],
      "stateMutability": "nonpayable",
      "type": "function"
    },
    {
      "inputs": [
        {
          "internalType": "uint256",
          "name": "_profileID",
          "type": "uint256"
        },
        {
          "internalType": "uint256",
          "name": "_teamID",
          "type": "uint256"
        }
      ],
      "name": "joinTeam",
      "outputs": [],
      "stateMutability": "nonpayable",
      "type": "function"
    },
    {
      "inputs": [
        {
          "internalType": "uint256",
          "name": "_profileID",
          "type": "uint256"
        },
        {
          "internalType": "uint256",
          "name": "_friendID",
          "type": "uint256"
        }
      ],
      "name": "addFriend",
      "outputs": [],
      "stateMutability": "nonpayable",
      "type": "function"
    },
    {
      "inputs": [
        {
          "internalType": "uint256",
          "name": "_profileID",
          "type": "uint256"
        },
        {
          "internalType": "uint256",
          "name": "_friendIndex",
          "type": "uint256"
        }
      ],
      "name": "removeFriend",
      "outputs": [],
      "stateMutability": "nonpayable",
      "type": "function"
    },
    {
      "inputs": [
        {
          "internalType": "uint256",
          "name": "_profileID",
          "type": "uint256"
        },
        {
          "internalType": "uint256",
          "name": "_winnings",
          "type": "uint256"
        }
      ],
      "name": "recordWin",
      "outputs": [],
      "stateMutability": "nonpayable",
      "type": "function"
    },
    {
      "inputs": [
        {
          "internalType": "uint256",
          "name": "_profileID",
          "type": "uint256"
        }
      ],
      "name": "recordLoss",
      "outputs": [],
      "stateMutability": "nonpayable",
      "type": "function"
    },
    {
      "inputs": [
        {
          "internalType": "bytes4",
          "name": "interfaceId",
          "type": "bytes4"
        }
      ],
      "name": "supportsInterface",
      "outputs": [
        {
          "internalType": "bool",
          "name": "",
          "type": "bool"
        }
      ],
      "stateMutability": "view",
      "type": "function"
    }
  ],
  "bytecode": "0x60806040523480156200001157600080fd5b50604080518082018252600c81526b50686c697050726f66696c6560a01b6020808301918252835180850190945260048452632aa9a2a960e11b908401528151919291620000629160009162000181565b5080516200007890600190602084019062000181565b506200008a91506000905033620000d3565b620000b67ff996da754c790e95d5c7ca3330cfcad529487fe9d1d8edb7afc65076fdf9adb433620000d3565b620000cd60076200017860201b62000e0e1760201c565b62000264565b60008281526006602090815260408083206001600160a01b038516845290915290205460ff16620001745760008281526006602090815260408083206001600160a01b03851684529091529020805460ff19166001179055620001333390565b6001600160a01b0316816001600160a01b0316837f2f8788117e7eff1d82e926ec794901d17c78024a50270940304540a733656f0d60405160405180910390a45b5050565b80546001019055565b8280546200018f9062000227565b90600052602060002090601f016020900481019282620001b35760008555620001fe565b82601f10620001ce57805160ff1916838001178555620001fe565b82800160010185558215620001fe579182015b82811115620001fe578251825591602001919060010190620001e1565b506200020c92915062000210565b5090565b5b808211156200020c576000815560010162000211565b600181811c908216806200023c57607f821691505b602082108114156200025e57634e487b7160e01b600052602260045260246000fd5b50919050565b6120cd80620002746000396000f3fe608060405234801561001057600080fd5b50600436106101c45760003560e01c806391d14854116100f9578063bea8658111610097578063d547741f11610071578063d547741f146103de578063e853ce64146103f1578063e985e9c514610404578063ef77ff661461044057600080fd5b8063bea8658114610391578063c4132d7f146103b8578063c87b56dd146103cb57600080fd5b8063a217fddf116100d3578063a217fddf14610350578063a22cb46514610358578063a787c80b1461036b578063b88d4fde1461037e57600080fd5b806391d148541461032257806395d89b4114610335578063972fa53f1461033d57600080fd5b8063334c3f0e116101665780636022743e116101405780636022743e146102d65780636352211e146102e957806370a08231146102fc578063744d8b4f1461030f57600080fd5b8063334c3f0e1461029d57806336568abe146102b057806342842e0e146102c357600080fd5b8063095ea7b3116101a2578063095ea7b31461023157806323b872dd14610246578063248a9ca3146102595780632f2ff15d1461028a57600080fd5b806301ffc9a7146101c957806306fdde03146101f1578063081812fc14610206575b600080fd5b6101dc6101d7366004611a49565b610453565b60405190151581526020015b60405180910390f35b6101f9610464565b6040516101e89190611abe565b610219610214366004611ad1565b6104f6565b6040516001600160a01b0390911681526020016101e8565b61024461023f366004611b06565b610583565b005b610244610254366004611b30565b610699565b61027c610267366004611ad1565b60009081526006602052604090206001015490565b6040519081526020016101e8565b610244610298366004611b6c565b6106ca565b6102446102ab366004611c24565b6106f0565b6102446102be366004611b6c565b6107f1565b6102446102d1366004611b30565b61086f565b6102446102e4366004611ad1565b61088a565b6102196102f7366004611ad1565b61090a565b61027c61030a366004611c6d565b610981565b61024461031d366004611c88565b610a08565b6101dc610330366004611b6c565b610aa7565b6101f9610ad2565b61024461034b366004611c24565b610ae1565b61027c600081565b610244610366366004611caa565b610ba3565b6101dc610379366004611c6d565b610bae565b61024461038c366004611ce6565b610bc1565b61027c7ff996da754c790e95d5c7ca3330cfcad529487fe9d1d8edb7afc65076fdf9adb481565b6102446103c6366004611c88565b610bf9565b6101f96103d9366004611ad1565b610c63565b6102446103ec366004611b6c565b610d3b565b6102446103ff366004611c88565b610d61565b6101dc610412366004611d62565b6001600160a01b03918216600090815260056020908152604080832093909416825291909152205460ff1690565b61024461044e366004611c88565b610dae565b600061045e82610e17565b92915050565b60606000805461047390611d8c565b80601f016020809104026020016040519081016040528092919081815260200182805461049f90611d8c565b80156104ec5780601f106104c1576101008083540402835291602001916104ec565b820191906000526020600020905b8154815290600101906020018083116104cf57829003601f168201915b5050505050905090565b600061050182610e3c565b6105675760405162461bcd60e51b815260206004820152602c60248201527f4552433732313a20617070726f76656420717565727920666f72206e6f6e657860448201526b34b9ba32b73a103a37b5b2b760a11b60648201526084015b60405180910390fd5b506000908152600460205260409020546001600160a01b031690565b600061058e8261090a565b9050806001600160a01b0316836001600160a01b031614156105fc5760405162461bcd60e51b815260206004820152602160248201527f4552433732313a20617070726f76616c20746f2063757272656e74206f776e656044820152603960f91b606482015260840161055e565b336001600160a01b038216148061061857506106188133610412565b61068a5760405162461bcd60e51b815260206004820152603860248201527f4552433732313a20617070726f76652063616c6c6572206973206e6f74206f7760448201527f6e6572206e6f7220617070726f76656420666f7220616c6c0000000000000000606482015260840161055e565b6106948383610e59565b505050565b6106a33382610ec7565b6106bf5760405162461bcd60e51b815260040161055e90611dc7565b610694838383610fb1565b6000828152600660205260409020600101546106e6813361114d565b61069483836111b1565b6106f933610bae565b1561070357600080fd5b600061070e60085490565b905061071e600880546001019055565b61075e6040518060e00160405280606081526020016000815260200160008152602001600081526020016000815260200160608152602001606081525090565b8281526000828152600a60209081526040909120825180518493610786928492910190611908565b50602082810151600183015560408301516002830155606083015160038301556080830151600483015560a083015180516107c7926005850192019061198c565b5060c082015180516107e391600684019160209091019061198c565b509050506106943383611237565b6001600160a01b03811633146108615760405162461bcd60e51b815260206004820152602f60248201527f416363657373436f6e74726f6c3a2063616e206f6e6c792072656e6f756e636560448201526e103937b632b9903337b91039b2b63360891b606482015260840161055e565b61086b8282611251565b5050565b61069483838360405180602001604052806000815250610bc1565b8061089481610e3c565b6108b05760405162461bcd60e51b815260040161055e90611e18565b7ff996da754c790e95d5c7ca3330cfcad529487fe9d1d8edb7afc65076fdf9adb46108db813361114d565b6000838152600a6020526040812060028101805491926001926108ff908490611e73565b909155505050505050565b6000818152600260205260408120546001600160a01b03168061045e5760405162461bcd60e51b815260206004820152602960248201527f4552433732313a206f776e657220717565727920666f72206e6f6e657869737460448201526832b73a103a37b5b2b760b91b606482015260840161055e565b60006001600160a01b0382166109ec5760405162461bcd60e51b815260206004820152602a60248201527f4552433732313a2062616c616e636520717565727920666f7220746865207a65604482015269726f206164647265737360b01b606482015260840161055e565b506001600160a01b031660009081526003602052604090205490565b81610a1281610e3c565b610a2e5760405162461bcd60e51b815260040161055e90611e18565b7ff996da754c790e95d5c7ca3330cfcad529487fe9d1d8edb7afc65076fdf9adb4610a59813361114d565b6000848152600a602052604081206001808201805492939192909190610a80908490611e73565b9250508190555083816003016000828254610a9b9190611e73565b90915550505050505050565b60009182526006602090815260408084206001600160a01b0393909316845291905290205460ff1690565b60606001805461047390611d8c565b610aea33610bae565b610af357600080fd5b6000610afe60075490565b9050610b0e600780546001019055565b6000818152600960209081526040808320805460ff19166001179055805160608082018352818301528581523381840152848452600b83529220825180518493610b5c928492910190611908565b506020828101516001830180546001600160a01b0319166001600160a01b0390921691909117905560408301518051610b9b92600285019201906119c6565b505050505050565b61086b3383836112b8565b600080610bba83610981565b1192915050565b610bcb3383610ec7565b610be75760405162461bcd60e51b815260040161055e90611dc7565b610bf384848484611387565b50505050565b80610c0381610e3c565b610c1f5760405162461bcd60e51b815260040161055e90611e18565b33610c298461090a565b6001600160a01b031614610c3c57600080fd5b506000918252600a6020908152604083206006018054600181018255908452922090910155565b6060610c6e82610e3c565b610cd25760405162461bcd60e51b815260206004820152602f60248201527f4552433732314d657461646174613a2055524920717565727920666f72206e6f60448201526e3732bc34b9ba32b73a103a37b5b2b760891b606482015260840161055e565b6000610ce960408051602081019091526000815290565b90506000815111610d095760405180602001604052806000815250610d34565b80610d13846113ba565b604051602001610d24929190611e8b565b6040516020818303038152906040525b9392505050565b600082815260066020526040902060010154610d57813361114d565b6106948383611251565b33610d6b8361090a565b6001600160a01b031614610d7e57600080fd5b60008181526009602052604090205460ff16610d9957600080fd5b6000918252600a602052604090912060040155565b33610db88361090a565b6001600160a01b031614610dcb57600080fd5b6000828152600a6020526040902060068101548210610de957600080fd5b806006018281548110610dfe57610dfe611eba565b6000918252602082200155505050565b80546001019055565b60006001600160e01b03198216637965db0b60e01b148061045e575061045e826114b8565b6000908152600260205260409020546001600160a01b0316151590565b600081815260046020526040902080546001600160a01b0319166001600160a01b0384169081179091558190610e8e8261090a565b6001600160a01b03167f8c5be1e5ebec7d5bd14f71427d1e84f3dd0314c0f7b2291e5b200ac8c7c3b92560405160405180910390a45050565b6000610ed282610e3c565b610f335760405162461bcd60e51b815260206004820152602c60248201527f4552433732313a206f70657261746f7220717565727920666f72206e6f6e657860448201526b34b9ba32b73a103a37b5b2b760a11b606482015260840161055e565b6000610f3e8361090a565b9050806001600160a01b0316846001600160a01b03161480610f795750836001600160a01b0316610f6e846104f6565b6001600160a01b0316145b80610fa957506001600160a01b0380821660009081526005602090815260408083209388168352929052205460ff165b949350505050565b826001600160a01b0316610fc48261090a565b6001600160a01b0316146110285760405162461bcd60e51b815260206004820152602560248201527f4552433732313a207472616e736665722066726f6d20696e636f72726563742060448201526437bbb732b960d91b606482015260840161055e565b6001600160a01b03821661108a5760405162461bcd60e51b8152602060048201526024808201527f4552433732313a207472616e7366657220746f20746865207a65726f206164646044820152637265737360e01b606482015260840161055e565b611095600082610e59565b6001600160a01b03831660009081526003602052604081208054600192906110be908490611ed0565b90915550506001600160a01b03821660009081526003602052604081208054600192906110ec908490611e73565b909155505060008181526002602052604080822080546001600160a01b0319166001600160a01b0386811691821790925591518493918716917fddf252ad1be2c89b69c2b068fc378daa952ba7f163c4a11628f55a4df523b3ef91a4505050565b6111578282610aa7565b61086b5761116f816001600160a01b03166014611508565b61117a836020611508565b60405160200161118b929190611ee7565b60408051601f198184030181529082905262461bcd60e51b825261055e91600401611abe565b6111bb8282610aa7565b61086b5760008281526006602090815260408083206001600160a01b03851684529091529020805460ff191660011790556111f33390565b6001600160a01b0316816001600160a01b0316837f2f8788117e7eff1d82e926ec794901d17c78024a50270940304540a733656f0d60405160405180910390a45050565b61086b8282604051806020016040528060008152506116a4565b61125b8282610aa7565b1561086b5760008281526006602090815260408083206001600160a01b0385168085529252808320805460ff1916905551339285917ff6391f5c32d9c69d2a47ea670b442974b53935d1edc7fd64eb21e047a839171b9190a45050565b816001600160a01b0316836001600160a01b0316141561131a5760405162461bcd60e51b815260206004820152601960248201527f4552433732313a20617070726f766520746f2063616c6c657200000000000000604482015260640161055e565b6001600160a01b03838116600081815260056020908152604080832094871680845294825291829020805460ff191686151590811790915591519182527f17307eab39ab6107e8899845ad3d59bd9653f200f220920489ca2b5937696c31910160405180910390a3505050565b611392848484610fb1565b61139e848484846116d7565b610bf35760405162461bcd60e51b815260040161055e90611f5c565b6060816113de5750506040805180820190915260018152600360fc1b602082015290565b8160005b811561140857806113f281611fae565b91506114019050600a83611fdf565b91506113e2565b60008167ffffffffffffffff81111561142357611423611b98565b6040519080825280601f01601f19166020018201604052801561144d576020820181803683370190505b5090505b8415610fa957611462600183611ed0565b915061146f600a86611ff3565b61147a906030611e73565b60f81b81838151811061148f5761148f611eba565b60200101906001600160f81b031916908160001a9053506114b1600a86611fdf565b9450611451565b60006001600160e01b031982166380ac58cd60e01b14806114e957506001600160e01b03198216635b5e139f60e01b145b8061045e57506301ffc9a760e01b6001600160e01b031983161461045e565b60606000611517836002612007565b611522906002611e73565b67ffffffffffffffff81111561153a5761153a611b98565b6040519080825280601f01601f191660200182016040528015611564576020820181803683370190505b509050600360fc1b8160008151811061157f5761157f611eba565b60200101906001600160f81b031916908160001a905350600f60fb1b816001815181106115ae576115ae611eba565b60200101906001600160f81b031916908160001a90535060006115d2846002612007565b6115dd906001611e73565b90505b6001811115611655576f181899199a1a9b1b9c1cb0b131b232b360811b85600f166010811061161157611611611eba565b1a60f81b82828151811061162757611627611eba565b60200101906001600160f81b031916908160001a90535060049490941c9361164e81612026565b90506115e0565b508315610d345760405162461bcd60e51b815260206004820181905260248201527f537472696e67733a20686578206c656e67746820696e73756666696369656e74604482015260640161055e565b6116ae83836117d5565b6116bb60008484846116d7565b6106945760405162461bcd60e51b815260040161055e90611f5c565b60006001600160a01b0384163b156117ca57604051630a85bd0160e11b81526001600160a01b0385169063150b7a029061171b90339089908890889060040161203d565b6020604051808303816000875af1925050508015611756575060408051601f3d908101601f191682019092526117539181019061207a565b60015b6117b0573d808015611784576040519150601f19603f3d011682016040523d82523d6000602084013e611789565b606091505b5080516117a85760405162461bcd60e51b815260040161055e90611f5c565b805181602001fd5b6001600160e01b031916630a85bd0160e11b149050610fa9565b506001949350505050565b6001600160a01b03821661182b5760405162461bcd60e51b815260206004820181905260248201527f4552433732313a206d696e7420746f20746865207a65726f2061646472657373604482015260640161055e565b61183481610e3c565b156118815760405162461bcd60e51b815260206004820152601c60248201527f4552433732313a20746f6b656e20616c7265616479206d696e74656400000000604482015260640161055e565b6001600160a01b03821660009081526003602052604081208054600192906118aa908490611e73565b909155505060008181526002602052604080822080546001600160a01b0319166001600160a01b03861690811790915590518392907fddf252ad1be2c89b69c2b068fc378daa952ba7f163c4a11628f55a4df523b3ef908290a45050565b82805461191490611d8c565b90600052602060002090601f016020900481019282611936576000855561197c565b82601f1061194f57805160ff191683800117855561197c565b8280016001018555821561197c579182015b8281111561197c578251825591602001919060010190611961565b50611988929150611a1b565b5090565b82805482825590600052602060002090810192821561197c579160200282018281111561197c578251825591602001919060010190611961565b82805482825590600052602060002090810192821561197c579160200282015b8281111561197c57825182546001600160a01b0319166001600160a01b039091161782556020909201916001909101906119e6565b5b808211156119885760008155600101611a1c565b6001600160e01b031981168114611a4657600080fd5b50565b600060208284031215611a5b57600080fd5b8135610d3481611a30565b60005b83811015611a81578181015183820152602001611a69565b83811115610bf35750506000910152565b60008151808452611aaa816020860160208601611a66565b601f01601f19169290920160200192915050565b602081526000610d346020830184611a92565b600060208284031215611ae357600080fd5b5035919050565b80356001600160a01b0381168114611b0157600080fd5b919050565b60008060408385031215611b1957600080fd5b611b2283611aea565b946020939093013593505050565b600080600060608486031215611b4557600080fd5b611b4e84611aea565b9250611b5c60208501611aea565b9150604084013590509250925092565b60008060408385031215611b7f57600080fd5b82359150611b8f60208401611aea565b90509250929050565b634e487b7160e01b600052604160045260246000fd5b600067ffffffffffffffff80841115611bc957611bc9611b98565b604051601f8501601f19908116603f01168101908282118183101715611bf157611bf1611b98565b81604052809350858152868686011115611c0a57600080fd5b858560208301376000602087830101525050509392505050565b600060208284031215611c3657600080fd5b813567ffffffffffffffff811115611c4d57600080fd5b8201601f81018413611c5e57600080fd5b610fa984823560208401611bae565b600060208284031215611c7f57600080fd5b610d3482611aea565b60008060408385031215611c9b57600080fd5b50508035926020909101359150565b60008060408385031215611cbd57600080fd5b611cc683611aea565b915060208301358015158114611cdb57600080fd5b809150509250929050565b60008060008060808587031215611cfc57600080fd5b611d0585611aea565b9350611d1360208601611aea565b925060408501359150606085013567ffffffffffffffff811115611d3657600080fd5b8501601f81018713611d4757600080fd5b611d5687823560208401611bae565b91505092959194509250565b60008060408385031215611d7557600080fd5b611d7e83611aea565b9150611b8f60208401611aea565b600181811c90821680611da057607f821691505b60208210811415611dc157634e487b7160e01b600052602260045260246000fd5b50919050565b60208082526031908201527f4552433732313a207472616e736665722063616c6c6572206973206e6f74206f6040820152701ddb995c881b9bdc88185c1c1c9bdd9959607a1b606082015260800190565b60208082526025908201527f50686c697050726f66696c653a2050726f66696c6520646f6573206e6f7420656040820152643c34b9ba1760d91b606082015260800190565b634e487b7160e01b600052601160045260246000fd5b60008219821115611e8657611e86611e5d565b500190565b60008351611e9d818460208801611a66565b835190830190611eb1818360208801611a66565b01949350505050565b634e487b7160e01b600052603260045260246000fd5b600082821015611ee257611ee2611e5d565b500390565b7f416363657373436f6e74726f6c3a206163636f756e7420000000000000000000815260008351611f1f816017850160208801611a66565b7001034b99036b4b9b9b4b733903937b6329607d1b6017918401918201528351611f50816028840160208801611a66565b01602801949350505050565b60208082526032908201527f4552433732313a207472616e7366657220746f206e6f6e20455243373231526560408201527131b2b4bb32b91034b6b83632b6b2b73a32b960711b606082015260800190565b6000600019821415611fc257611fc2611e5d565b5060010190565b634e487b7160e01b600052601260045260246000fd5b600082611fee57611fee611fc9565b500490565b60008261200257612002611fc9565b500690565b600081600019048311821515161561202157612021611e5d565b500290565b60008161203557612035611e5d565b506000190190565b6001600160a01b038581168252841660208201526040810183905260806060820181905260009061207090830184611a92565b9695505050505050565b60006020828403121561208c57600080fd5b8151610d3481611a3056fea264697066735822122034ab9aeab7d48e048e57bc272e32a6b99283982e98c2ca4517299d5dd1d62b0364736f6c634300080b0033",
  "immutableReferences": {},
  "source": "// SPDX-License-Identifier: MIT\npragma solidity ^0.8.11;\n\nimport \"@openzeppelin/contracts/token/ERC721/ERC721.sol\";\nimport \"@openzeppelin/contracts/access/AccessControl.sol\";\nimport \"@openzeppelin/contracts/utils/Counters.sol\";\n\n/**\n * @title UserProfile\n * @author Riley Stephens\n * @notice ERC721 contract representing a Phlip user and their interactions with the game.\n */\ncontract PhlipProfile is ERC721, AccessControl {\n    using Counters for Counters.Counter;\n\n    bytes32 public constant RECORDER_ROLE = keccak256(\"RECORDER_ROLE\");\n\n    struct Team {\n        string name;\n        address founder;\n        address[] members;\n    }\n\n    struct Profile {\n        string uri;\n        uint256 gamesWon;\n        uint256 gamesLost;\n        uint256 totalGameWinnings;\n        uint256 currentTeam;\n        uint256[] mintedCards;\n        uint256[] friends;\n    }\n\n    Counters.Counter private _teamIdCounter;\n    Counters.Counter private _tokenIdCounter;\n\n    mapping(uint256 => bool) private _registeredTeams;\n    mapping(uint256 => Profile) private _profiles;\n    mapping(uint256 => Team) private _teams;\n\n    /**\n     * @notice Ensure token has been minted by contract\n     * @dev Reverts if token does not exist\n     */\n    modifier profileExists(uint256 _profileID) {\n        require(_exists(_profileID), \"PhlipProfile: Profile does not exist.\");\n        _;\n    }\n\n    constructor() ERC721(\"PhlipProfile\", \"USER\") {\n        _grantRole(DEFAULT_ADMIN_ROLE, msg.sender);\n        _grantRole(RECORDER_ROLE, msg.sender);\n\n        // team id counter should start at 1 becayse 0 is reserved for the default no team\n        _teamIdCounter.increment();\n    }\n\n    /**\n     * @notice Check if an address has a profile.\n     * @param _address Address to check.\n     */\n    function hasProfile(address _address) public view returns (bool) {\n        return balanceOf(_address) > 0;\n    }\n\n    /**\n     * @notice Mint a new profile to address\n     * @param _uri URI of the profile.\n     */\n    function createProfile(string memory _uri) external {\n        require(!hasProfile(msg.sender));\n        uint256 tokenId = _tokenIdCounter.current();\n        _tokenIdCounter.increment();\n\n        // create profile\n        Profile memory newProfile;\n        newProfile.uri = _uri;\n        _profiles[tokenId] = newProfile;\n\n        // Mint token to sender\n        _safeMint(msg.sender, tokenId);\n    }\n\n    /**\n     * @notice Mint a new profile to address\n     * @param _name Name of the team.\n     */\n    function createTeam(string memory _name) external {\n        require(hasProfile(msg.sender));\n        uint256 teamId = _teamIdCounter.current();\n        _teamIdCounter.increment();\n        _registeredTeams[teamId] = true;\n\n        Team memory newTeam;\n        newTeam.name = _name;\n        newTeam.founder = msg.sender;\n        _teams[teamId] = newTeam;\n    }\n\n    /**\n     * @notice Allow a user to join a team.\n     * @param _profileID ID of the profile joining the team.\n     * @param _teamID ID of the team to join\n     */\n    function joinTeam(uint256 _profileID, uint256 _teamID) external {\n        require(ownerOf(_profileID) == msg.sender);\n        require(_registeredTeams[_teamID]);\n        Profile storage profile = _profiles[_profileID];\n        profile.currentTeam = _teamID;\n    }\n\n    /**\n     * @notice Add a friend to a profile.\n     * @param _profileID The ID of the profile adding a friend.\n     * @param _friendID The ID of the profile being adding as a friend.\n     */\n    function addFriend(uint256 _profileID, uint256 _friendID)\n        external\n        profileExists(_friendID)\n    {\n        // Sender must be the owner of the profile\n        require(ownerOf(_profileID) == msg.sender);\n        Profile storage profile = _profiles[_profileID];\n        profile.friends.push(_friendID);\n    }\n\n    /**\n     * @notice Remove a friend from a profile.\n     * @param _profileID The ID of the profile removing a friend.\n     * @param _friendIndex The index of the friend in the friends array.\n     */\n    function removeFriend(uint256 _profileID, uint256 _friendIndex) external {\n        // Sender must be the owner of the profile\n        require(ownerOf(_profileID) == msg.sender);\n\n        Profile storage profile = _profiles[_profileID];\n        require(_friendIndex < profile.friends.length);\n        delete profile.friends[_friendIndex];\n    }\n\n    /**\n     * @notice Record token game win.\n     * @param _profileID The ID of the token to record.\n     * @param _winnings The amount the owner of the token won from the game.\n     */\n    function recordWin(uint256 _profileID, uint256 _winnings)\n        external\n        profileExists(_profileID)\n        onlyRole(RECORDER_ROLE)\n    {\n        Profile storage profile = _profiles[_profileID];\n        profile.gamesWon += 1;\n        profile.totalGameWinnings += _winnings;\n    }\n\n    /**\n     * @notice Record token game loss.\n     * @param _profileID The ID of the token to record.\n     */\n    function recordLoss(uint256 _profileID)\n        external\n        profileExists(_profileID)\n        onlyRole(RECORDER_ROLE)\n    {\n        Profile storage profile = _profiles[_profileID];\n        profile.gamesLost += 1;\n    }\n\n    /**\n     * @dev Override of ERC721 and AccessControl supportsInterface\n     */\n    function supportsInterface(bytes4 interfaceId)\n        public\n        view\n        override(ERC721, AccessControl)\n        returns (bool)\n    {\n        return super.supportsInterface(interfaceId);\n    }\n}\n",
  "sourcePath": "/Users/rileystephens/Development/Accel/phlip.io/phlip-contracts/contracts/tokens/PhlipProfile.sol",
  "compiler": {
    "name": "solc",
    "version": "0.8.11+commit.d7f03943.Emscripten.clang"
  },
  "schemaVersion": "3.4.4",
  "updatedAt": "2022-03-08T18:12:57.769Z",
  "devdoc": {
    "author": "Riley Stephens",
    "kind": "dev",
    "methods": {
      "addFriend(uint256,uint256)": {
        "params": {
          "_friendID": "The ID of the profile being adding as a friend.",
          "_profileID": "The ID of the profile adding a friend."
        }
      },
      "approve(address,uint256)": {
        "details": "See {IERC721-approve}."
      },
      "balanceOf(address)": {
        "details": "See {IERC721-balanceOf}."
      },
      "createProfile(string)": {
        "params": {
          "_uri": "URI of the profile."
        }
      },
      "createTeam(string)": {
        "params": {
          "_name": "Name of the team."
        }
      },
      "getApproved(uint256)": {
        "details": "See {IERC721-getApproved}."
      },
      "getRoleAdmin(bytes32)": {
        "details": "Returns the admin role that controls `role`. See {grantRole} and {revokeRole}. To change a role's admin, use {_setRoleAdmin}."
      },
      "grantRole(bytes32,address)": {
        "details": "Grants `role` to `account`. If `account` had not been already granted `role`, emits a {RoleGranted} event. Requirements: - the caller must have ``role``'s admin role."
      },
      "hasProfile(address)": {
        "params": {
          "_address": "Address to check."
        }
      },
      "hasRole(bytes32,address)": {
        "details": "Returns `true` if `account` has been granted `role`."
      },
      "isApprovedForAll(address,address)": {
        "details": "See {IERC721-isApprovedForAll}."
      },
      "joinTeam(uint256,uint256)": {
        "params": {
          "_profileID": "ID of the profile joining the team.",
          "_teamID": "ID of the team to join"
        }
      },
      "name()": {
        "details": "See {IERC721Metadata-name}."
      },
      "ownerOf(uint256)": {
        "details": "See {IERC721-ownerOf}."
      },
      "recordLoss(uint256)": {
        "params": {
          "_profileID": "The ID of the token to record."
        }
      },
      "recordWin(uint256,uint256)": {
        "params": {
          "_profileID": "The ID of the token to record.",
          "_winnings": "The amount the owner of the token won from the game."
        }
      },
      "removeFriend(uint256,uint256)": {
        "params": {
          "_friendIndex": "The index of the friend in the friends array.",
          "_profileID": "The ID of the profile removing a friend."
        }
      },
      "renounceRole(bytes32,address)": {
        "details": "Revokes `role` from the calling account. Roles are often managed via {grantRole} and {revokeRole}: this function's purpose is to provide a mechanism for accounts to lose their privileges if they are compromised (such as when a trusted device is misplaced). If the calling account had been revoked `role`, emits a {RoleRevoked} event. Requirements: - the caller must be `account`."
      },
      "revokeRole(bytes32,address)": {
        "details": "Revokes `role` from `account`. If `account` had been granted `role`, emits a {RoleRevoked} event. Requirements: - the caller must have ``role``'s admin role."
      },
      "safeTransferFrom(address,address,uint256)": {
        "details": "See {IERC721-safeTransferFrom}."
      },
      "safeTransferFrom(address,address,uint256,bytes)": {
        "details": "See {IERC721-safeTransferFrom}."
      },
      "setApprovalForAll(address,bool)": {
        "details": "See {IERC721-setApprovalForAll}."
      },
      "supportsInterface(bytes4)": {
        "details": "Override of ERC721 and AccessControl supportsInterface"
      },
      "symbol()": {
        "details": "See {IERC721Metadata-symbol}."
      },
      "tokenURI(uint256)": {
        "details": "See {IERC721Metadata-tokenURI}."
      },
      "transferFrom(address,address,uint256)": {
        "details": "See {IERC721-transferFrom}."
      }
    },
    "title": "UserProfile",
    "version": 1
  },
  "userdoc": {
    "kind": "user",
    "methods": {
      "addFriend(uint256,uint256)": {
        "notice": "Add a friend to a profile."
      },
      "createProfile(string)": {
        "notice": "Mint a new profile to address"
      },
      "createTeam(string)": {
        "notice": "Mint a new profile to address"
      },
      "hasProfile(address)": {
        "notice": "Check if an address has a profile."
      },
      "joinTeam(uint256,uint256)": {
        "notice": "Allow a user to join a team."
      },
      "recordLoss(uint256)": {
        "notice": "Record token game loss."
      },
      "recordWin(uint256,uint256)": {
        "notice": "Record token game win."
      },
      "removeFriend(uint256,uint256)": {
        "notice": "Remove a friend from a profile."
      }
    },
    "notice": "ERC721 contract representing a Phlip user and their interactions with the game.",
    "version": 1
  }
}