{
  "contractName": "PhlipCard",
  "abi": [
    {
      "inputs": [
        {
          "internalType": "string",
          "name": "_name",
          "type": "string"
        },
        {
          "internalType": "string",
          "name": "_symbol",
          "type": "string"
        },
        {
          "internalType": "string",
          "name": "_baseUri",
          "type": "string"
        },
        {
          "internalType": "uint256",
          "name": "_maxDownvotes",
          "type": "uint256"
        },
        {
          "internalType": "uint256",
          "name": "_maxUriChanges",
          "type": "uint256"
        },
        {
          "internalType": "uint256",
          "name": "_minDaoTokensRequired",
          "type": "uint256"
        },
        {
          "internalType": "address",
          "name": "_daoTokenAddress",
          "type": "address"
        }
      ],
      "stateMutability": "nonpayable",
      "type": "constructor"
    },
    {
      "anonymous": false,
      "inputs": [
        {
          "indexed": true,
          "internalType": "address",
          "name": "owner",
          "type": "address"
        },
        {
          "indexed": true,
          "internalType": "address",
          "name": "approved",
          "type": "address"
        },
        {
          "indexed": true,
          "internalType": "uint256",
          "name": "tokenId",
          "type": "uint256"
        }
      ],
      "name": "Approval",
      "type": "event"
    },
    {
      "anonymous": false,
      "inputs": [
        {
          "indexed": true,
          "internalType": "address",
          "name": "owner",
          "type": "address"
        },
        {
          "indexed": true,
          "internalType": "address",
          "name": "operator",
          "type": "address"
        },
        {
          "indexed": false,
          "internalType": "bool",
          "name": "approved",
          "type": "bool"
        }
      ],
      "name": "ApprovalForAll",
      "type": "event"
    },
    {
      "anonymous": false,
      "inputs": [
        {
          "indexed": false,
          "internalType": "address",
          "name": "account",
          "type": "address"
        }
      ],
      "name": "Paused",
      "type": "event"
    },
    {
      "anonymous": false,
      "inputs": [
        {
          "indexed": true,
          "internalType": "bytes32",
          "name": "role",
          "type": "bytes32"
        },
        {
          "indexed": true,
          "internalType": "bytes32",
          "name": "previousAdminRole",
          "type": "bytes32"
        },
        {
          "indexed": true,
          "internalType": "bytes32",
          "name": "newAdminRole",
          "type": "bytes32"
        }
      ],
      "name": "RoleAdminChanged",
      "type": "event"
    },
    {
      "anonymous": false,
      "inputs": [
        {
          "indexed": true,
          "internalType": "bytes32",
          "name": "role",
          "type": "bytes32"
        },
        {
          "indexed": true,
          "internalType": "address",
          "name": "account",
          "type": "address"
        },
        {
          "indexed": true,
          "internalType": "address",
          "name": "sender",
          "type": "address"
        }
      ],
      "name": "RoleGranted",
      "type": "event"
    },
    {
      "anonymous": false,
      "inputs": [
        {
          "indexed": true,
          "internalType": "bytes32",
          "name": "role",
          "type": "bytes32"
        },
        {
          "indexed": true,
          "internalType": "address",
          "name": "account",
          "type": "address"
        },
        {
          "indexed": true,
          "internalType": "address",
          "name": "sender",
          "type": "address"
        }
      ],
      "name": "RoleRevoked",
      "type": "event"
    },
    {
      "anonymous": false,
      "inputs": [
        {
          "indexed": true,
          "internalType": "address",
          "name": "from",
          "type": "address"
        },
        {
          "indexed": true,
          "internalType": "address",
          "name": "to",
          "type": "address"
        },
        {
          "indexed": true,
          "internalType": "uint256",
          "name": "tokenId",
          "type": "uint256"
        }
      ],
      "name": "Transfer",
      "type": "event"
    },
    {
      "anonymous": false,
      "inputs": [
        {
          "indexed": false,
          "internalType": "address",
          "name": "account",
          "type": "address"
        }
      ],
      "name": "Unpaused",
      "type": "event"
    },
    {
      "inputs": [],
      "name": "BASE_URI",
      "outputs": [
        {
          "internalType": "string",
          "name": "",
          "type": "string"
        }
      ],
      "stateMutability": "view",
      "type": "function"
    },
    {
      "inputs": [],
      "name": "BLOCKER_ROLE",
      "outputs": [
        {
          "internalType": "bytes32",
          "name": "",
          "type": "bytes32"
        }
      ],
      "stateMutability": "view",
      "type": "function"
    },
    {
      "inputs": [],
      "name": "DAO_TOKEN",
      "outputs": [
        {
          "internalType": "contract IERC20",
          "name": "",
          "type": "address"
        }
      ],
      "stateMutability": "view",
      "type": "function"
    },
    {
      "inputs": [],
      "name": "DEFAULT_ADMIN_ROLE",
      "outputs": [
        {
          "internalType": "bytes32",
          "name": "",
          "type": "bytes32"
        }
      ],
      "stateMutability": "view",
      "type": "function"
    },
    {
      "inputs": [],
      "name": "MAX_DOWNVOTES",
      "outputs": [
        {
          "internalType": "uint256",
          "name": "",
          "type": "uint256"
        }
      ],
      "stateMutability": "view",
      "type": "function"
    },
    {
      "inputs": [],
      "name": "MAX_URI_CHANGES",
      "outputs": [
        {
          "internalType": "uint256",
          "name": "",
          "type": "uint256"
        }
      ],
      "stateMutability": "view",
      "type": "function"
    },
    {
      "inputs": [],
      "name": "MINTER_ROLE",
      "outputs": [
        {
          "internalType": "bytes32",
          "name": "",
          "type": "bytes32"
        }
      ],
      "stateMutability": "view",
      "type": "function"
    },
    {
      "inputs": [],
      "name": "MIN_DAO_TOKENS_REQUIRED",
      "outputs": [
        {
          "internalType": "uint256",
          "name": "",
          "type": "uint256"
        }
      ],
      "stateMutability": "view",
      "type": "function"
    },
    {
      "inputs": [],
      "name": "PAUSER_ROLE",
      "outputs": [
        {
          "internalType": "bytes32",
          "name": "",
          "type": "bytes32"
        }
      ],
      "stateMutability": "view",
      "type": "function"
    },
    {
      "inputs": [
        {
          "internalType": "address",
          "name": "to",
          "type": "address"
        },
        {
          "internalType": "uint256",
          "name": "tokenId",
          "type": "uint256"
        }
      ],
      "name": "approve",
      "outputs": [],
      "stateMutability": "nonpayable",
      "type": "function"
    },
    {
      "inputs": [
        {
          "internalType": "address",
          "name": "owner",
          "type": "address"
        }
      ],
      "name": "balanceOf",
      "outputs": [
        {
          "internalType": "uint256",
          "name": "",
          "type": "uint256"
        }
      ],
      "stateMutability": "view",
      "type": "function"
    },
    {
      "inputs": [
        {
          "internalType": "uint256",
          "name": "_ballotID",
          "type": "uint256"
        }
      ],
      "name": "ballotIsRegistered",
      "outputs": [
        {
          "internalType": "bool",
          "name": "",
          "type": "bool"
        }
      ],
      "stateMutability": "view",
      "type": "function"
    },
    {
      "inputs": [
        {
          "internalType": "uint256",
          "name": "_ballotID",
          "type": "uint256"
        }
      ],
      "name": "downVotesFor",
      "outputs": [
        {
          "internalType": "uint256",
          "name": "",
          "type": "uint256"
        }
      ],
      "stateMutability": "view",
      "type": "function"
    },
    {
      "inputs": [
        {
          "internalType": "uint256",
          "name": "tokenId",
          "type": "uint256"
        }
      ],
      "name": "getApproved",
      "outputs": [
        {
          "internalType": "address",
          "name": "",
          "type": "address"
        }
      ],
      "stateMutability": "view",
      "type": "function"
    },
    {
      "inputs": [
        {
          "internalType": "address",
          "name": "_address",
          "type": "address"
        },
        {
          "internalType": "uint256",
          "name": "_index",
          "type": "uint256"
        }
      ],
      "name": "getClaimableID",
      "outputs": [
        {
          "internalType": "uint256",
          "name": "",
          "type": "uint256"
        }
      ],
      "stateMutability": "view",
      "type": "function"
    },
    {
      "inputs": [
        {
          "internalType": "bytes32",
          "name": "role",
          "type": "bytes32"
        }
      ],
      "name": "getRoleAdmin",
      "outputs": [
        {
          "internalType": "bytes32",
          "name": "",
          "type": "bytes32"
        }
      ],
      "stateMutability": "view",
      "type": "function"
    },
    {
      "inputs": [
        {
          "internalType": "bytes32",
          "name": "role",
          "type": "bytes32"
        },
        {
          "internalType": "address",
          "name": "account",
          "type": "address"
        }
      ],
      "name": "grantRole",
      "outputs": [],
      "stateMutability": "nonpayable",
      "type": "function"
    },
    {
      "inputs": [
        {
          "internalType": "address",
          "name": "_address",
          "type": "address"
        }
      ],
      "name": "hasClaim",
      "outputs": [
        {
          "internalType": "bool",
          "name": "",
          "type": "bool"
        }
      ],
      "stateMutability": "view",
      "type": "function"
    },
    {
      "inputs": [
        {
          "internalType": "bytes32",
          "name": "role",
          "type": "bytes32"
        },
        {
          "internalType": "address",
          "name": "account",
          "type": "address"
        }
      ],
      "name": "hasRole",
      "outputs": [
        {
          "internalType": "bool",
          "name": "",
          "type": "bool"
        }
      ],
      "stateMutability": "view",
      "type": "function"
    },
    {
      "inputs": [
        {
          "internalType": "address",
          "name": "owner",
          "type": "address"
        },
        {
          "internalType": "address",
          "name": "operator",
          "type": "address"
        }
      ],
      "name": "isApprovedForAll",
      "outputs": [
        {
          "internalType": "bool",
          "name": "",
          "type": "bool"
        }
      ],
      "stateMutability": "view",
      "type": "function"
    },
    {
      "inputs": [
        {
          "internalType": "address",
          "name": "_address",
          "type": "address"
        }
      ],
      "name": "isBlacklisted",
      "outputs": [
        {
          "internalType": "bool",
          "name": "",
          "type": "bool"
        }
      ],
      "stateMutability": "view",
      "type": "function"
    },
    {
      "inputs": [],
      "name": "name",
      "outputs": [
        {
          "internalType": "string",
          "name": "",
          "type": "string"
        }
      ],
      "stateMutability": "view",
      "type": "function"
    },
    {
      "inputs": [
        {
          "internalType": "address",
          "name": "_address",
          "type": "address"
        }
      ],
      "name": "nextClaimableID",
      "outputs": [
        {
          "internalType": "uint256",
          "name": "",
          "type": "uint256"
        }
      ],
      "stateMutability": "view",
      "type": "function"
    },
    {
      "inputs": [
        {
          "internalType": "uint256",
          "name": "tokenId",
          "type": "uint256"
        }
      ],
      "name": "ownerOf",
      "outputs": [
        {
          "internalType": "address",
          "name": "",
          "type": "address"
        }
      ],
      "stateMutability": "view",
      "type": "function"
    },
    {
      "inputs": [],
      "name": "paused",
      "outputs": [
        {
          "internalType": "bool",
          "name": "",
          "type": "bool"
        }
      ],
      "stateMutability": "view",
      "type": "function"
    },
    {
      "inputs": [
        {
          "internalType": "address",
          "name": "_address",
          "type": "address"
        }
      ],
      "name": "remainingClaims",
      "outputs": [
        {
          "internalType": "uint256",
          "name": "",
          "type": "uint256"
        }
      ],
      "stateMutability": "view",
      "type": "function"
    },
    {
      "inputs": [
        {
          "internalType": "bytes32",
          "name": "role",
          "type": "bytes32"
        },
        {
          "internalType": "address",
          "name": "account",
          "type": "address"
        }
      ],
      "name": "renounceRole",
      "outputs": [],
      "stateMutability": "nonpayable",
      "type": "function"
    },
    {
      "inputs": [
        {
          "internalType": "bytes32",
          "name": "role",
          "type": "bytes32"
        },
        {
          "internalType": "address",
          "name": "account",
          "type": "address"
        }
      ],
      "name": "revokeRole",
      "outputs": [],
      "stateMutability": "nonpayable",
      "type": "function"
    },
    {
      "inputs": [
        {
          "internalType": "address",
          "name": "from",
          "type": "address"
        },
        {
          "internalType": "address",
          "name": "to",
          "type": "address"
        },
        {
          "internalType": "uint256",
          "name": "tokenId",
          "type": "uint256"
        }
      ],
      "name": "safeTransferFrom",
      "outputs": [],
      "stateMutability": "nonpayable",
      "type": "function"
    },
    {
      "inputs": [
        {
          "internalType": "address",
          "name": "from",
          "type": "address"
        },
        {
          "internalType": "address",
          "name": "to",
          "type": "address"
        },
        {
          "internalType": "uint256",
          "name": "tokenId",
          "type": "uint256"
        },
        {
          "internalType": "bytes",
          "name": "_data",
          "type": "bytes"
        }
      ],
      "name": "safeTransferFrom",
      "outputs": [],
      "stateMutability": "nonpayable",
      "type": "function"
    },
    {
      "inputs": [
        {
          "internalType": "address",
          "name": "operator",
          "type": "address"
        },
        {
          "internalType": "bool",
          "name": "approved",
          "type": "bool"
        }
      ],
      "name": "setApprovalForAll",
      "outputs": [],
      "stateMutability": "nonpayable",
      "type": "function"
    },
    {
      "inputs": [],
      "name": "symbol",
      "outputs": [
        {
          "internalType": "string",
          "name": "",
          "type": "string"
        }
      ],
      "stateMutability": "view",
      "type": "function"
    },
    {
      "inputs": [
        {
          "internalType": "address",
          "name": "from",
          "type": "address"
        },
        {
          "internalType": "address",
          "name": "to",
          "type": "address"
        },
        {
          "internalType": "uint256",
          "name": "tokenId",
          "type": "uint256"
        }
      ],
      "name": "transferFrom",
      "outputs": [],
      "stateMutability": "nonpayable",
      "type": "function"
    },
    {
      "inputs": [
        {
          "internalType": "uint256",
          "name": "_ballotID",
          "type": "uint256"
        }
      ],
      "name": "upVotesFor",
      "outputs": [
        {
          "internalType": "uint256",
          "name": "",
          "type": "uint256"
        }
      ],
      "stateMutability": "view",
      "type": "function"
    },
    {
      "inputs": [],
      "name": "pause",
      "outputs": [],
      "stateMutability": "nonpayable",
      "type": "function"
    },
    {
      "inputs": [],
      "name": "unpause",
      "outputs": [],
      "stateMutability": "nonpayable",
      "type": "function"
    },
    {
      "inputs": [
        {
          "internalType": "address",
          "name": "_address",
          "type": "address"
        }
      ],
      "name": "blacklistAddress",
      "outputs": [],
      "stateMutability": "nonpayable",
      "type": "function"
    },
    {
      "inputs": [
        {
          "internalType": "address",
          "name": "_address",
          "type": "address"
        }
      ],
      "name": "unblacklistAddress",
      "outputs": [],
      "stateMutability": "nonpayable",
      "type": "function"
    },
    {
      "inputs": [
        {
          "internalType": "address",
          "name": "_address",
          "type": "address"
        },
        {
          "internalType": "uint256",
          "name": "_amount",
          "type": "uint256"
        }
      ],
      "name": "createClaim",
      "outputs": [],
      "stateMutability": "nonpayable",
      "type": "function"
    },
    {
      "inputs": [
        {
          "internalType": "address",
          "name": "_address",
          "type": "address"
        },
        {
          "internalType": "uint256",
          "name": "_amount",
          "type": "uint256"
        }
      ],
      "name": "increaseClaim",
      "outputs": [],
      "stateMutability": "nonpayable",
      "type": "function"
    },
    {
      "inputs": [
        {
          "internalType": "address",
          "name": "_to",
          "type": "address"
        },
        {
          "internalType": "string",
          "name": "_uri",
          "type": "string"
        }
      ],
      "name": "mintCard",
      "outputs": [],
      "stateMutability": "nonpayable",
      "type": "function"
    },
    {
      "inputs": [
        {
          "internalType": "string",
          "name": "_uri",
          "type": "string"
        }
      ],
      "name": "redeemCard",
      "outputs": [],
      "stateMutability": "nonpayable",
      "type": "function"
    },
    {
      "inputs": [
        {
          "internalType": "uint256",
          "name": "_tokenID",
          "type": "uint256"
        },
        {
          "internalType": "string",
          "name": "_uri",
          "type": "string"
        }
      ],
      "name": "updateCardURI",
      "outputs": [],
      "stateMutability": "nonpayable",
      "type": "function"
    },
    {
      "inputs": [
        {
          "internalType": "uint256",
          "name": "_tokenID",
          "type": "uint256"
        }
      ],
      "name": "upVote",
      "outputs": [],
      "stateMutability": "nonpayable",
      "type": "function"
    },
    {
      "inputs": [
        {
          "internalType": "uint256",
          "name": "_tokenID",
          "type": "uint256"
        }
      ],
      "name": "downVote",
      "outputs": [],
      "stateMutability": "nonpayable",
      "type": "function"
    },
    {
      "inputs": [
        {
          "internalType": "address",
          "name": "_account",
          "type": "address"
        }
      ],
      "name": "isDaoTokenHolder",
      "outputs": [
        {
          "internalType": "bool",
          "name": "",
          "type": "bool"
        }
      ],
      "stateMutability": "view",
      "type": "function"
    },
    {
      "inputs": [
        {
          "internalType": "string",
          "name": "_newURI",
          "type": "string"
        }
      ],
      "name": "setBaseURI",
      "outputs": [],
      "stateMutability": "nonpayable",
      "type": "function"
    },
    {
      "inputs": [
        {
          "internalType": "uint256",
          "name": "_newMax",
          "type": "uint256"
        }
      ],
      "name": "setDownVoteMax",
      "outputs": [],
      "stateMutability": "nonpayable",
      "type": "function"
    },
    {
      "inputs": [
        {
          "internalType": "uint256",
          "name": "_newMax",
          "type": "uint256"
        }
      ],
      "name": "setUriChangeMax",
      "outputs": [],
      "stateMutability": "nonpayable",
      "type": "function"
    },
    {
      "inputs": [
        {
          "internalType": "uint256",
          "name": "_newMin",
          "type": "uint256"
        }
      ],
      "name": "setMinDaoTokensRequired",
      "outputs": [],
      "stateMutability": "nonpayable",
      "type": "function"
    },
    {
      "inputs": [
        {
          "internalType": "address",
          "name": "_daoTokenAddress",
          "type": "address"
        }
      ],
      "name": "setDaoTokenAddress",
      "outputs": [],
      "stateMutability": "nonpayable",
      "type": "function"
    },
    {
      "inputs": [
        {
          "internalType": "uint256",
          "name": "_tokenId",
          "type": "uint256"
        }
      ],
      "name": "tokenURI",
      "outputs": [
        {
          "internalType": "string",
          "name": "",
          "type": "string"
        }
      ],
      "stateMutability": "view",
      "type": "function"
    },
    {
      "inputs": [
        {
          "internalType": "bytes4",
          "name": "interfaceId",
          "type": "bytes4"
        }
      ],
      "name": "supportsInterface",
      "outputs": [
        {
          "internalType": "bool",
          "name": "",
          "type": "bool"
        }
      ],
      "stateMutability": "view",
      "type": "function"
    }
  ],
  "bytecode": "0x60806040523480156200001157600080fd5b5060405162003f6138038062003f6183398101604081905262000034916200066e565b8651879087906200004d906000906020850190620004ee565b50805162000063906001906020840190620004ee565b50506006805460ff19169055506200007d60003362000108565b6200009860008051602062003f418339815191523362000108565b620000c47f65d7a28e3265b37a6474929f336521b332c1681b933f6cb9f3376673440d862a3362000108565b620000cf85620001ad565b620000da84620001e3565b620000e58362000205565b620000f08262000227565b620000fb8162000249565b50505050505050620008af565b60008281526007602090815260408083206001600160a01b038516845290915290205460ff16620001a95760008281526007602090815260408083206001600160a01b03851684529091529020805460ff19166001179055620001683390565b6001600160a01b0316816001600160a01b0316837f2f8788117e7eff1d82e926ec794901d17c78024a50270940304540a733656f0d60405160405180910390a45b5050565b60008051602062003f41833981519152620001c9813362000288565b8151620001de90600e906020850190620004ee565b505050565b60008051602062003f41833981519152620001ff813362000288565b50600f55565b60008051602062003f4183398151915262000221813362000288565b50601055565b60008051602062003f4183398151915262000243813362000288565b50601155565b60008051602062003f4183398151915262000265813362000288565b50601280546001600160a01b0319166001600160a01b0392909216919091179055565b60008281526007602090815260408083206001600160a01b038516845290915290205460ff16620001a957620002d4816001600160a01b031660146200032e60201b620017ec1760201c565b620002ea836020620017ec6200032e821b17811c565b604051602001620002fd92919062000741565b60408051601f198184030181529082905262461bcd60e51b82526200032591600401620007ba565b60405180910390fd5b606060006200033f83600262000805565b6200034c90600262000827565b6001600160401b0381111562000366576200036662000594565b6040519080825280601f01601f19166020018201604052801562000391576020820181803683370190505b509050600360fc1b81600081518110620003af57620003af62000842565b60200101906001600160f81b031916908160001a905350600f60fb1b81600181518110620003e157620003e162000842565b60200101906001600160f81b031916908160001a90535060006200040784600262000805565b6200041490600162000827565b90505b600181111562000496576f181899199a1a9b1b9c1cb0b131b232b360811b85600f16601081106200044c576200044c62000842565b1a60f81b82828151811062000465576200046562000842565b60200101906001600160f81b031916908160001a90535060049490941c936200048e8162000858565b905062000417565b508315620004e75760405162461bcd60e51b815260206004820181905260248201527f537472696e67733a20686578206c656e67746820696e73756666696369656e74604482015260640162000325565b9392505050565b828054620004fc9062000872565b90600052602060002090601f0160209004810192826200052057600085556200056b565b82601f106200053b57805160ff19168380011785556200056b565b828001600101855582156200056b579182015b828111156200056b5782518255916020019190600101906200054e565b50620005799291506200057d565b5090565b5b808211156200057957600081556001016200057e565b634e487b7160e01b600052604160045260246000fd5b60005b83811015620005c7578181015183820152602001620005ad565b83811115620005d7576000848401525b50505050565b600082601f830112620005ef57600080fd5b81516001600160401b03808211156200060c576200060c62000594565b604051601f8301601f19908116603f0116810190828211818310171562000637576200063762000594565b816040528381528660208588010111156200065157600080fd5b62000664846020830160208901620005aa565b9695505050505050565b600080600080600080600060e0888a0312156200068a57600080fd5b87516001600160401b0380821115620006a257600080fd5b620006b08b838c01620005dd565b985060208a0151915080821115620006c757600080fd5b620006d58b838c01620005dd565b975060408a0151915080821115620006ec57600080fd5b50620006fb8a828b01620005dd565b60608a015160808b015160a08c015160c08d01519399509197509550935090506001600160a01b03811681146200073157600080fd5b8091505092959891949750929550565b7f416363657373436f6e74726f6c3a206163636f756e74200000000000000000008152600083516200077b816017850160208801620005aa565b7001034b99036b4b9b9b4b733903937b6329607d1b6017918401918201528351620007ae816028840160208801620005aa565b01602801949350505050565b6020815260008251806020840152620007db816040850160208701620005aa565b601f01601f19169190910160400192915050565b634e487b7160e01b600052601160045260246000fd5b6000816000190483118215151615620008225762000822620007ef565b500290565b600082198211156200083d576200083d620007ef565b500190565b634e487b7160e01b600052603260045260246000fd5b6000816200086a576200086a620007ef565b506000190190565b600181811c908216806200088757607f821691505b60208210811415620008a957634e487b7160e01b600052602260045260246000fd5b50919050565b61368280620008bf6000396000f3fe608060405234801561001057600080fd5b50600436106103265760003560e01c806391d14854116101b8578063d539139311610104578063ec859db5116100a2578063f7d5b0131161007c578063f7d5b01314610730578063fa2ce79b14610743578063fce76f861461076f578063fe575a871461079257600080fd5b8063ec859db5146106f7578063f2fc4ba61461070a578063f3290d751461071d57600080fd5b8063e45c084d116100de578063e45c084d1461065a578063e63ab1e914610681578063e85b26c0146106a8578063e985e9c5146106bb57600080fd5b8063d53913931461062a578063d547741f1461063f578063dbddb26a1461065257600080fd5b8063a701b68411610171578063c7cd5adb1161014b578063c7cd5adb146105e8578063c87b56dd146105f1578063cd7e53cc14610604578063d519ffa41461061757600080fd5b8063a701b684146105b9578063b18f9739146105cc578063b88d4fde146105d557600080fd5b806391d148541461054d57806395d89b41146105605780639d0bde7a14610568578063a1829d061461057b578063a217fddf1461059e578063a22cb465146105a657600080fd5b806336568abe116102775780636352211e11610230578063767855291161020a57806376785529146105165780638456cb59146105295780638a0742b2146105315780638e512ce71461054457600080fd5b80636352211e146104dd57806368154a36146104f057806370a082311461050357600080fd5b806336568abe1461047e5780633f4ba83a1461049157806342842e0e1461049957806345e34949146104ac57806355f804b3146104bf5780635c975abb146104d257600080fd5b80630d893fad116102e4578063248a9ca3116102be578063248a9ca31461042257806327e26c8c146104455780632b5827a9146104585780632f2ff15d1461046b57600080fd5b80630d893fad146103e95780631ae9392d146103fc57806323b872dd1461040f57600080fd5b80622369071461032b57806301ffc9a71461034057806306fdde0314610368578063081812fc1461037d578063095ea7b3146103a85780630a6b570f146103bb575b600080fd5b61033e610339366004612de5565b6107be565b005b61035361034e366004612e25565b610820565b60405190151581526020015b60405180910390f35b610370610831565b60405161035f9190612e9a565b61039061038b366004612ead565b6108c3565b6040516001600160a01b03909116815260200161035f565b61033e6103b6366004612de5565b610950565b6103db6103c9366004612ead565b6000908152600d602052604090205490565b60405190815260200161035f565b61033e6103f7366004612ead565b610a66565b61033e61040a366004612ead565b610a85565b61033e61041d366004612ec6565b610b71565b6103db610430366004612ead565b60009081526007602052604090206001015490565b61033e610453366004612fae565b610ba2565b601254610390906001600160a01b031681565b61033e610479366004612fe3565b610c57565b61033e61048c366004612fe3565b610c7d565b61033e610cf7565b61033e6104a7366004612ec6565b610d2d565b61033e6104ba36600461300f565b610d48565b61033e6104cd366004612fae565b610d98565b60065460ff16610353565b6103906104eb366004612ead565b610dc4565b6103db6104fe36600461300f565b610e3b565b6103db61051136600461300f565b610eb2565b61033e610524366004612ead565b610f39565b61033e610f58565b61033e61053f36600461302a565b610f8b565b6103db60115481565b61035361055b366004612fe3565b611121565b61037061114c565b61033e610576366004612ead565b61115b565b610353610589366004612ead565b6000908152600c602052604090205460ff1690565b6103db600081565b61033e6105b4366004613071565b61117a565b6103db6105c7366004612de5565b611185565b6103db600f5481565b61033e6105e33660046130ad565b611283565b6103db60105481565b6103706105ff366004612ead565b6112b5565b61033e610612366004613129565b611421565b61033e61062536600461300f565b611460565b6103db60008051602061362d83398151915281565b61033e61064d366004612fe3565b61149c565b6103706114c2565b6103db7f8f2e0057cd5e35397007bcc8f5418f73dd64cc6e4073a0276563f247c307903781565b6103db7f65d7a28e3265b37a6474929f336521b332c1681b933f6cb9f3376673440d862a81565b61033e6106b6366004612de5565b611550565b6103536106c9366004613161565b6001600160a01b03918216600090815260056020908152604080832093909416825291909152205460ff1690565b61033e610705366004612ead565b611612565b6103db61071836600461300f565b6116c6565b61033e61072b36600461300f565b611720565b61035361073e36600461300f565b611773565b61035361075136600461300f565b6001600160a01b031660009081526009602052604090205460ff1690565b6103db61077d366004612ead565b6000908152600d602052604090206001015490565b6103536107a036600461300f565b6001600160a01b031660009081526008602052604090205460ff1690565b60008051602061362d8339815191526107d7813361198f565b60005b8281101561081a5760006107ed60135490565b90506107fd601380546001019055565b61080785826119f3565b5080610812816131a1565b9150506107da565b50505050565b600061082b82611b04565b92915050565b606060008054610840906131bc565b80601f016020809104026020016040519081016040528092919081815260200182805461086c906131bc565b80156108b95780601f1061088e576101008083540402835291602001916108b9565b820191906000526020600020905b81548152906001019060200180831161089c57829003601f168201915b5050505050905090565b60006108ce82611b29565b6109345760405162461bcd60e51b815260206004820152602c60248201527f4552433732313a20617070726f76656420717565727920666f72206e6f6e657860448201526b34b9ba32b73a103a37b5b2b760a11b60648201526084015b60405180910390fd5b506000908152600460205260409020546001600160a01b031690565b600061095b82610dc4565b9050806001600160a01b0316836001600160a01b031614156109c95760405162461bcd60e51b815260206004820152602160248201527f4552433732313a20617070726f76616c20746f2063757272656e74206f776e656044820152603960f91b606482015260840161092b565b336001600160a01b03821614806109e557506109e581336106c9565b610a575760405162461bcd60e51b815260206004820152603860248201527f4552433732313a20617070726f76652063616c6c6572206973206e6f74206f7760448201527f6e6572206e6f7220617070726f76656420666f7220616c6c0000000000000000606482015260840161092b565b610a618383611b46565b505050565b60008051602061362d833981519152610a7f813361198f565b50600f55565b3360009081526008602052604090205460ff1615610ab55760405162461bcd60e51b815260040161092b906131f1565b80610abf81611b29565b610b0b5760405162461bcd60e51b815260206004820181905260248201527f50686c6970436172643a20546f6b656e20646f6573206e6f742065786973742e604482015260640161092b565b610b1433611773565b610b305760405162461bcd60e51b815260040161092b90613243565b610b3982611bb4565b600f546000838152600d602052604090206001015410610b6d576000828152601460205260409020600301805460ff191690555b5050565b610b7b3382611c88565b610b975760405162461bcd60e51b815260040161092b9061328f565b610a61838383611d6e565b60065460ff1615610bc55760405162461bcd60e51b815260040161092b906132e0565b3360009081526009602052604090205460ff16610c345760405162461bcd60e51b815260206004820152602760248201527f436c61696d61626c653a2041646472657373206973206e6f7420612062656e656044820152666669636961727960c81b606482015260840161092b565b6000610c3f33610e3b565b9050610c4c336000611f15565b610b6d8133846120ae565b600082815260076020526040902060010154610c73813361198f565b610a61838361215b565b6001600160a01b0381163314610ced5760405162461bcd60e51b815260206004820152602f60248201527f416363657373436f6e74726f6c3a2063616e206f6e6c792072656e6f756e636560448201526e103937b632b9903337b91039b2b63360891b606482015260840161092b565b610b6d82826121e1565b7f65d7a28e3265b37a6474929f336521b332c1681b933f6cb9f3376673440d862a610d22813361198f565b610d2a612248565b50565b610a6183838360405180602001604052806000815250611283565b7f8f2e0057cd5e35397007bcc8f5418f73dd64cc6e4073a0276563f247c3079037610d73813361198f565b610b6d826001600160a01b03166000908152600860205260409020805460ff19169055565b60008051602061362d833981519152610db1813361198f565b8151610a6190600e906020850190612cd8565b6000818152600260205260408120546001600160a01b03168061082b5760405162461bcd60e51b815260206004820152602960248201527f4552433732313a206f776e657220717565727920666f72206e6f6e657869737460448201526832b73a103a37b5b2b760b91b606482015260840161092b565b6001600160a01b038116600090815260096020526040812054829060ff16610e755760405162461bcd60e51b815260040161092b9061330a565b6001600160a01b0383166000908152600a602052604081208054909190610e9e57610e9e61333f565b906000526020600020015491505b50919050565b60006001600160a01b038216610f1d5760405162461bcd60e51b815260206004820152602a60248201527f4552433732313a2062616c616e636520717565727920666f7220746865207a65604482015269726f206164647265737360b01b606482015260840161092b565b506001600160a01b031660009081526003602052604090205490565b60008051602061362d833981519152610f52813361198f565b50601155565b7f65d7a28e3265b37a6474929f336521b332c1681b933f6cb9f3376673440d862a610f83813361198f565b610d2a6122db565b33610f9583610dc4565b6001600160a01b031614610fff5760405162461bcd60e51b815260206004820152602b60248201527f50686c6970436172643a204164647265737320646f6573206e6f74206f776e2060448201526a3a3434b9903a37b5b2b71760a91b606482015260840161092b565b600082815260146020526040902060105460028201541061107c5760405162461bcd60e51b815260206004820152603160248201527f50686c6970436172643a204d6178696d756d206e756d626572206f66205552496044820152701031b430b733b2b9903932b0b1b432b21760791b606482015260840161092b565b60018101546001600160a01b031633146110ef5760405162461bcd60e51b815260206004820152602e60248201527f50686c6970436172643a204f6e6c7920746865206d696e7465722063616e207560448201526d383230ba32903a3432902aa9249760911b606482015260840161092b565b81516111019082906020850190612cd8565b5060018160020160008282546111179190613355565b9091555050505050565b60009182526007602090815260408084206001600160a01b0393909316845291905290205460ff1690565b606060018054610840906131bc565b60008051602061362d833981519152611174813361198f565b50601055565b610b6d338383612333565b6001600160a01b038216600090815260096020526040812054839060ff166111bf5760405162461bcd60e51b815260040161092b9061330a565b6001600160a01b0384166000908152600a602052604090206001015483106112455760405162461bcd60e51b815260206004820152603360248201527f436c61696d61626c652e676574436c61696d61626c6549443a20417373657420604482015272696e646578206f7574206f6620626f756e647360681b606482015260840161092b565b6001600160a01b0384166000908152600a6020526040902080548490811061126f5761126f61333f565b906000526020600020015491505092915050565b61128d3383611c88565b6112a95760405162461bcd60e51b815260040161092b9061328f565b61081a84848484612402565b60606112c082611b29565b6113285760405162461bcd60e51b815260206004820152603360248201527f50686c6970436172642e746f6b656e5552493a2055524920717565727920666f60448201527239103737b732bc34b9ba32b73a103a37b5b2b760691b606482015260840161092b565b60008281526014602052604081208054611341906131bc565b80601f016020809104026020016040519081016040528092919081815260200182805461136d906131bc565b80156113ba5780601f1061138f576101008083540402835291602001916113ba565b820191906000526020600020905b81548152906001019060200180831161139d57829003601f168201915b5050505050905060006113cb612435565b90508051600014156113de575092915050565b8151156114105780826040516020016113f892919061336d565b60405160208183030381529060405292505050919050565b61141984612444565b949350505050565b60008051602061362d83398151915261143a813361198f565b600061144560135490565b9050611455601380546001019055565b61081a8185856120ae565b60008051602061362d833981519152611479813361198f565b50601280546001600160a01b0319166001600160a01b0392909216919091179055565b6000828152600760205260409020600101546114b8813361198f565b610a6183836121e1565b600e80546114cf906131bc565b80601f01602080910402602001604051908101604052809291908181526020018280546114fb906131bc565b80156115485780601f1061151d57610100808354040283529160200191611548565b820191906000526020600020905b81548152906001019060200180831161152b57829003601f168201915b505050505081565b60008051602061362d833981519152611569813361198f565b60008267ffffffffffffffff81111561158457611584612f02565b6040519080825280602002602001820160405280156115ad578160200160208202803683370190505b50905060005b838110156116075760006115c660135490565b90506115d6601380546001019055565b808383815181106115e9576115e961333f565b602090810291909101015250806115ff816131a1565b9150506115b3565b5061081a848261250e565b3360009081526008602052604090205460ff16156116425760405162461bcd60e51b815260040161092b906131f1565b8061164c81611b29565b6116985760405162461bcd60e51b815260206004820181905260248201527f50686c6970436172643a20546f6b656e20646f6573206e6f742065786973742e604482015260640161092b565b6116a133611773565b6116bd5760405162461bcd60e51b815260040161092b90613243565b610b6d82612788565b6001600160a01b038116600090815260096020526040812054829060ff166117005760405162461bcd60e51b815260040161092b9061330a565b50506001600160a01b03166000908152600a602052604090206001015490565b7f8f2e0057cd5e35397007bcc8f5418f73dd64cc6e4073a0276563f247c307903761174b813361198f565b610b6d826001600160a01b03166000908152600860205260409020805460ff19166001179055565b6012546040516370a0823160e01b81526001600160a01b03838116600483015260009283929116906370a0823190602401602060405180830381865afa1580156117c1573d6000803e3d6000fd5b505050506040513d601f19601f820116820180604052508101906117e5919061339c565b1192915050565b606060006117fb8360026133b5565b611806906002613355565b67ffffffffffffffff81111561181e5761181e612f02565b6040519080825280601f01601f191660200182016040528015611848576020820181803683370190505b509050600360fc1b816000815181106118635761186361333f565b60200101906001600160f81b031916908160001a905350600f60fb1b816001815181106118925761189261333f565b60200101906001600160f81b031916908160001a90535060006118b68460026133b5565b6118c1906001613355565b90505b6001811115611939576f181899199a1a9b1b9c1cb0b131b232b360811b85600f16601081106118f5576118f561333f565b1a60f81b82828151811061190b5761190b61333f565b60200101906001600160f81b031916908160001a90535060049490941c93611932816133d4565b90506118c4565b5083156119885760405162461bcd60e51b815260206004820181905260248201527f537472696e67733a20686578206c656e67746820696e73756666696369656e74604482015260640161092b565b9392505050565b6119998282611121565b610b6d576119b1816001600160a01b031660146117ec565b6119bc8360206117ec565b6040516020016119cd9291906133eb565b60408051601f198184030181529082905262461bcd60e51b825261092b91600401612e9a565b6001600160a01b038216600090815260096020526040902054829060ff16611a2d5760405162461bcd60e51b815260040161092b9061330a565b6000828152600b60205260409020546001600160a01b031615611ab85760405162461bcd60e51b815260206004820152603960248201527f436c61696d61626c652e5f616464546f436c61696d3a2041737365742049442060448201527f68617320616c7265616479206265656e20636c61696d65642e00000000000000606482015260840161092b565b6001600160a01b0383166000908152600a60209081526040822080546001818101835582855292842001859055818101805491939091611af9908490613355565b909155505050505050565b60006001600160e01b03198216637965db0b60e01b148061082b575061082b82612859565b6000908152600260205260409020546001600160a01b0316151590565b600081815260046020526040902080546001600160a01b0319166001600160a01b0384169081179091558190611b7b82610dc4565b6001600160a01b03167f8c5be1e5ebec7d5bd14f71427d1e84f3dd0314c0f7b2291e5b200ac8c7c3b92560405160405180910390a45050565b6000818152600c6020526040902054819060ff16611be45760405162461bcd60e51b815260040161092b90613460565b6000828152600d60209081526040808320338452600281019092529091205460ff1615611c235760405162461bcd60e51b815260040161092b906134a2565b33600090815260038201602052604090205460ff1615611c555760405162461bcd60e51b815260040161092b906134e5565b3360009081526003820160205260408120805460ff19166001908117909155828101805491929091611117908490613355565b6000611c9382611b29565b611cf45760405162461bcd60e51b815260206004820152602c60248201527f4552433732313a206f70657261746f7220717565727920666f72206e6f6e657860448201526b34b9ba32b73a103a37b5b2b760a11b606482015260840161092b565b6000611cff83610dc4565b9050806001600160a01b0316846001600160a01b03161480611d3a5750836001600160a01b0316611d2f846108c3565b6001600160a01b0316145b8061141957506001600160a01b0380821660009081526005602090815260408083209388168352929052205460ff16611419565b826001600160a01b0316611d8182610dc4565b6001600160a01b031614611de55760405162461bcd60e51b815260206004820152602560248201527f4552433732313a207472616e736665722066726f6d20696e636f72726563742060448201526437bbb732b960d91b606482015260840161092b565b6001600160a01b038216611e475760405162461bcd60e51b8152602060048201526024808201527f4552433732313a207472616e7366657220746f20746865207a65726f206164646044820152637265737360e01b606482015260840161092b565b611e528383836128a9565b611e5d600082611b46565b6001600160a01b0383166000908152600360205260408120805460019290611e8690849061352b565b90915550506001600160a01b0382166000908152600360205260408120805460019290611eb4908490613355565b909155505060008181526002602052604080822080546001600160a01b0319166001600160a01b0386811691821790925591518493918716917fddf252ad1be2c89b69c2b068fc378daa952ba7f163c4a11628f55a4df523b3ef91a4505050565b6001600160a01b038216600090815260096020526040902054829060ff16611f4f5760405162461bcd60e51b815260040161092b9061330a565b6001600160a01b0383166000908152600a6020526040902060018101548310611fd65760405162461bcd60e51b815260206004820152603360248201527f436c61696d61626c652e5f72656d6f766546726f6d436c61696d3a20496e64656044820152723c1034b99037baba1037b3103137bab732399760691b606482015260840161092b565b6000816000018481548110611fed57611fed61333f565b90600052602060002001549050600182600101600082825461200f919061352b565b909155505081548290859081106120285761202861333f565b60009182526020808320909101829055828252600b90526040902080546001600160a01b031916905560018201546120a7576001600160a01b0385166000908152600a602052604081209061207d8282612d5c565b5060006001919091018190556001600160a01b0386168152600960205260409020805460ff191690555b5050505050565b604080516080810182528281526001600160a01b038416602080830191909152600082840181905260016060840152868152601482529290922081518051929391926120fd9284920190612cd8565b5060208201516001820180546001600160a01b0319166001600160a01b03909216919091179055604082015160028201556060909101516003909101805460ff191691151591909117905561215282846128cc565b610a61836128e6565b6121658282611121565b610b6d5760008281526007602090815260408083206001600160a01b03851684529091529020805460ff1916600117905561219d3390565b6001600160a01b0316816001600160a01b0316837f2f8788117e7eff1d82e926ec794901d17c78024a50270940304540a733656f0d60405160405180910390a45050565b6121eb8282611121565b15610b6d5760008281526007602090815260408083206001600160a01b0385168085529252808320805460ff1916905551339285917ff6391f5c32d9c69d2a47ea670b442974b53935d1edc7fd64eb21e047a839171b9190a45050565b60065460ff166122915760405162461bcd60e51b815260206004820152601460248201527314185d5cd8589b194e881b9bdd081c185d5cd95960621b604482015260640161092b565b6006805460ff191690557f5db9ee0a495bf2e6ff9c91a7834c1ba4fdd244a5e8aa4e537bd38aeae4b073aa335b6040516001600160a01b03909116815260200160405180910390a1565b60065460ff16156122fe5760405162461bcd60e51b815260040161092b906132e0565b6006805460ff191660011790557f62e78cea01bee320cd4e420270b5ea74000d11b0c9f74754ebdbfc544b05a2586122be3390565b816001600160a01b0316836001600160a01b031614156123955760405162461bcd60e51b815260206004820152601960248201527f4552433732313a20617070726f766520746f2063616c6c657200000000000000604482015260640161092b565b6001600160a01b03838116600081815260056020908152604080832094871680845294825291829020805460ff191686151590811790915591519182527f17307eab39ab6107e8899845ad3d59bd9653f200f220920489ca2b5937696c31910160405180910390a3505050565b61240d848484611d6e565b6124198484848461296a565b61081a5760405162461bcd60e51b815260040161092b90613542565b6060600e8054610840906131bc565b606061244f82611b29565b6124b35760405162461bcd60e51b815260206004820152602f60248201527f4552433732314d657461646174613a2055524920717565727920666f72206e6f60448201526e3732bc34b9ba32b73a103a37b5b2b760891b606482015260840161092b565b60006124bd612435565b905060008151116124dd5760405180602001604052806000815250611988565b806124e784612a68565b6040516020016124f892919061336d565b6040516020818303038152906040529392505050565b6001600160a01b03821660009081526009602052604090205460ff16156125e95760405162461bcd60e51b815260206004820152607860248201527f436c61696d61626c652e5f637265617465436c61696d3a20436c61696d20686160448201527f7320616c7265616479206265656e206372656174656420666f7220746869732060648201527f616464726573732e2043616c6c205f757064617465436c61696d282920666f7260848201527f206578697374696e672062656e656669636961726965732e000000000000000060a482015260c40161092b565b6001600160a01b0382166000908152600960205260408120805460ff191660011790555b81518110156127325760006001600160a01b0316600b60008484815181106126375761263761333f565b6020908102919091018101518252810191909152604001600020546001600160a01b0316146126ce5760405162461bcd60e51b815260206004820152603a60248201527f436c61696d61626c652e5f637265617465436c61696d3a20417373657420494460448201527f2068617320616c7265616479206265656e20636c61696d65642e000000000000606482015260840161092b565b82600b60008484815181106126e5576126e561333f565b6020026020010151815260200190815260200160002060006101000a8154816001600160a01b0302191690836001600160a01b03160217905550808061272a906131a1565b91505061260d565b5060408051808201825282815282516020808301919091526001600160a01b0385166000908152600a82529290922081518051929391926127769284920190612d7a565b50602082015181600101559050505050565b6000818152600c6020526040902054819060ff166127b85760405162461bcd60e51b815260040161092b90613460565b6000828152600d60209081526040808320338452600281019092529091205460ff16156127f75760405162461bcd60e51b815260040161092b906134a2565b33600090815260038201602052604090205460ff16156128295760405162461bcd60e51b815260040161092b906134e5565b3360009081526002820160205260408120805460ff19166001908117909155825490918391611117908490613355565b60006001600160e01b031982166380ac58cd60e01b148061288a57506001600160e01b03198216635b5e139f60e01b145b8061082b57506301ffc9a760e01b6001600160e01b031983161461082b565b60065460ff1615610a615760405162461bcd60e51b815260040161092b906132e0565b610b6d828260405180602001604052806000815250612b66565b6000818152600c602052604090205460ff161561294f5760405162461bcd60e51b815260206004820152602160248201527f5570446f776e566f74653a2042616c6c6f7420616c72656164792065786973746044820152607360f81b606482015260840161092b565b6000908152600c60205260409020805460ff19166001179055565b60006001600160a01b0384163b15612a5d57604051630a85bd0160e11b81526001600160a01b0385169063150b7a02906129ae903390899088908890600401613594565b6020604051808303816000875af19250505080156129e9575060408051601f3d908101601f191682019092526129e6918101906135d1565b60015b612a43573d808015612a17576040519150601f19603f3d011682016040523d82523d6000602084013e612a1c565b606091505b508051612a3b5760405162461bcd60e51b815260040161092b90613542565b805181602001fd5b6001600160e01b031916630a85bd0160e11b149050611419565b506001949350505050565b606081612a8c5750506040805180820190915260018152600360fc1b602082015290565b8160005b8115612ab65780612aa0816131a1565b9150612aaf9050600a83613604565b9150612a90565b60008167ffffffffffffffff811115612ad157612ad1612f02565b6040519080825280601f01601f191660200182016040528015612afb576020820181803683370190505b5090505b841561141957612b1060018361352b565b9150612b1d600a86613618565b612b28906030613355565b60f81b818381518110612b3d57612b3d61333f565b60200101906001600160f81b031916908160001a905350612b5f600a86613604565b9450612aff565b612b708383612b99565b612b7d600084848461296a565b610a615760405162461bcd60e51b815260040161092b90613542565b6001600160a01b038216612bef5760405162461bcd60e51b815260206004820181905260248201527f4552433732313a206d696e7420746f20746865207a65726f2061646472657373604482015260640161092b565b612bf881611b29565b15612c455760405162461bcd60e51b815260206004820152601c60248201527f4552433732313a20746f6b656e20616c7265616479206d696e74656400000000604482015260640161092b565b612c51600083836128a9565b6001600160a01b0382166000908152600360205260408120805460019290612c7a908490613355565b909155505060008181526002602052604080822080546001600160a01b0319166001600160a01b03861690811790915590518392907fddf252ad1be2c89b69c2b068fc378daa952ba7f163c4a11628f55a4df523b3ef908290a45050565b828054612ce4906131bc565b90600052602060002090601f016020900481019282612d065760008555612d4c565b82601f10612d1f57805160ff1916838001178555612d4c565b82800160010185558215612d4c579182015b82811115612d4c578251825591602001919060010190612d31565b50612d58929150612db4565b5090565b5080546000825590600052602060002090810190610d2a9190612db4565b828054828255906000526020600020908101928215612d4c5791602002820182811115612d4c578251825591602001919060010190612d31565b5b80821115612d585760008155600101612db5565b80356001600160a01b0381168114612de057600080fd5b919050565b60008060408385031215612df857600080fd5b612e0183612dc9565b946020939093013593505050565b6001600160e01b031981168114610d2a57600080fd5b600060208284031215612e3757600080fd5b813561198881612e0f565b60005b83811015612e5d578181015183820152602001612e45565b8381111561081a5750506000910152565b60008151808452612e86816020860160208601612e42565b601f01601f19169290920160200192915050565b6020815260006119886020830184612e6e565b600060208284031215612ebf57600080fd5b5035919050565b600080600060608486031215612edb57600080fd5b612ee484612dc9565b9250612ef260208501612dc9565b9150604084013590509250925092565b634e487b7160e01b600052604160045260246000fd5b600067ffffffffffffffff80841115612f3357612f33612f02565b604051601f8501601f19908116603f01168101908282118183101715612f5b57612f5b612f02565b81604052809350858152868686011115612f7457600080fd5b858560208301376000602087830101525050509392505050565b600082601f830112612f9f57600080fd5b61198883833560208501612f18565b600060208284031215612fc057600080fd5b813567ffffffffffffffff811115612fd757600080fd5b61141984828501612f8e565b60008060408385031215612ff657600080fd5b8235915061300660208401612dc9565b90509250929050565b60006020828403121561302157600080fd5b61198882612dc9565b6000806040838503121561303d57600080fd5b82359150602083013567ffffffffffffffff81111561305b57600080fd5b61306785828601612f8e565b9150509250929050565b6000806040838503121561308457600080fd5b61308d83612dc9565b9150602083013580151581146130a257600080fd5b809150509250929050565b600080600080608085870312156130c357600080fd5b6130cc85612dc9565b93506130da60208601612dc9565b925060408501359150606085013567ffffffffffffffff8111156130fd57600080fd5b8501601f8101871361310e57600080fd5b61311d87823560208401612f18565b91505092959194509250565b6000806040838503121561313c57600080fd5b61314583612dc9565b9150602083013567ffffffffffffffff81111561305b57600080fd5b6000806040838503121561317457600080fd5b61317d83612dc9565b915061300660208401612dc9565b634e487b7160e01b600052601160045260246000fd5b60006000198214156131b5576131b561318b565b5060010190565b600181811c908216806131d057607f821691505b60208210811415610eac57634e487b7160e01b600052602260045260246000fd5b60208082526032908201527f426c61636b6c69737461626c653a20424c41434b4c49535445445f414444524560408201527129a9a2a9afa0a922afa327a92124a22222a760711b606082015260800190565b6020808252602c908201527f50686c6970436172643a204d757374206f776e2050686c697044414f20746f6b60408201526b32b739903a37903b37ba329760a11b606082015260800190565b60208082526031908201527f4552433732313a207472616e736665722063616c6c6572206973206e6f74206f6040820152701ddb995c881b9bdc88185c1c1c9bdd9959607a1b606082015260800190565b60208082526010908201526f14185d5cd8589b194e881c185d5cd95960821b604082015260600190565b6020808252818101527f436c61696d61626c653a20436c61696d20646f6573206e6f742065786973742e604082015260600190565b634e487b7160e01b600052603260045260246000fd5b600082198211156133685761336861318b565b500190565b6000835161337f818460208801612e42565b835190830190613393818360208801612e42565b01949350505050565b6000602082840312156133ae57600080fd5b5051919050565b60008160001904831182151516156133cf576133cf61318b565b500290565b6000816133e3576133e361318b565b506000190190565b7f416363657373436f6e74726f6c3a206163636f756e7420000000000000000000815260008351613423816017850160208801612e42565b7001034b99036b4b9b9b4b733903937b6329607d1b6017918401918201528351613454816028840160208801612e42565b01602801949350505050565b60208082526022908201527f5570446f776e566f74653a2042616c6c6f7420646f6573206e6f742065786973604082015261747360f01b606082015260800190565b60208082526023908201527f5570446f776e566f74653a204143434f554e545f414c52454144595f5550564f60408201526215115160ea1b606082015260800190565b60208082526026908201527f5570446f776e566f7465733a204143434f554e545f414c52454144595f444f57604082015265139593d5115160d21b606082015260800190565b60008282101561353d5761353d61318b565b500390565b60208082526032908201527f4552433732313a207472616e7366657220746f206e6f6e20455243373231526560408201527131b2b4bb32b91034b6b83632b6b2b73a32b960711b606082015260800190565b6001600160a01b03858116825284166020820152604081018390526080606082018190526000906135c790830184612e6e565b9695505050505050565b6000602082840312156135e357600080fd5b815161198881612e0f565b634e487b7160e01b600052601260045260246000fd5b600082613613576136136135ee565b500490565b600082613627576136276135ee565b50069056fe9f2df0fed2c77648de5860a4cc508cd0818c85b8b8a1ab4ceeef8d981c8956a6a2646970667358221220bd83e5ae150c4741d1dc88ce2556de5f3b35d1c1f33e83d5dd8e8babaf0678b264736f6c634300080b00339f2df0fed2c77648de5860a4cc508cd0818c85b8b8a1ab4ceeef8d981c8956a6",
  "immutableReferences": {},
  "source": "// SPDX-License-Identifier: MIT\npragma solidity ^0.8.11;\n\nimport \"@openzeppelin/contracts/token/ERC721/ERC721.sol\";\nimport \"@openzeppelin/contracts/token/ERC20/IERC20.sol\";\nimport \"@openzeppelin/contracts/security/Pausable.sol\";\nimport \"@openzeppelin/contracts/access/AccessControl.sol\";\nimport \"@openzeppelin/contracts/utils/Counters.sol\";\nimport \"../extensions/Blacklistable.sol\";\nimport \"../extensions/Claimable.sol\";\nimport \"../extensions/UpDownVote.sol\";\n\n/**\n * @title An ERC721 contract for a base Phlip game card.\n * @author Riley Stephens\n * @notice This contract is intended to reference it's metadata on IPFS.\n */\ncontract PhlipCard is\n    ERC721,\n    Pausable,\n    AccessControl,\n    Blacklistable,\n    Claimable,\n    UpDownVote\n{\n    using Counters for Counters.Counter;\n\n    bytes32 public constant PAUSER_ROLE = keccak256(\"PAUSER_ROLE\");\n    bytes32 public constant MINTER_ROLE = keccak256(\"MINTER_ROLE\");\n    bytes32 public constant BLOCKER_ROLE = keccak256(\"BLOCKER_ROLE\");\n\n    string public BASE_URI;\n    uint256 public MAX_DOWNVOTES;\n    uint256 public MAX_URI_CHANGES;\n    uint256 public MIN_DAO_TOKENS_REQUIRED;\n\n    IERC20 public DAO_TOKEN;\n\n    struct Card {\n        string uri;\n        address minter;\n        uint256 uriChangeCount;\n        bool playable;\n    }\n\n    Counters.Counter private _tokenIdCounter;\n    mapping(uint256 => Card) private _cards;\n\n    /**\n     * @notice Ensure token has been minted by contract\n     * @dev Reverts if token does not exist\n     */\n    modifier tokenExists(uint256 _tokenID) {\n        require(_exists(_tokenID), \"PhlipCard: Token does not exist.\");\n        _;\n    }\n\n    constructor(\n        string memory _name,\n        string memory _symbol,\n        string memory _baseUri,\n        uint256 _maxDownvotes,\n        uint256 _maxUriChanges,\n        uint256 _minDaoTokensRequired,\n        address _daoTokenAddress\n    ) ERC721(_name, _symbol) {\n        // Grant roles to contract creator\n        _grantRole(DEFAULT_ADMIN_ROLE, msg.sender);\n        _grantRole(MINTER_ROLE, msg.sender);\n        _grantRole(PAUSER_ROLE, msg.sender);\n\n        // Set constants\n        setBaseURI(_baseUri);\n        setDownVoteMax(_maxDownvotes);\n        setUriChangeMax(_maxUriChanges);\n        setMinDaoTokensRequired(_minDaoTokensRequired);\n        setDaoTokenAddress(_daoTokenAddress);\n    }\n\n    /**\n     * @notice Allow address with PAUSER role to pause token transfers\n     */\n    function pause() external onlyRole(PAUSER_ROLE) {\n        _pause();\n    }\n\n    /**\n     * @notice Allow address with PAUSER role to unpause token transfers\n     */\n    function unpause() external onlyRole(PAUSER_ROLE) {\n        _unpause();\n    }\n\n    /**\n     * @notice Allow address with BLOCKER role to add an address to the blacklist\n     * @param _address The address to add to the blacklist\n     */\n    function blacklistAddress(address _address)\n        external\n        onlyRole(BLOCKER_ROLE)\n    {\n        _addToBlacklist(_address);\n    }\n\n    /**\n     * @notice Allow address with BLOCKER role to remove an address from the blacklist\n     * @param _address The address to remove from the blacklist\n     */\n    function unblacklistAddress(address _address)\n        external\n        onlyRole(BLOCKER_ROLE)\n    {\n        _removeFromBlacklist(_address);\n    }\n\n    /**\n     * @notice Create new claim of card(s) for given address.\n     * @param _address The beneficiary of the claim\n     * @param _amount The number of tokens that can be claimed\n     */\n    function createClaim(address _address, uint256 _amount)\n        external\n        onlyRole(MINTER_ROLE)\n    {\n        uint256[] memory claimableTokenIds = new uint256[](_amount);\n        for (uint256 i = 0; i < _amount; i++) {\n            uint256 tokenId = _tokenIdCounter.current();\n            _tokenIdCounter.increment();\n            claimableTokenIds[i] = tokenId;\n        }\n        _createClaim(_address, claimableTokenIds);\n    }\n\n    /**\n     * @notice Increase the number of claimable cards for an existing claim.\n     * @param _address The beneficiary of the existing claim\n     * @param _amount The number of claimable tokens to add to the claim\n     */\n    function increaseClaim(address _address, uint256 _amount)\n        external\n        onlyRole(MINTER_ROLE)\n    {\n        for (uint256 i = 0; i < _amount; i++) {\n            uint256 tokenId = _tokenIdCounter.current();\n            _tokenIdCounter.increment();\n            _addToClaim(_address, tokenId);\n        }\n    }\n\n    /**\n     * @notice Allow address with MINTER role to mint tokens to a given address\n     * @param _to The address to mint tokens to\n     * @param _uri The IPFS CID referencing the new tokens metadata\n     */\n    function mintCard(address _to, string memory _uri)\n        external\n        onlyRole(MINTER_ROLE)\n    {\n        // Get the next token ID then increment the counter\n        uint256 tokenId = _tokenIdCounter.current();\n        _tokenIdCounter.increment();\n        _mintCard(tokenId, _to, _uri);\n    }\n\n    /**\n     * @notice Mint card to beneficiary and remove from claimable cards.\n     * @param _uri The IPFS CID referencing the new tokens metadata\n     */\n    function redeemCard(string memory _uri)\n        external\n        whenNotPaused\n        onlyBeneficiary\n    {\n        // Get the first claimable token ID, then remove\n        // it from the claimable tokens to prevent reentrance\n        uint256 claimableTokenId = nextClaimableID(msg.sender);\n        _removeFromClaim(msg.sender, 0);\n        _mintCard(claimableTokenId, msg.sender, _uri);\n    }\n\n    /**\n     * @notice Updates the URI of an existing token.\n     * @param _tokenID The ID of the token to update\n     * @param _uri The new URI\n     */\n    function updateCardURI(uint256 _tokenID, string memory _uri) external {\n        require(\n            ownerOf(_tokenID) == msg.sender,\n            \"PhlipCard: Address does not own this token.\"\n        );\n        Card storage card = _cards[_tokenID];\n        require(\n            card.uriChangeCount < MAX_URI_CHANGES,\n            \"PhlipCard: Maximum number of URI changes reached.\"\n        );\n        require(\n            card.minter == msg.sender,\n            \"PhlipCard: Only the minter can update the URI.\"\n        );\n        card.uri = _uri;\n        card.uriChangeCount += 1;\n    }\n\n    /**\n     * @notice Record token upvote.\n     * @param _tokenID The ID of the token upvoted\n     */\n    function upVote(uint256 _tokenID)\n        external\n        noBlacklisters\n        tokenExists(_tokenID)\n    {\n        require(\n            isDaoTokenHolder(msg.sender),\n            \"PhlipCard: Must own PhlipDAO tokens to vote.\"\n        );\n        // NOTE - Should we allow upvotes on unplayable cards?\n        _castUpVote(_tokenID);\n    }\n\n    /**\n     * @notice Record token downvote. If the token has been downvoted more than\n     * the allowed number of times, it should be marked unplayable.\n     * @param _tokenID The ID of the token upvoted\n     */\n    function downVote(uint256 _tokenID)\n        external\n        noBlacklisters\n        tokenExists(_tokenID)\n    {\n        require(\n            isDaoTokenHolder(msg.sender),\n            \"PhlipCard: Must own PhlipDAO tokens to vote.\"\n        );\n        // NOTE - Should we allow downvotes on unplayable cards?\n        _castDownVote(_tokenID);\n\n        // NOTE - Need to take into account the number of upvotes\n        if (downVotesFor(_tokenID) >= MAX_DOWNVOTES) {\n            Card storage card = _cards[_tokenID];\n            card.playable = false;\n        }\n    }\n\n    /**\n     * @notice Check if the given address is a PhlipDAO token holder\n     * @param _account Address to check.\n     */\n    function isDaoTokenHolder(address _account) public view returns (bool) {\n        return DAO_TOKEN.balanceOf(_account) > 0;\n    }\n\n    /**\n     * @notice Set the base URI of all tokens created by this contract\n     * @param _newURI New base URI\n     */\n    function setBaseURI(string memory _newURI) public onlyRole(MINTER_ROLE) {\n        BASE_URI = _newURI;\n    }\n\n    /**\n     * @notice Set the max number of downvotes a card can have before it is marked unplayable.\n     * @param _newMax The new max number of downvotes allowed\n     */\n    function setDownVoteMax(uint256 _newMax) public onlyRole(MINTER_ROLE) {\n        MAX_DOWNVOTES = _newMax;\n    }\n\n    /**\n     * @notice Set max number of times minter can change the URI of a card.\n     * @param _newMax New max changes allowed\n     */\n    function setUriChangeMax(uint256 _newMax) public onlyRole(MINTER_ROLE) {\n        MAX_URI_CHANGES = _newMax;\n    }\n\n    /**\n     * @notice Set min number of PhlipDAO tokens required to vote and mint.\n     * @param _newMin New min DAO tokens required\n     */\n    function setMinDaoTokensRequired(uint256 _newMin)\n        public\n        onlyRole(MINTER_ROLE)\n    {\n        MIN_DAO_TOKENS_REQUIRED = _newMin;\n    }\n\n    /**\n     * @notice Set the address of the PhlipDAO contract\n     * @param _daoTokenAddress New contract address\n     */\n    function setDaoTokenAddress(address _daoTokenAddress)\n        public\n        onlyRole(MINTER_ROLE)\n    {\n        DAO_TOKEN = IERC20(_daoTokenAddress);\n    }\n\n    /**\n     * @notice Getter method for getting token's URI from ID\n     * @dev Modified implementation of ERC721URIStorage.tokenURI\n     * @param _tokenId ID of token\n     */\n    function tokenURI(uint256 _tokenId)\n        public\n        view\n        virtual\n        override\n        returns (string memory)\n    {\n        require(\n            _exists(_tokenId),\n            \"PhlipCard.tokenURI: URI query for nonexistent token\"\n        );\n\n        string memory _tokenURI = _cards[_tokenId].uri;\n        string memory base = _baseURI();\n\n        // If there is no base URI, return the token URI.\n        if (bytes(base).length == 0) {\n            return _tokenURI;\n        }\n        // If both are set, concatenate the baseURI and tokenURI (via abi.encodePacked).\n        if (bytes(_tokenURI).length > 0) {\n            return string(abi.encodePacked(base, _tokenURI));\n        }\n\n        return super.tokenURI(_tokenId);\n    }\n\n    /**\n     * @notice Handles the creation of a new card.\n     * @param _tokenID The ID of token being minted\n     * @param _to The address to mint tokens to\n     * @param _uri The IPFS CID referencing the new tokens metadata\n     */\n    function _mintCard(\n        uint256 _tokenID,\n        address _to,\n        string memory _uri\n    ) internal {\n        // Store the new card data then mint the token\n        _cards[_tokenID] = Card(_uri, _to, 0, true);\n        _safeMint(_to, _tokenID);\n\n        // Create a ballot for the new card\n        _createBallot(_tokenID);\n    }\n\n    /**\n     * @dev Override of ERC721._baseURI\n     */\n    function _burn(uint256 tokenId) internal override {\n        super._burn(tokenId);\n    }\n\n    /**\n     * @notice Function called before tokens are transferred\n     * @dev Override to make sure that token tranfers have not been paused\n     * @param _from The address tokens will be transferred from\n     * @param _to The address tokens will be transferred  to\n     * @param _tokenId The ID of the token to transfer\n     */\n    function _beforeTokenTransfer(\n        address _from,\n        address _to,\n        uint256 _tokenId\n    ) internal override whenNotPaused {\n        super._beforeTokenTransfer(_from, _to, _tokenId);\n    }\n\n    /**\n     * @dev Override of ERC721._baseURI\n     */\n    function _baseURI() internal view virtual override returns (string memory) {\n        return BASE_URI;\n    }\n\n    function supportsInterface(bytes4 interfaceId)\n        public\n        view\n        override(ERC721, AccessControl)\n        returns (bool)\n    {\n        return super.supportsInterface(interfaceId);\n    }\n}\n",
  "sourcePath": "/Users/rileystephens/Development/Accel/phlip.io/phlip-contracts/contracts/tokens/PhlipCard.sol",
  "compiler": {
    "name": "solc",
    "version": "0.8.11+commit.d7f03943.Emscripten.clang"
  },
  "schemaVersion": "3.4.4",
  "updatedAt": "2022-03-08T18:12:57.737Z",
  "devdoc": {
    "author": "Riley Stephens",
    "kind": "dev",
    "methods": {
      "approve(address,uint256)": {
        "details": "See {IERC721-approve}."
      },
      "balanceOf(address)": {
        "details": "See {IERC721-balanceOf}."
      },
      "ballotIsRegistered(uint256)": {
        "params": {
          "_ballotID": "The ID of a ballot"
        }
      },
      "blacklistAddress(address)": {
        "params": {
          "_address": "The address to add to the blacklist"
        }
      },
      "createClaim(address,uint256)": {
        "params": {
          "_address": "The beneficiary of the claim",
          "_amount": "The number of tokens that can be claimed"
        }
      },
      "downVote(uint256)": {
        "params": {
          "_tokenID": "The ID of the token upvoted"
        }
      },
      "downVotesFor(uint256)": {
        "params": {
          "_ballotID": "The ID of a ballot"
        }
      },
      "getApproved(uint256)": {
        "details": "See {IERC721-getApproved}."
      },
      "getClaimableID(address,uint256)": {
        "params": {
          "_address": "Beneficiary address of the claim."
        }
      },
      "getRoleAdmin(bytes32)": {
        "details": "Returns the admin role that controls `role`. See {grantRole} and {revokeRole}. To change a role's admin, use {_setRoleAdmin}."
      },
      "grantRole(bytes32,address)": {
        "details": "Grants `role` to `account`. If `account` had not been already granted `role`, emits a {RoleGranted} event. Requirements: - the caller must have ``role``'s admin role."
      },
      "hasClaim(address)": {
        "params": {
          "_address": "The address to check."
        }
      },
      "hasRole(bytes32,address)": {
        "details": "Returns `true` if `account` has been granted `role`."
      },
      "increaseClaim(address,uint256)": {
        "params": {
          "_address": "The beneficiary of the existing claim",
          "_amount": "The number of claimable tokens to add to the claim"
        }
      },
      "isApprovedForAll(address,address)": {
        "details": "See {IERC721-isApprovedForAll}."
      },
      "isBlacklisted(address)": {
        "params": {
          "_address": "The address to check."
        }
      },
      "isDaoTokenHolder(address)": {
        "params": {
          "_account": "Address to check."
        }
      },
      "mintCard(address,string)": {
        "params": {
          "_to": "The address to mint tokens to",
          "_uri": "The IPFS CID referencing the new tokens metadata"
        }
      },
      "name()": {
        "details": "See {IERC721Metadata-name}."
      },
      "nextClaimableID(address)": {
        "params": {
          "_address": "Beneficiary address of the claim."
        }
      },
      "ownerOf(uint256)": {
        "details": "See {IERC721-ownerOf}."
      },
      "paused()": {
        "details": "Returns true if the contract is paused, and false otherwise."
      },
      "redeemCard(string)": {
        "params": {
          "_uri": "The IPFS CID referencing the new tokens metadata"
        }
      },
      "remainingClaims(address)": {
        "params": {
          "_address": "Beneficiary address of the claim."
        }
      },
      "renounceRole(bytes32,address)": {
        "details": "Revokes `role` from the calling account. Roles are often managed via {grantRole} and {revokeRole}: this function's purpose is to provide a mechanism for accounts to lose their privileges if they are compromised (such as when a trusted device is misplaced). If the calling account had been revoked `role`, emits a {RoleRevoked} event. Requirements: - the caller must be `account`."
      },
      "revokeRole(bytes32,address)": {
        "details": "Revokes `role` from `account`. If `account` had been granted `role`, emits a {RoleRevoked} event. Requirements: - the caller must have ``role``'s admin role."
      },
      "safeTransferFrom(address,address,uint256)": {
        "details": "See {IERC721-safeTransferFrom}."
      },
      "safeTransferFrom(address,address,uint256,bytes)": {
        "details": "See {IERC721-safeTransferFrom}."
      },
      "setApprovalForAll(address,bool)": {
        "details": "See {IERC721-setApprovalForAll}."
      },
      "setBaseURI(string)": {
        "params": {
          "_newURI": "New base URI"
        }
      },
      "setDaoTokenAddress(address)": {
        "params": {
          "_daoTokenAddress": "New contract address"
        }
      },
      "setDownVoteMax(uint256)": {
        "params": {
          "_newMax": "The new max number of downvotes allowed"
        }
      },
      "setMinDaoTokensRequired(uint256)": {
        "params": {
          "_newMin": "New min DAO tokens required"
        }
      },
      "setUriChangeMax(uint256)": {
        "params": {
          "_newMax": "New max changes allowed"
        }
      },
      "symbol()": {
        "details": "See {IERC721Metadata-symbol}."
      },
      "tokenURI(uint256)": {
        "details": "Modified implementation of ERC721URIStorage.tokenURI",
        "params": {
          "_tokenId": "ID of token"
        }
      },
      "transferFrom(address,address,uint256)": {
        "details": "See {IERC721-transferFrom}."
      },
      "unblacklistAddress(address)": {
        "params": {
          "_address": "The address to remove from the blacklist"
        }
      },
      "upVote(uint256)": {
        "params": {
          "_tokenID": "The ID of the token upvoted"
        }
      },
      "upVotesFor(uint256)": {
        "params": {
          "_ballotID": "The ID of a ballot"
        }
      },
      "updateCardURI(uint256,string)": {
        "params": {
          "_tokenID": "The ID of the token to update",
          "_uri": "The new URI"
        }
      }
    },
    "title": "An ERC721 contract for a base Phlip game card.",
    "version": 1
  },
  "userdoc": {
    "kind": "user",
    "methods": {
      "ballotIsRegistered(uint256)": {
        "notice": "Returns true if _ballotID is registered, false if not."
      },
      "blacklistAddress(address)": {
        "notice": "Allow address with BLOCKER role to add an address to the blacklist"
      },
      "createClaim(address,uint256)": {
        "notice": "Create new claim of card(s) for given address."
      },
      "downVote(uint256)": {
        "notice": "Record token downvote. If the token has been downvoted more than the allowed number of times, it should be marked unplayable."
      },
      "downVotesFor(uint256)": {
        "notice": "Returns the number of down votes for a given ballot."
      },
      "getClaimableID(address,uint256)": {
        "notice": "Returns the asset ID at specified position in the claim."
      },
      "hasClaim(address)": {
        "notice": "Returns true if address has a claim, false if not."
      },
      "increaseClaim(address,uint256)": {
        "notice": "Increase the number of claimable cards for an existing claim."
      },
      "isBlacklisted(address)": {
        "notice": "Returns true if address is blacklisted, false if not."
      },
      "isDaoTokenHolder(address)": {
        "notice": "Check if the given address is a PhlipDAO token holder"
      },
      "mintCard(address,string)": {
        "notice": "Allow address with MINTER role to mint tokens to a given address"
      },
      "nextClaimableID(address)": {
        "notice": "Returns the first asset ID in the claim."
      },
      "pause()": {
        "notice": "Allow address with PAUSER role to pause token transfers"
      },
      "redeemCard(string)": {
        "notice": "Mint card to beneficiary and remove from claimable cards."
      },
      "remainingClaims(address)": {
        "notice": "Returns the number of remaining claims for an account."
      },
      "setBaseURI(string)": {
        "notice": "Set the base URI of all tokens created by this contract"
      },
      "setDaoTokenAddress(address)": {
        "notice": "Set the address of the PhlipDAO contract"
      },
      "setDownVoteMax(uint256)": {
        "notice": "Set the max number of downvotes a card can have before it is marked unplayable."
      },
      "setMinDaoTokensRequired(uint256)": {
        "notice": "Set min number of PhlipDAO tokens required to vote and mint."
      },
      "setUriChangeMax(uint256)": {
        "notice": "Set max number of times minter can change the URI of a card."
      },
      "tokenURI(uint256)": {
        "notice": "Getter method for getting token's URI from ID"
      },
      "unblacklistAddress(address)": {
        "notice": "Allow address with BLOCKER role to remove an address from the blacklist"
      },
      "unpause()": {
        "notice": "Allow address with PAUSER role to unpause token transfers"
      },
      "upVote(uint256)": {
        "notice": "Record token upvote."
      },
      "upVotesFor(uint256)": {
        "notice": "Returns the number of up votes for a given ballot."
      },
      "updateCardURI(uint256,string)": {
        "notice": "Updates the URI of an existing token."
      }
    },
    "notice": "This contract is intended to reference it's metadata on IPFS.",
    "version": 1
  }
}