{
  "contractName": "PhlipP2E",
  "abi": [
    {
      "inputs": [
        {
          "internalType": "string",
          "name": "_name",
          "type": "string"
        },
        {
          "internalType": "string",
          "name": "_symbol",
          "type": "string"
        }
      ],
      "stateMutability": "nonpayable",
      "type": "constructor"
    },
    {
      "anonymous": false,
      "inputs": [
        {
          "indexed": true,
          "internalType": "address",
          "name": "owner",
          "type": "address"
        },
        {
          "indexed": true,
          "internalType": "address",
          "name": "spender",
          "type": "address"
        },
        {
          "indexed": false,
          "internalType": "uint256",
          "name": "value",
          "type": "uint256"
        }
      ],
      "name": "Approval",
      "type": "event"
    },
    {
      "anonymous": false,
      "inputs": [
        {
          "indexed": false,
          "internalType": "address",
          "name": "account",
          "type": "address"
        }
      ],
      "name": "Paused",
      "type": "event"
    },
    {
      "anonymous": false,
      "inputs": [
        {
          "indexed": true,
          "internalType": "bytes32",
          "name": "role",
          "type": "bytes32"
        },
        {
          "indexed": true,
          "internalType": "bytes32",
          "name": "previousAdminRole",
          "type": "bytes32"
        },
        {
          "indexed": true,
          "internalType": "bytes32",
          "name": "newAdminRole",
          "type": "bytes32"
        }
      ],
      "name": "RoleAdminChanged",
      "type": "event"
    },
    {
      "anonymous": false,
      "inputs": [
        {
          "indexed": true,
          "internalType": "bytes32",
          "name": "role",
          "type": "bytes32"
        },
        {
          "indexed": true,
          "internalType": "address",
          "name": "account",
          "type": "address"
        },
        {
          "indexed": true,
          "internalType": "address",
          "name": "sender",
          "type": "address"
        }
      ],
      "name": "RoleGranted",
      "type": "event"
    },
    {
      "anonymous": false,
      "inputs": [
        {
          "indexed": true,
          "internalType": "bytes32",
          "name": "role",
          "type": "bytes32"
        },
        {
          "indexed": true,
          "internalType": "address",
          "name": "account",
          "type": "address"
        },
        {
          "indexed": true,
          "internalType": "address",
          "name": "sender",
          "type": "address"
        }
      ],
      "name": "RoleRevoked",
      "type": "event"
    },
    {
      "anonymous": false,
      "inputs": [
        {
          "indexed": true,
          "internalType": "address",
          "name": "from",
          "type": "address"
        },
        {
          "indexed": true,
          "internalType": "address",
          "name": "to",
          "type": "address"
        },
        {
          "indexed": false,
          "internalType": "uint256",
          "name": "value",
          "type": "uint256"
        }
      ],
      "name": "Transfer",
      "type": "event"
    },
    {
      "anonymous": false,
      "inputs": [
        {
          "indexed": false,
          "internalType": "address",
          "name": "account",
          "type": "address"
        }
      ],
      "name": "Unpaused",
      "type": "event"
    },
    {
      "inputs": [],
      "name": "BURNER_ROLE",
      "outputs": [
        {
          "internalType": "bytes32",
          "name": "",
          "type": "bytes32"
        }
      ],
      "stateMutability": "view",
      "type": "function"
    },
    {
      "inputs": [],
      "name": "DEFAULT_ADMIN_ROLE",
      "outputs": [
        {
          "internalType": "bytes32",
          "name": "",
          "type": "bytes32"
        }
      ],
      "stateMutability": "view",
      "type": "function"
    },
    {
      "inputs": [],
      "name": "MINTER_ROLE",
      "outputs": [
        {
          "internalType": "bytes32",
          "name": "",
          "type": "bytes32"
        }
      ],
      "stateMutability": "view",
      "type": "function"
    },
    {
      "inputs": [],
      "name": "PAUSER_ROLE",
      "outputs": [
        {
          "internalType": "bytes32",
          "name": "",
          "type": "bytes32"
        }
      ],
      "stateMutability": "view",
      "type": "function"
    },
    {
      "inputs": [
        {
          "internalType": "address",
          "name": "owner",
          "type": "address"
        },
        {
          "internalType": "address",
          "name": "spender",
          "type": "address"
        }
      ],
      "name": "allowance",
      "outputs": [
        {
          "internalType": "uint256",
          "name": "",
          "type": "uint256"
        }
      ],
      "stateMutability": "view",
      "type": "function"
    },
    {
      "inputs": [
        {
          "internalType": "address",
          "name": "spender",
          "type": "address"
        },
        {
          "internalType": "uint256",
          "name": "amount",
          "type": "uint256"
        }
      ],
      "name": "approve",
      "outputs": [
        {
          "internalType": "bool",
          "name": "",
          "type": "bool"
        }
      ],
      "stateMutability": "nonpayable",
      "type": "function"
    },
    {
      "inputs": [
        {
          "internalType": "address",
          "name": "account",
          "type": "address"
        }
      ],
      "name": "balanceOf",
      "outputs": [
        {
          "internalType": "uint256",
          "name": "",
          "type": "uint256"
        }
      ],
      "stateMutability": "view",
      "type": "function"
    },
    {
      "inputs": [
        {
          "internalType": "address",
          "name": "account",
          "type": "address"
        },
        {
          "internalType": "uint256",
          "name": "amount",
          "type": "uint256"
        }
      ],
      "name": "burnFrom",
      "outputs": [],
      "stateMutability": "nonpayable",
      "type": "function"
    },
    {
      "inputs": [],
      "name": "decimals",
      "outputs": [
        {
          "internalType": "uint8",
          "name": "",
          "type": "uint8"
        }
      ],
      "stateMutability": "view",
      "type": "function"
    },
    {
      "inputs": [
        {
          "internalType": "address",
          "name": "spender",
          "type": "address"
        },
        {
          "internalType": "uint256",
          "name": "subtractedValue",
          "type": "uint256"
        }
      ],
      "name": "decreaseAllowance",
      "outputs": [
        {
          "internalType": "bool",
          "name": "",
          "type": "bool"
        }
      ],
      "stateMutability": "nonpayable",
      "type": "function"
    },
    {
      "inputs": [
        {
          "internalType": "bytes32",
          "name": "role",
          "type": "bytes32"
        }
      ],
      "name": "getRoleAdmin",
      "outputs": [
        {
          "internalType": "bytes32",
          "name": "",
          "type": "bytes32"
        }
      ],
      "stateMutability": "view",
      "type": "function"
    },
    {
      "inputs": [
        {
          "internalType": "bytes32",
          "name": "role",
          "type": "bytes32"
        },
        {
          "internalType": "address",
          "name": "account",
          "type": "address"
        }
      ],
      "name": "grantRole",
      "outputs": [],
      "stateMutability": "nonpayable",
      "type": "function"
    },
    {
      "inputs": [
        {
          "internalType": "bytes32",
          "name": "role",
          "type": "bytes32"
        },
        {
          "internalType": "address",
          "name": "account",
          "type": "address"
        }
      ],
      "name": "hasRole",
      "outputs": [
        {
          "internalType": "bool",
          "name": "",
          "type": "bool"
        }
      ],
      "stateMutability": "view",
      "type": "function"
    },
    {
      "inputs": [
        {
          "internalType": "address",
          "name": "spender",
          "type": "address"
        },
        {
          "internalType": "uint256",
          "name": "addedValue",
          "type": "uint256"
        }
      ],
      "name": "increaseAllowance",
      "outputs": [
        {
          "internalType": "bool",
          "name": "",
          "type": "bool"
        }
      ],
      "stateMutability": "nonpayable",
      "type": "function"
    },
    {
      "inputs": [],
      "name": "name",
      "outputs": [
        {
          "internalType": "string",
          "name": "",
          "type": "string"
        }
      ],
      "stateMutability": "view",
      "type": "function"
    },
    {
      "inputs": [],
      "name": "paused",
      "outputs": [
        {
          "internalType": "bool",
          "name": "",
          "type": "bool"
        }
      ],
      "stateMutability": "view",
      "type": "function"
    },
    {
      "inputs": [
        {
          "internalType": "bytes32",
          "name": "role",
          "type": "bytes32"
        },
        {
          "internalType": "address",
          "name": "account",
          "type": "address"
        }
      ],
      "name": "renounceRole",
      "outputs": [],
      "stateMutability": "nonpayable",
      "type": "function"
    },
    {
      "inputs": [
        {
          "internalType": "bytes32",
          "name": "role",
          "type": "bytes32"
        },
        {
          "internalType": "address",
          "name": "account",
          "type": "address"
        }
      ],
      "name": "revokeRole",
      "outputs": [],
      "stateMutability": "nonpayable",
      "type": "function"
    },
    {
      "inputs": [
        {
          "internalType": "bytes4",
          "name": "interfaceId",
          "type": "bytes4"
        }
      ],
      "name": "supportsInterface",
      "outputs": [
        {
          "internalType": "bool",
          "name": "",
          "type": "bool"
        }
      ],
      "stateMutability": "view",
      "type": "function"
    },
    {
      "inputs": [],
      "name": "symbol",
      "outputs": [
        {
          "internalType": "string",
          "name": "",
          "type": "string"
        }
      ],
      "stateMutability": "view",
      "type": "function"
    },
    {
      "inputs": [],
      "name": "totalSupply",
      "outputs": [
        {
          "internalType": "uint256",
          "name": "",
          "type": "uint256"
        }
      ],
      "stateMutability": "view",
      "type": "function"
    },
    {
      "inputs": [
        {
          "internalType": "address",
          "name": "to",
          "type": "address"
        },
        {
          "internalType": "uint256",
          "name": "amount",
          "type": "uint256"
        }
      ],
      "name": "transfer",
      "outputs": [
        {
          "internalType": "bool",
          "name": "",
          "type": "bool"
        }
      ],
      "stateMutability": "nonpayable",
      "type": "function"
    },
    {
      "inputs": [
        {
          "internalType": "address",
          "name": "from",
          "type": "address"
        },
        {
          "internalType": "address",
          "name": "to",
          "type": "address"
        },
        {
          "internalType": "uint256",
          "name": "amount",
          "type": "uint256"
        }
      ],
      "name": "transferFrom",
      "outputs": [
        {
          "internalType": "bool",
          "name": "",
          "type": "bool"
        }
      ],
      "stateMutability": "nonpayable",
      "type": "function"
    },
    {
      "inputs": [],
      "name": "pause",
      "outputs": [],
      "stateMutability": "nonpayable",
      "type": "function"
    },
    {
      "inputs": [],
      "name": "unpause",
      "outputs": [],
      "stateMutability": "nonpayable",
      "type": "function"
    },
    {
      "inputs": [
        {
          "internalType": "address",
          "name": "to",
          "type": "address"
        },
        {
          "internalType": "uint256",
          "name": "amount",
          "type": "uint256"
        }
      ],
      "name": "mint",
      "outputs": [],
      "stateMutability": "nonpayable",
      "type": "function"
    },
    {
      "inputs": [
        {
          "internalType": "uint256",
          "name": "amount",
          "type": "uint256"
        }
      ],
      "name": "burn",
      "outputs": [],
      "stateMutability": "nonpayable",
      "type": "function"
    },
    {
      "inputs": [
        {
          "internalType": "address",
          "name": "account",
          "type": "address"
        },
        {
          "internalType": "uint256",
          "name": "amount",
          "type": "uint256"
        }
      ],
      "name": "burn",
      "outputs": [],
      "stateMutability": "nonpayable",
      "type": "function"
    }
  ],
  "bytecode": "0x60806040523480156200001157600080fd5b5060405162001bbc38038062001bbc833981016040819052620000349162000436565b8151829082906200004d906003906020850190620002c3565b50805162000063906004906020840190620002c3565b50506005805460ff19169055506200007d600033620000af565b620000a733620000906012600a620005b3565b620000a1906402540be400620005cb565b6200013a565b505062000645565b620000bb828262000231565b620001365760008281526006602090815260408083206001600160a01b03851684529091529020805460ff19166001179055620000f53390565b6001600160a01b0316816001600160a01b0316837f2f8788117e7eff1d82e926ec794901d17c78024a50270940304540a733656f0d60405160405180910390a45b5050565b6001600160a01b038216620001965760405162461bcd60e51b815260206004820152601f60248201527f45524332303a206d696e7420746f20746865207a65726f20616464726573730060448201526064015b60405180910390fd5b620001a4600083836200025e565b8060026000828254620001b89190620005ed565b90915550506001600160a01b03821660009081526020819052604081208054839290620001e7908490620005ed565b90915550506040518181526001600160a01b038316906000907fddf252ad1be2c89b69c2b068fc378daa952ba7f163c4a11628f55a4df523b3ef9060200160405180910390a35050565b60008281526006602090815260408083206001600160a01b038516845290915290205460ff165b92915050565b60055460ff1615620002a65760405162461bcd60e51b815260206004820152601060248201526f14185d5cd8589b194e881c185d5cd95960821b60448201526064016200018d565b620002be838383620002be60201b620005701760201c565b505050565b828054620002d19062000608565b90600052602060002090601f016020900481019282620002f5576000855562000340565b82601f106200031057805160ff191683800117855562000340565b8280016001018555821562000340579182015b828111156200034057825182559160200191906001019062000323565b506200034e92915062000352565b5090565b5b808211156200034e576000815560010162000353565b634e487b7160e01b600052604160045260246000fd5b600082601f8301126200039157600080fd5b81516001600160401b0380821115620003ae57620003ae62000369565b604051601f8301601f19908116603f01168101908282118183101715620003d957620003d962000369565b81604052838152602092508683858801011115620003f657600080fd5b600091505b838210156200041a5785820183015181830184015290820190620003fb565b838211156200042c5760008385830101525b9695505050505050565b600080604083850312156200044a57600080fd5b82516001600160401b03808211156200046257600080fd5b62000470868387016200037f565b935060208501519150808211156200048757600080fd5b5062000496858286016200037f565b9150509250929050565b634e487b7160e01b600052601160045260246000fd5b600181815b80851115620004f7578160001904821115620004db57620004db620004a0565b80851615620004e957918102915b93841c9390800290620004bb565b509250929050565b600082620005105750600162000258565b816200051f5750600062000258565b8160018114620005385760028114620005435762000563565b600191505062000258565b60ff841115620005575762000557620004a0565b50506001821b62000258565b5060208310610133831016604e8410600b841016171562000588575081810a62000258565b620005948383620004b6565b8060001904821115620005ab57620005ab620004a0565b029392505050565b6000620005c460ff841683620004ff565b9392505050565b6000816000190483118215151615620005e857620005e8620004a0565b500290565b60008219821115620006035762000603620004a0565b500190565b600181811c908216806200061d57607f821691505b602082108114156200063f57634e487b7160e01b600052602260045260246000fd5b50919050565b61156780620006556000396000f3fe608060405234801561001057600080fd5b50600436106101c45760003560e01c80635c975abb116100f9578063a217fddf11610097578063d539139311610071578063d5391393146103ab578063d547741f146103d2578063dd62ed3e146103e5578063e63ab1e91461041e57600080fd5b8063a217fddf1461037d578063a457c2d714610385578063a9059cbb1461039857600080fd5b80638456cb59116100d35780638456cb591461034757806391d148541461034f57806395d89b41146103625780639dc29fac1461036a57600080fd5b80635c975abb1461030057806370a082311461030b57806379cc67901461033457600080fd5b80632f2ff15d11610166578063395093511161014057806339509351146102bf5780633f4ba83a146102d257806340c10f19146102da57806342966c68146102ed57600080fd5b80632f2ff15d14610288578063313ce5671461029d57806336568abe146102ac57600080fd5b806318160ddd116101a257806318160ddd1461021957806323b872dd1461022b578063248a9ca31461023e578063282c51f31461026157600080fd5b806301ffc9a7146101c957806306fdde03146101f1578063095ea7b314610206575b600080fd5b6101dc6101d7366004611245565b610445565b60405190151581526020015b60405180910390f35b6101f961047c565b6040516101e8919061129b565b6101dc6102143660046112ea565b61050e565b6002545b6040519081526020016101e8565b6101dc610239366004611314565b610526565b61021d61024c366004611350565b60009081526006602052604090206001015490565b61021d7f3c11d16cbaffd01df69ce1c404f6340ee057498f5f00246190ea54220576a84881565b61029b610296366004611369565b61054a565b005b604051601281526020016101e8565b61029b6102ba366004611369565b610575565b6101dc6102cd3660046112ea565b6105f8565b61029b610637565b61029b6102e83660046112ea565b61066d565b61029b6102fb366004611350565b6106a2565b60055460ff166101dc565b61021d610319366004611395565b6001600160a01b031660009081526020819052604090205490565b61029b6103423660046112ea565b6106ac565b61029b6106c1565b6101dc61035d366004611369565b6106f4565b6101f961071f565b61029b6103783660046112ea565b61072e565b61021d600081565b6101dc6103933660046112ea565b610763565b6101dc6103a63660046112ea565b6107f5565b61021d7f9f2df0fed2c77648de5860a4cc508cd0818c85b8b8a1ab4ceeef8d981c8956a681565b61029b6103e0366004611369565b610803565b61021d6103f33660046113b0565b6001600160a01b03918216600090815260016020908152604080832093909416825291909152205490565b61021d7f65d7a28e3265b37a6474929f336521b332c1681b933f6cb9f3376673440d862a81565b60006001600160e01b03198216637965db0b60e01b148061047657506301ffc9a760e01b6001600160e01b03198316145b92915050565b60606003805461048b906113da565b80601f01602080910402602001604051908101604052809291908181526020018280546104b7906113da565b80156105045780601f106104d957610100808354040283529160200191610504565b820191906000526020600020905b8154815290600101906020018083116104e757829003601f168201915b5050505050905090565b60003361051c818585610829565b5060019392505050565b60003361053485828561094d565b61053f8585856109df565b506001949350505050565b6000828152600660205260409020600101546105668133610bb8565b6105708383610c1c565b505050565b6001600160a01b03811633146105ea5760405162461bcd60e51b815260206004820152602f60248201527f416363657373436f6e74726f6c3a2063616e206f6e6c792072656e6f756e636560448201526e103937b632b9903337b91039b2b63360891b60648201526084015b60405180910390fd5b6105f48282610ca2565b5050565b3360008181526001602090815260408083206001600160a01b038716845290915281205490919061051c908290869061063290879061142b565b610829565b7f65d7a28e3265b37a6474929f336521b332c1681b933f6cb9f3376673440d862a6106628133610bb8565b61066a610d09565b50565b7f9f2df0fed2c77648de5860a4cc508cd0818c85b8b8a1ab4ceeef8d981c8956a66106988133610bb8565b6105708383610d9c565b61066a3382610e87565b6106b782338361094d565b6105f48282610e87565b7f65d7a28e3265b37a6474929f336521b332c1681b933f6cb9f3376673440d862a6106ec8133610bb8565b61066a610fe1565b60009182526006602090815260408084206001600160a01b0393909316845291905290205460ff1690565b60606004805461048b906113da565b7f3c11d16cbaffd01df69ce1c404f6340ee057498f5f00246190ea54220576a8486107598133610bb8565b6105708383610e87565b3360008181526001602090815260408083206001600160a01b0387168452909152812054909190838110156107e85760405162461bcd60e51b815260206004820152602560248201527f45524332303a2064656372656173656420616c6c6f77616e63652062656c6f77604482015264207a65726f60d81b60648201526084016105e1565b61053f8286868403610829565b60003361051c8185856109df565b60008281526006602052604090206001015461081f8133610bb8565b6105708383610ca2565b6001600160a01b03831661088b5760405162461bcd60e51b8152602060048201526024808201527f45524332303a20617070726f76652066726f6d20746865207a65726f206164646044820152637265737360e01b60648201526084016105e1565b6001600160a01b0382166108ec5760405162461bcd60e51b815260206004820152602260248201527f45524332303a20617070726f766520746f20746865207a65726f206164647265604482015261737360f01b60648201526084016105e1565b6001600160a01b0383811660008181526001602090815260408083209487168084529482529182902085905590518481527f8c5be1e5ebec7d5bd14f71427d1e84f3dd0314c0f7b2291e5b200ac8c7c3b925910160405180910390a3505050565b6001600160a01b0383811660009081526001602090815260408083209386168352929052205460001981146109d957818110156109cc5760405162461bcd60e51b815260206004820152601d60248201527f45524332303a20696e73756666696369656e7420616c6c6f77616e636500000060448201526064016105e1565b6109d98484848403610829565b50505050565b6001600160a01b038316610a435760405162461bcd60e51b815260206004820152602560248201527f45524332303a207472616e736665722066726f6d20746865207a65726f206164604482015264647265737360d81b60648201526084016105e1565b6001600160a01b038216610aa55760405162461bcd60e51b815260206004820152602360248201527f45524332303a207472616e7366657220746f20746865207a65726f206164647260448201526265737360e81b60648201526084016105e1565b610ab083838361105c565b6001600160a01b03831660009081526020819052604090205481811015610b285760405162461bcd60e51b815260206004820152602660248201527f45524332303a207472616e7366657220616d6f756e7420657863656564732062604482015265616c616e636560d01b60648201526084016105e1565b6001600160a01b03808516600090815260208190526040808220858503905591851681529081208054849290610b5f90849061142b565b92505081905550826001600160a01b0316846001600160a01b03167fddf252ad1be2c89b69c2b068fc378daa952ba7f163c4a11628f55a4df523b3ef84604051610bab91815260200190565b60405180910390a36109d9565b610bc282826106f4565b6105f457610bda816001600160a01b031660146110a2565b610be58360206110a2565b604051602001610bf6929190611443565b60408051601f198184030181529082905262461bcd60e51b82526105e19160040161129b565b610c2682826106f4565b6105f45760008281526006602090815260408083206001600160a01b03851684529091529020805460ff19166001179055610c5e3390565b6001600160a01b0316816001600160a01b0316837f2f8788117e7eff1d82e926ec794901d17c78024a50270940304540a733656f0d60405160405180910390a45050565b610cac82826106f4565b156105f45760008281526006602090815260408083206001600160a01b0385168085529252808320805460ff1916905551339285917ff6391f5c32d9c69d2a47ea670b442974b53935d1edc7fd64eb21e047a839171b9190a45050565b60055460ff16610d525760405162461bcd60e51b815260206004820152601460248201527314185d5cd8589b194e881b9bdd081c185d5cd95960621b60448201526064016105e1565b6005805460ff191690557f5db9ee0a495bf2e6ff9c91a7834c1ba4fdd244a5e8aa4e537bd38aeae4b073aa335b6040516001600160a01b03909116815260200160405180910390a1565b6001600160a01b038216610df25760405162461bcd60e51b815260206004820152601f60248201527f45524332303a206d696e7420746f20746865207a65726f20616464726573730060448201526064016105e1565b610dfe6000838361105c565b8060026000828254610e10919061142b565b90915550506001600160a01b03821660009081526020819052604081208054839290610e3d90849061142b565b90915550506040518181526001600160a01b038316906000907fddf252ad1be2c89b69c2b068fc378daa952ba7f163c4a11628f55a4df523b3ef9060200160405180910390a35050565b6001600160a01b038216610ee75760405162461bcd60e51b815260206004820152602160248201527f45524332303a206275726e2066726f6d20746865207a65726f206164647265736044820152607360f81b60648201526084016105e1565b610ef38260008361105c565b6001600160a01b03821660009081526020819052604090205481811015610f675760405162461bcd60e51b815260206004820152602260248201527f45524332303a206275726e20616d6f756e7420657863656564732062616c616e604482015261636560f01b60648201526084016105e1565b6001600160a01b0383166000908152602081905260408120838303905560028054849290610f969084906114b8565b90915550506040518281526000906001600160a01b038516907fddf252ad1be2c89b69c2b068fc378daa952ba7f163c4a11628f55a4df523b3ef9060200160405180910390a3505050565b60055460ff16156110275760405162461bcd60e51b815260206004820152601060248201526f14185d5cd8589b194e881c185d5cd95960821b60448201526064016105e1565b6005805460ff191660011790557f62e78cea01bee320cd4e420270b5ea74000d11b0c9f74754ebdbfc544b05a258610d7f3390565b60055460ff16156105705760405162461bcd60e51b815260206004820152601060248201526f14185d5cd8589b194e881c185d5cd95960821b60448201526064016105e1565b606060006110b18360026114cf565b6110bc90600261142b565b67ffffffffffffffff8111156110d4576110d46114ee565b6040519080825280601f01601f1916602001820160405280156110fe576020820181803683370190505b509050600360fc1b8160008151811061111957611119611504565b60200101906001600160f81b031916908160001a905350600f60fb1b8160018151811061114857611148611504565b60200101906001600160f81b031916908160001a905350600061116c8460026114cf565b61117790600161142b565b90505b60018111156111ef576f181899199a1a9b1b9c1cb0b131b232b360811b85600f16601081106111ab576111ab611504565b1a60f81b8282815181106111c1576111c1611504565b60200101906001600160f81b031916908160001a90535060049490941c936111e88161151a565b905061117a565b50831561123e5760405162461bcd60e51b815260206004820181905260248201527f537472696e67733a20686578206c656e67746820696e73756666696369656e7460448201526064016105e1565b9392505050565b60006020828403121561125757600080fd5b81356001600160e01b03198116811461123e57600080fd5b60005b8381101561128a578181015183820152602001611272565b838111156109d95750506000910152565b60208152600082518060208401526112ba81604085016020870161126f565b601f01601f19169190910160400192915050565b80356001600160a01b03811681146112e557600080fd5b919050565b600080604083850312156112fd57600080fd5b611306836112ce565b946020939093013593505050565b60008060006060848603121561132957600080fd5b611332846112ce565b9250611340602085016112ce565b9150604084013590509250925092565b60006020828403121561136257600080fd5b5035919050565b6000806040838503121561137c57600080fd5b8235915061138c602084016112ce565b90509250929050565b6000602082840312156113a757600080fd5b61123e826112ce565b600080604083850312156113c357600080fd5b6113cc836112ce565b915061138c602084016112ce565b600181811c908216806113ee57607f821691505b6020821081141561140f57634e487b7160e01b600052602260045260246000fd5b50919050565b634e487b7160e01b600052601160045260246000fd5b6000821982111561143e5761143e611415565b500190565b7f416363657373436f6e74726f6c3a206163636f756e742000000000000000000081526000835161147b81601785016020880161126f565b7001034b99036b4b9b9b4b733903937b6329607d1b60179184019182015283516114ac81602884016020880161126f565b01602801949350505050565b6000828210156114ca576114ca611415565b500390565b60008160001904831182151516156114e9576114e9611415565b500290565b634e487b7160e01b600052604160045260246000fd5b634e487b7160e01b600052603260045260246000fd5b60008161152957611529611415565b50600019019056fea26469706673582212207b4a0d5ad3844c4797fa727912fb8092fd0077411868b209c6b5eb1658af7f0f64736f6c634300080b0033",
  "immutableReferences": {},
  "source": "// SPDX-License-Identifier: MIT\npragma solidity ^0.8.11;\n\nimport \"@openzeppelin/contracts/token/ERC20/ERC20.sol\";\nimport \"@openzeppelin/contracts/token/ERC20/extensions/ERC20Burnable.sol\";\nimport \"@openzeppelin/contracts/security/Pausable.sol\";\nimport \"@openzeppelin/contracts/access/AccessControl.sol\";\n\n/**\n * @title PhlipP2E\n * @author Riley Stephens\n * @notice This is an ERC20 token with role-based access control.\n */\ncontract PhlipP2E is ERC20, ERC20Burnable, Pausable, AccessControl {\n    bytes32 public constant PAUSER_ROLE = keccak256(\"PAUSER_ROLE\");\n    bytes32 public constant MINTER_ROLE = keccak256(\"MINTER_ROLE\");\n    bytes32 public constant BURNER_ROLE = keccak256(\"BURNER_ROLE\");\n\n    /**\n     * @notice Create contract with initial supply of 10,000,000,000 tokens\n     * @dev Only DEFAULT_ADMIN_ROLE is assigned because other roles can be assigned later by admin\n     */\n    constructor(string memory _name, string memory _symbol)\n        ERC20(_name, _symbol)\n    {\n        _grantRole(DEFAULT_ADMIN_ROLE, msg.sender);\n        _mint(msg.sender, 10000000000 * 10**decimals());\n    }\n\n    /**\n     * @notice Allow address with PAUSER role to pause token transfers\n     */\n    function pause() public onlyRole(PAUSER_ROLE) {\n        _pause();\n    }\n\n    /**\n     * @notice Allow address with PAUSER role to unpause token transfers\n     */\n    function unpause() public onlyRole(PAUSER_ROLE) {\n        _unpause();\n    }\n\n    /**\n     * @notice Allow address with MINTER role to mint tokens to a given address\n     * @param to The address to mint tokens to\n     * @param amount The amount of tokens to mint\n     */\n    function mint(address to, uint256 amount) public onlyRole(MINTER_ROLE) {\n        _mint(to, amount);\n    }\n\n    /**\n     * @notice Allow address with MINTER role to mint tokens to a given address\n     * @param account The address holding tokens to burn\n     * @param amount The amount of tokens to burn\n     */\n    function burn(address account, uint256 amount)\n        public\n        onlyRole(BURNER_ROLE)\n    {\n        _burn(account, amount);\n    }\n\n    /**\n     * @notice Function called before tokens are transferred\n     * @dev Override to make sure that token tranfers have not been paused\n     * @param from The address tokens will be transferred from\n     * @param to The address tokens will be transferred  to\n     * @param amount The amount of tokens to transfer\n     */\n    function _beforeTokenTransfer(\n        address from,\n        address to,\n        uint256 amount\n    ) internal override whenNotPaused {\n        super._beforeTokenTransfer(from, to, amount);\n    }\n}\n",
  "sourcePath": "/Users/rileystephens/Development/Accel/phlip.io/phlip-contracts/contracts/tokens/PhlipP2E.sol",
  "compiler": {
    "name": "solc",
    "version": "0.8.11+commit.d7f03943.Emscripten.clang"
  },
  "schemaVersion": "3.4.4",
  "updatedAt": "2022-03-08T18:12:57.761Z",
  "devdoc": {
    "author": "Riley Stephens",
    "kind": "dev",
    "methods": {
      "allowance(address,address)": {
        "details": "See {IERC20-allowance}."
      },
      "approve(address,uint256)": {
        "details": "See {IERC20-approve}. NOTE: If `amount` is the maximum `uint256`, the allowance is not updated on `transferFrom`. This is semantically equivalent to an infinite approval. Requirements: - `spender` cannot be the zero address."
      },
      "balanceOf(address)": {
        "details": "See {IERC20-balanceOf}."
      },
      "burn(address,uint256)": {
        "params": {
          "account": "The address holding tokens to burn",
          "amount": "The amount of tokens to burn"
        }
      },
      "burn(uint256)": {
        "details": "Destroys `amount` tokens from the caller. See {ERC20-_burn}."
      },
      "burnFrom(address,uint256)": {
        "details": "Destroys `amount` tokens from `account`, deducting from the caller's allowance. See {ERC20-_burn} and {ERC20-allowance}. Requirements: - the caller must have allowance for ``accounts``'s tokens of at least `amount`."
      },
      "constructor": {
        "details": "Only DEFAULT_ADMIN_ROLE is assigned because other roles can be assigned later by admin"
      },
      "decimals()": {
        "details": "Returns the number of decimals used to get its user representation. For example, if `decimals` equals `2`, a balance of `505` tokens should be displayed to a user as `5.05` (`505 / 10 ** 2`). Tokens usually opt for a value of 18, imitating the relationship between Ether and Wei. This is the value {ERC20} uses, unless this function is overridden; NOTE: This information is only used for _display_ purposes: it in no way affects any of the arithmetic of the contract, including {IERC20-balanceOf} and {IERC20-transfer}."
      },
      "decreaseAllowance(address,uint256)": {
        "details": "Atomically decreases the allowance granted to `spender` by the caller. This is an alternative to {approve} that can be used as a mitigation for problems described in {IERC20-approve}. Emits an {Approval} event indicating the updated allowance. Requirements: - `spender` cannot be the zero address. - `spender` must have allowance for the caller of at least `subtractedValue`."
      },
      "getRoleAdmin(bytes32)": {
        "details": "Returns the admin role that controls `role`. See {grantRole} and {revokeRole}. To change a role's admin, use {_setRoleAdmin}."
      },
      "grantRole(bytes32,address)": {
        "details": "Grants `role` to `account`. If `account` had not been already granted `role`, emits a {RoleGranted} event. Requirements: - the caller must have ``role``'s admin role."
      },
      "hasRole(bytes32,address)": {
        "details": "Returns `true` if `account` has been granted `role`."
      },
      "increaseAllowance(address,uint256)": {
        "details": "Atomically increases the allowance granted to `spender` by the caller. This is an alternative to {approve} that can be used as a mitigation for problems described in {IERC20-approve}. Emits an {Approval} event indicating the updated allowance. Requirements: - `spender` cannot be the zero address."
      },
      "mint(address,uint256)": {
        "params": {
          "amount": "The amount of tokens to mint",
          "to": "The address to mint tokens to"
        }
      },
      "name()": {
        "details": "Returns the name of the token."
      },
      "paused()": {
        "details": "Returns true if the contract is paused, and false otherwise."
      },
      "renounceRole(bytes32,address)": {
        "details": "Revokes `role` from the calling account. Roles are often managed via {grantRole} and {revokeRole}: this function's purpose is to provide a mechanism for accounts to lose their privileges if they are compromised (such as when a trusted device is misplaced). If the calling account had been revoked `role`, emits a {RoleRevoked} event. Requirements: - the caller must be `account`."
      },
      "revokeRole(bytes32,address)": {
        "details": "Revokes `role` from `account`. If `account` had been granted `role`, emits a {RoleRevoked} event. Requirements: - the caller must have ``role``'s admin role."
      },
      "supportsInterface(bytes4)": {
        "details": "See {IERC165-supportsInterface}."
      },
      "symbol()": {
        "details": "Returns the symbol of the token, usually a shorter version of the name."
      },
      "totalSupply()": {
        "details": "See {IERC20-totalSupply}."
      },
      "transfer(address,uint256)": {
        "details": "See {IERC20-transfer}. Requirements: - `to` cannot be the zero address. - the caller must have a balance of at least `amount`."
      },
      "transferFrom(address,address,uint256)": {
        "details": "See {IERC20-transferFrom}. Emits an {Approval} event indicating the updated allowance. This is not required by the EIP. See the note at the beginning of {ERC20}. NOTE: Does not update the allowance if the current allowance is the maximum `uint256`. Requirements: - `from` and `to` cannot be the zero address. - `from` must have a balance of at least `amount`. - the caller must have allowance for ``from``'s tokens of at least `amount`."
      }
    },
    "title": "PhlipP2E",
    "version": 1
  },
  "userdoc": {
    "kind": "user",
    "methods": {
      "burn(address,uint256)": {
        "notice": "Allow address with MINTER role to mint tokens to a given address"
      },
      "constructor": {
        "notice": "Create contract with initial supply of 10,000,000,000 tokens"
      },
      "mint(address,uint256)": {
        "notice": "Allow address with MINTER role to mint tokens to a given address"
      },
      "pause()": {
        "notice": "Allow address with PAUSER role to pause token transfers"
      },
      "unpause()": {
        "notice": "Allow address with PAUSER role to unpause token transfers"
      }
    },
    "notice": "This is an ERC20 token with role-based access control.",
    "version": 1
  }
}