{
  "contractName": "PhlipDAO",
  "abi": [
    {
      "inputs": [
        {
          "internalType": "string",
          "name": "_name",
          "type": "string"
        },
        {
          "internalType": "string",
          "name": "_symbol",
          "type": "string"
        }
      ],
      "stateMutability": "nonpayable",
      "type": "constructor"
    },
    {
      "anonymous": false,
      "inputs": [
        {
          "indexed": true,
          "internalType": "address",
          "name": "owner",
          "type": "address"
        },
        {
          "indexed": true,
          "internalType": "address",
          "name": "spender",
          "type": "address"
        },
        {
          "indexed": false,
          "internalType": "uint256",
          "name": "value",
          "type": "uint256"
        }
      ],
      "name": "Approval",
      "type": "event"
    },
    {
      "anonymous": false,
      "inputs": [
        {
          "indexed": true,
          "internalType": "address",
          "name": "delegator",
          "type": "address"
        },
        {
          "indexed": true,
          "internalType": "address",
          "name": "fromDelegate",
          "type": "address"
        },
        {
          "indexed": true,
          "internalType": "address",
          "name": "toDelegate",
          "type": "address"
        }
      ],
      "name": "DelegateChanged",
      "type": "event"
    },
    {
      "anonymous": false,
      "inputs": [
        {
          "indexed": true,
          "internalType": "address",
          "name": "delegate",
          "type": "address"
        },
        {
          "indexed": false,
          "internalType": "uint256",
          "name": "previousBalance",
          "type": "uint256"
        },
        {
          "indexed": false,
          "internalType": "uint256",
          "name": "newBalance",
          "type": "uint256"
        }
      ],
      "name": "DelegateVotesChanged",
      "type": "event"
    },
    {
      "anonymous": false,
      "inputs": [
        {
          "indexed": false,
          "internalType": "address",
          "name": "account",
          "type": "address"
        }
      ],
      "name": "Paused",
      "type": "event"
    },
    {
      "anonymous": false,
      "inputs": [
        {
          "indexed": true,
          "internalType": "bytes32",
          "name": "role",
          "type": "bytes32"
        },
        {
          "indexed": true,
          "internalType": "bytes32",
          "name": "previousAdminRole",
          "type": "bytes32"
        },
        {
          "indexed": true,
          "internalType": "bytes32",
          "name": "newAdminRole",
          "type": "bytes32"
        }
      ],
      "name": "RoleAdminChanged",
      "type": "event"
    },
    {
      "anonymous": false,
      "inputs": [
        {
          "indexed": true,
          "internalType": "bytes32",
          "name": "role",
          "type": "bytes32"
        },
        {
          "indexed": true,
          "internalType": "address",
          "name": "account",
          "type": "address"
        },
        {
          "indexed": true,
          "internalType": "address",
          "name": "sender",
          "type": "address"
        }
      ],
      "name": "RoleGranted",
      "type": "event"
    },
    {
      "anonymous": false,
      "inputs": [
        {
          "indexed": true,
          "internalType": "bytes32",
          "name": "role",
          "type": "bytes32"
        },
        {
          "indexed": true,
          "internalType": "address",
          "name": "account",
          "type": "address"
        },
        {
          "indexed": true,
          "internalType": "address",
          "name": "sender",
          "type": "address"
        }
      ],
      "name": "RoleRevoked",
      "type": "event"
    },
    {
      "anonymous": false,
      "inputs": [
        {
          "indexed": true,
          "internalType": "address",
          "name": "from",
          "type": "address"
        },
        {
          "indexed": true,
          "internalType": "address",
          "name": "to",
          "type": "address"
        },
        {
          "indexed": false,
          "internalType": "uint256",
          "name": "value",
          "type": "uint256"
        }
      ],
      "name": "Transfer",
      "type": "event"
    },
    {
      "anonymous": false,
      "inputs": [
        {
          "indexed": false,
          "internalType": "address",
          "name": "account",
          "type": "address"
        }
      ],
      "name": "Unpaused",
      "type": "event"
    },
    {
      "inputs": [],
      "name": "BURNER_ROLE",
      "outputs": [
        {
          "internalType": "bytes32",
          "name": "",
          "type": "bytes32"
        }
      ],
      "stateMutability": "view",
      "type": "function"
    },
    {
      "inputs": [],
      "name": "DEFAULT_ADMIN_ROLE",
      "outputs": [
        {
          "internalType": "bytes32",
          "name": "",
          "type": "bytes32"
        }
      ],
      "stateMutability": "view",
      "type": "function"
    },
    {
      "inputs": [],
      "name": "DOMAIN_SEPARATOR",
      "outputs": [
        {
          "internalType": "bytes32",
          "name": "",
          "type": "bytes32"
        }
      ],
      "stateMutability": "view",
      "type": "function"
    },
    {
      "inputs": [],
      "name": "MINTER_ROLE",
      "outputs": [
        {
          "internalType": "bytes32",
          "name": "",
          "type": "bytes32"
        }
      ],
      "stateMutability": "view",
      "type": "function"
    },
    {
      "inputs": [],
      "name": "PAUSER_ROLE",
      "outputs": [
        {
          "internalType": "bytes32",
          "name": "",
          "type": "bytes32"
        }
      ],
      "stateMutability": "view",
      "type": "function"
    },
    {
      "inputs": [
        {
          "internalType": "address",
          "name": "owner",
          "type": "address"
        },
        {
          "internalType": "address",
          "name": "spender",
          "type": "address"
        }
      ],
      "name": "allowance",
      "outputs": [
        {
          "internalType": "uint256",
          "name": "",
          "type": "uint256"
        }
      ],
      "stateMutability": "view",
      "type": "function"
    },
    {
      "inputs": [
        {
          "internalType": "address",
          "name": "spender",
          "type": "address"
        },
        {
          "internalType": "uint256",
          "name": "amount",
          "type": "uint256"
        }
      ],
      "name": "approve",
      "outputs": [
        {
          "internalType": "bool",
          "name": "",
          "type": "bool"
        }
      ],
      "stateMutability": "nonpayable",
      "type": "function"
    },
    {
      "inputs": [
        {
          "internalType": "address",
          "name": "account",
          "type": "address"
        }
      ],
      "name": "balanceOf",
      "outputs": [
        {
          "internalType": "uint256",
          "name": "",
          "type": "uint256"
        }
      ],
      "stateMutability": "view",
      "type": "function"
    },
    {
      "inputs": [
        {
          "internalType": "address",
          "name": "account",
          "type": "address"
        },
        {
          "internalType": "uint256",
          "name": "amount",
          "type": "uint256"
        }
      ],
      "name": "burnFrom",
      "outputs": [],
      "stateMutability": "nonpayable",
      "type": "function"
    },
    {
      "inputs": [
        {
          "internalType": "address",
          "name": "account",
          "type": "address"
        },
        {
          "internalType": "uint32",
          "name": "pos",
          "type": "uint32"
        }
      ],
      "name": "checkpoints",
      "outputs": [
        {
          "components": [
            {
              "internalType": "uint32",
              "name": "fromBlock",
              "type": "uint32"
            },
            {
              "internalType": "uint224",
              "name": "votes",
              "type": "uint224"
            }
          ],
          "internalType": "struct ERC20Votes.Checkpoint",
          "name": "",
          "type": "tuple"
        }
      ],
      "stateMutability": "view",
      "type": "function"
    },
    {
      "inputs": [],
      "name": "decimals",
      "outputs": [
        {
          "internalType": "uint8",
          "name": "",
          "type": "uint8"
        }
      ],
      "stateMutability": "view",
      "type": "function"
    },
    {
      "inputs": [
        {
          "internalType": "address",
          "name": "spender",
          "type": "address"
        },
        {
          "internalType": "uint256",
          "name": "subtractedValue",
          "type": "uint256"
        }
      ],
      "name": "decreaseAllowance",
      "outputs": [
        {
          "internalType": "bool",
          "name": "",
          "type": "bool"
        }
      ],
      "stateMutability": "nonpayable",
      "type": "function"
    },
    {
      "inputs": [
        {
          "internalType": "address",
          "name": "delegatee",
          "type": "address"
        }
      ],
      "name": "delegate",
      "outputs": [],
      "stateMutability": "nonpayable",
      "type": "function"
    },
    {
      "inputs": [
        {
          "internalType": "address",
          "name": "delegatee",
          "type": "address"
        },
        {
          "internalType": "uint256",
          "name": "nonce",
          "type": "uint256"
        },
        {
          "internalType": "uint256",
          "name": "expiry",
          "type": "uint256"
        },
        {
          "internalType": "uint8",
          "name": "v",
          "type": "uint8"
        },
        {
          "internalType": "bytes32",
          "name": "r",
          "type": "bytes32"
        },
        {
          "internalType": "bytes32",
          "name": "s",
          "type": "bytes32"
        }
      ],
      "name": "delegateBySig",
      "outputs": [],
      "stateMutability": "nonpayable",
      "type": "function"
    },
    {
      "inputs": [
        {
          "internalType": "address",
          "name": "account",
          "type": "address"
        }
      ],
      "name": "delegates",
      "outputs": [
        {
          "internalType": "address",
          "name": "",
          "type": "address"
        }
      ],
      "stateMutability": "view",
      "type": "function"
    },
    {
      "inputs": [
        {
          "internalType": "uint256",
          "name": "blockNumber",
          "type": "uint256"
        }
      ],
      "name": "getPastTotalSupply",
      "outputs": [
        {
          "internalType": "uint256",
          "name": "",
          "type": "uint256"
        }
      ],
      "stateMutability": "view",
      "type": "function"
    },
    {
      "inputs": [
        {
          "internalType": "address",
          "name": "account",
          "type": "address"
        },
        {
          "internalType": "uint256",
          "name": "blockNumber",
          "type": "uint256"
        }
      ],
      "name": "getPastVotes",
      "outputs": [
        {
          "internalType": "uint256",
          "name": "",
          "type": "uint256"
        }
      ],
      "stateMutability": "view",
      "type": "function"
    },
    {
      "inputs": [
        {
          "internalType": "bytes32",
          "name": "role",
          "type": "bytes32"
        }
      ],
      "name": "getRoleAdmin",
      "outputs": [
        {
          "internalType": "bytes32",
          "name": "",
          "type": "bytes32"
        }
      ],
      "stateMutability": "view",
      "type": "function"
    },
    {
      "inputs": [
        {
          "internalType": "address",
          "name": "account",
          "type": "address"
        }
      ],
      "name": "getVotes",
      "outputs": [
        {
          "internalType": "uint256",
          "name": "",
          "type": "uint256"
        }
      ],
      "stateMutability": "view",
      "type": "function"
    },
    {
      "inputs": [
        {
          "internalType": "bytes32",
          "name": "role",
          "type": "bytes32"
        },
        {
          "internalType": "address",
          "name": "account",
          "type": "address"
        }
      ],
      "name": "grantRole",
      "outputs": [],
      "stateMutability": "nonpayable",
      "type": "function"
    },
    {
      "inputs": [
        {
          "internalType": "bytes32",
          "name": "role",
          "type": "bytes32"
        },
        {
          "internalType": "address",
          "name": "account",
          "type": "address"
        }
      ],
      "name": "hasRole",
      "outputs": [
        {
          "internalType": "bool",
          "name": "",
          "type": "bool"
        }
      ],
      "stateMutability": "view",
      "type": "function"
    },
    {
      "inputs": [
        {
          "internalType": "address",
          "name": "spender",
          "type": "address"
        },
        {
          "internalType": "uint256",
          "name": "addedValue",
          "type": "uint256"
        }
      ],
      "name": "increaseAllowance",
      "outputs": [
        {
          "internalType": "bool",
          "name": "",
          "type": "bool"
        }
      ],
      "stateMutability": "nonpayable",
      "type": "function"
    },
    {
      "inputs": [],
      "name": "name",
      "outputs": [
        {
          "internalType": "string",
          "name": "",
          "type": "string"
        }
      ],
      "stateMutability": "view",
      "type": "function"
    },
    {
      "inputs": [
        {
          "internalType": "address",
          "name": "owner",
          "type": "address"
        }
      ],
      "name": "nonces",
      "outputs": [
        {
          "internalType": "uint256",
          "name": "",
          "type": "uint256"
        }
      ],
      "stateMutability": "view",
      "type": "function"
    },
    {
      "inputs": [
        {
          "internalType": "address",
          "name": "account",
          "type": "address"
        }
      ],
      "name": "numCheckpoints",
      "outputs": [
        {
          "internalType": "uint32",
          "name": "",
          "type": "uint32"
        }
      ],
      "stateMutability": "view",
      "type": "function"
    },
    {
      "inputs": [],
      "name": "paused",
      "outputs": [
        {
          "internalType": "bool",
          "name": "",
          "type": "bool"
        }
      ],
      "stateMutability": "view",
      "type": "function"
    },
    {
      "inputs": [
        {
          "internalType": "address",
          "name": "owner",
          "type": "address"
        },
        {
          "internalType": "address",
          "name": "spender",
          "type": "address"
        },
        {
          "internalType": "uint256",
          "name": "value",
          "type": "uint256"
        },
        {
          "internalType": "uint256",
          "name": "deadline",
          "type": "uint256"
        },
        {
          "internalType": "uint8",
          "name": "v",
          "type": "uint8"
        },
        {
          "internalType": "bytes32",
          "name": "r",
          "type": "bytes32"
        },
        {
          "internalType": "bytes32",
          "name": "s",
          "type": "bytes32"
        }
      ],
      "name": "permit",
      "outputs": [],
      "stateMutability": "nonpayable",
      "type": "function"
    },
    {
      "inputs": [
        {
          "internalType": "bytes32",
          "name": "role",
          "type": "bytes32"
        },
        {
          "internalType": "address",
          "name": "account",
          "type": "address"
        }
      ],
      "name": "renounceRole",
      "outputs": [],
      "stateMutability": "nonpayable",
      "type": "function"
    },
    {
      "inputs": [
        {
          "internalType": "bytes32",
          "name": "role",
          "type": "bytes32"
        },
        {
          "internalType": "address",
          "name": "account",
          "type": "address"
        }
      ],
      "name": "revokeRole",
      "outputs": [],
      "stateMutability": "nonpayable",
      "type": "function"
    },
    {
      "inputs": [
        {
          "internalType": "bytes4",
          "name": "interfaceId",
          "type": "bytes4"
        }
      ],
      "name": "supportsInterface",
      "outputs": [
        {
          "internalType": "bool",
          "name": "",
          "type": "bool"
        }
      ],
      "stateMutability": "view",
      "type": "function"
    },
    {
      "inputs": [],
      "name": "symbol",
      "outputs": [
        {
          "internalType": "string",
          "name": "",
          "type": "string"
        }
      ],
      "stateMutability": "view",
      "type": "function"
    },
    {
      "inputs": [],
      "name": "totalSupply",
      "outputs": [
        {
          "internalType": "uint256",
          "name": "",
          "type": "uint256"
        }
      ],
      "stateMutability": "view",
      "type": "function"
    },
    {
      "inputs": [
        {
          "internalType": "address",
          "name": "to",
          "type": "address"
        },
        {
          "internalType": "uint256",
          "name": "amount",
          "type": "uint256"
        }
      ],
      "name": "transfer",
      "outputs": [
        {
          "internalType": "bool",
          "name": "",
          "type": "bool"
        }
      ],
      "stateMutability": "nonpayable",
      "type": "function"
    },
    {
      "inputs": [
        {
          "internalType": "address",
          "name": "from",
          "type": "address"
        },
        {
          "internalType": "address",
          "name": "to",
          "type": "address"
        },
        {
          "internalType": "uint256",
          "name": "amount",
          "type": "uint256"
        }
      ],
      "name": "transferFrom",
      "outputs": [
        {
          "internalType": "bool",
          "name": "",
          "type": "bool"
        }
      ],
      "stateMutability": "nonpayable",
      "type": "function"
    },
    {
      "inputs": [],
      "name": "pause",
      "outputs": [],
      "stateMutability": "nonpayable",
      "type": "function"
    },
    {
      "inputs": [],
      "name": "unpause",
      "outputs": [],
      "stateMutability": "nonpayable",
      "type": "function"
    },
    {
      "inputs": [
        {
          "internalType": "address",
          "name": "to",
          "type": "address"
        },
        {
          "internalType": "uint256",
          "name": "amount",
          "type": "uint256"
        }
      ],
      "name": "mint",
      "outputs": [],
      "stateMutability": "nonpayable",
      "type": "function"
    },
    {
      "inputs": [
        {
          "internalType": "uint256",
          "name": "amount",
          "type": "uint256"
        }
      ],
      "name": "burn",
      "outputs": [],
      "stateMutability": "nonpayable",
      "type": "function"
    },
    {
      "inputs": [
        {
          "internalType": "address",
          "name": "account",
          "type": "address"
        },
        {
          "internalType": "uint256",
          "name": "amount",
          "type": "uint256"
        }
      ],
      "name": "burn",
      "outputs": [],
      "stateMutability": "nonpayable",
      "type": "function"
    }
  ],
  "bytecode": "0x6101606040527f6e71edae12b1b97f4d1f60370fef10105fa2faae0126114a169c64845d6126c9610140523480156200003757600080fd5b506040516200344c3803806200344c8339810160408190526200005a9162000a0b565b8180604051806040016040528060018152602001603160f81b8152508484816003908051906020019062000090929190620008a2565b508051620000a6906004906020840190620008a2565b50506005805460ff1916905550815160209283012081519183019190912060e08290526101008190524660a0818152604080517f8b73c3c69bb8fe3d512ecc4cf759cc79239f7b179b0ffacaa9a75d522b39400f818801819052818301969096526060810194909452608080850193909352308483018190528151808603909301835260c09485019091528151919095012090529190915261012052506200015060003362000182565b6200017a33620001636012600a62000b88565b62000174906401469a88e062000b99565b6200020d565b505062000c43565b6200018e828262000224565b620002095760008281526006602090815260408083206001600160a01b03851684529091529020805460ff19166001179055620001c83390565b6001600160a01b0316816001600160a01b0316837f2f8788117e7eff1d82e926ec794901d17c78024a50270940304540a733656f0d60405160405180910390a45b5050565b6200020982826200025160201b62000eac1760201c565b60008281526006602090815260408083206001600160a01b038516845290915290205460ff165b92915050565b6200026882826200030860201b62000f3c1760201c565b6001600160e01b036200027c620004058216565b1115620002e95760405162461bcd60e51b815260206004820152603060248201527f4552433230566f7465733a20746f74616c20737570706c79207269736b73206f60448201526f766572666c6f77696e6720766f74657360801b60648201526084015b60405180910390fd5b62000302600a6200102f6200040b60201b178362000420565b50505050565b6001600160a01b038216620003605760405162461bcd60e51b815260206004820152601f60248201527f45524332303a206d696e7420746f20746865207a65726f2061646472657373006044820152606401620002e0565b6200036e60008383620005d2565b806002600082825462000382919062000bbb565b90915550506001600160a01b03821660009081526020819052604081208054839290620003b190849062000bbb565b90915550506040518181526001600160a01b038316906000907fddf252ad1be2c89b69c2b068fc378daa952ba7f163c4a11628f55a4df523b3ef9060200160405180910390a3620002096000838362000637565b60025490565b600062000419828462000bbb565b9392505050565b8254600090819080156200047257856200043c60018362000bd6565b815481106200044f576200044f62000bf0565b60009182526020909120015464010000000090046001600160e01b031662000475565b60005b6001600160e01b031692506200048c83858760201c565b9150600081118015620004d057504386620004a960018462000bd6565b81548110620004bc57620004bc62000bf0565b60009182526020909120015463ffffffff16145b156200054457620004ec826200064f60201b6200103b1760201c565b86620004fa60018462000bd6565b815481106200050d576200050d62000bf0565b9060005260206000200160000160046101000a8154816001600160e01b0302191690836001600160e01b03160217905550620005c9565b8560405180604001604052806200056643620006be60201b620010a81760201c565b63ffffffff16815260200162000587856200064f60201b6200103b1760201c565b6001600160e01b0390811690915282546001810184556000938452602093849020835194909301519091166401000000000263ffffffff909316929092179101555b50935093915050565b60055460ff16156200061a5760405162461bcd60e51b815260206004820152601060248201526f14185d5cd8589b194e881c185d5cd95960821b6044820152606401620002e0565b620006328383836200063260201b6200071f1760201c565b505050565b620006328383836200072560201b6200110d1760201c565b60006001600160e01b03821115620006ba5760405162461bcd60e51b815260206004820152602760248201527f53616665436173743a2076616c756520646f65736e27742066697420696e20326044820152663234206269747360c81b6064820152608401620002e0565b5090565b600063ffffffff821115620006ba5760405162461bcd60e51b815260206004820152602660248201527f53616665436173743a2076616c756520646f65736e27742066697420696e203360448201526532206269747360d01b6064820152608401620002e0565b6200073d8383836200063260201b6200071f1760201c565b6001600160a01b0383811660009081526008602052604080822054858416835291205462000632929182169116838183148015906200077c5750600081115b1562000632576001600160a01b0383161562000809576001600160a01b038316600090815260096020908152604082208291620007c6919062000894901b6200113f178562000420565b91509150846001600160a01b03166000805160206200342c8339815191528383604051620007fe929190918252602082015260400190565b60405180910390a250505b6001600160a01b0382161562000632576001600160a01b0382166000908152600960209081526040822082916200084d91906200040b901b6200102f178562000420565b91509150836001600160a01b03166000805160206200342c833981519152838360405162000885929190918252602082015260400190565b60405180910390a25050505050565b600062000419828462000bd6565b828054620008b09062000c06565b90600052602060002090601f016020900481019282620008d457600085556200091f565b82601f10620008ef57805160ff19168380011785556200091f565b828001600101855582156200091f579182015b828111156200091f57825182559160200191906001019062000902565b50620006ba9291505b80821115620006ba576000815560010162000928565b634e487b7160e01b600052604160045260246000fd5b600082601f8301126200096657600080fd5b81516001600160401b03808211156200098357620009836200093e565b604051601f8301601f19908116603f01168101908282118183101715620009ae57620009ae6200093e565b81604052838152602092508683858801011115620009cb57600080fd5b600091505b83821015620009ef5785820183015181830184015290820190620009d0565b8382111562000a015760008385830101525b9695505050505050565b6000806040838503121562000a1f57600080fd5b82516001600160401b038082111562000a3757600080fd5b62000a458683870162000954565b9350602085015191508082111562000a5c57600080fd5b5062000a6b8582860162000954565b9150509250929050565b634e487b7160e01b600052601160045260246000fd5b600181815b8085111562000acc57816000190482111562000ab05762000ab062000a75565b8085161562000abe57918102915b93841c939080029062000a90565b509250929050565b60008262000ae5575060016200024b565b8162000af4575060006200024b565b816001811462000b0d576002811462000b185762000b38565b60019150506200024b565b60ff84111562000b2c5762000b2c62000a75565b50506001821b6200024b565b5060208310610133831016604e8410600b841016171562000b5d575081810a6200024b565b62000b69838362000a8b565b806000190482111562000b805762000b8062000a75565b029392505050565b60006200041960ff84168362000ad4565b600081600019048311821515161562000bb65762000bb662000a75565b500290565b6000821982111562000bd15762000bd162000a75565b500190565b60008282101562000beb5762000beb62000a75565b500390565b634e487b7160e01b600052603260045260246000fd5b600181811c9082168062000c1b57607f821691505b6020821081141562000c3d57634e487b7160e01b600052602260045260246000fd5b50919050565b60805160a05160c05160e05161010051610120516101405161278e62000c9e6000396000610cf20152600061164e0152600061169d01526000611678015260006115d1015260006115fb01526000611625015261278e6000f3fe608060405234801561001057600080fd5b506004361061023d5760003560e01c80636fcfff451161013b578063a217fddf116100b8578063d53913931161007c578063d53913931461051d578063d547741f14610544578063dd62ed3e14610557578063e63ab1e914610590578063f1127ed8146105b757600080fd5b8063a217fddf146104c9578063a457c2d7146104d1578063a9059cbb146104e4578063c3cda520146104f7578063d505accf1461050a57600080fd5b80638e539e8c116100ff5780638e539e8c1461047557806391d148541461048857806395d89b411461049b5780639ab24eb0146104a35780639dc29fac146104b657600080fd5b80636fcfff45146103f657806370a082311461041e57806379cc6790146104475780637ecebe001461045a5780638456cb591461046d57600080fd5b80633644e515116101c957806340c10f191161018d57806340c10f191461036e57806342966c6814610381578063587cde1e146103945780635c19a95c146103d85780635c975abb146103eb57600080fd5b80633644e5151461032557806336568abe1461032d57806339509351146103405780633a46b1a8146103535780633f4ba83a1461036657600080fd5b806323b872dd1161021057806323b872dd146102a4578063248a9ca3146102b7578063282c51f3146102da5780632f2ff15d14610301578063313ce5671461031657600080fd5b806301ffc9a71461024257806306fdde031461026a578063095ea7b31461027f57806318160ddd14610292575b600080fd5b610255610250366004612327565b6105f4565b60405190151581526020015b60405180910390f35b61027261062b565b604051610261919061237d565b61025561028d3660046123cc565b6106bd565b6002545b604051908152602001610261565b6102556102b23660046123f6565b6106d5565b6102966102c5366004612432565b60009081526006602052604090206001015490565b6102967f3c11d16cbaffd01df69ce1c404f6340ee057498f5f00246190ea54220576a84881565b61031461030f36600461244b565b6106f9565b005b60405160128152602001610261565b610296610724565b61031461033b36600461244b565b610733565b61025561034e3660046123cc565b6107b6565b6102966103613660046123cc565b6107f5565b61031461086f565b61031461037c3660046123cc565b6108a5565b61031461038f366004612432565b6108da565b6103c06103a2366004612477565b6001600160a01b039081166000908152600860205260409020541690565b6040516001600160a01b039091168152602001610261565b6103146103e6366004612477565b6108e4565b60055460ff16610255565b610409610404366004612477565b6108ee565b60405163ffffffff9091168152602001610261565b61029661042c366004612477565b6001600160a01b031660009081526020819052604090205490565b6103146104553660046123cc565b610910565b610296610468366004612477565b610925565b610314610943565b610296610483366004612432565b610976565b61025561049636600461244b565b6109d2565b6102726109fd565b6102966104b1366004612477565b610a0c565b6103146104c43660046123cc565b610a93565b610296600081565b6102556104df3660046123cc565b610ac8565b6102556104f23660046123cc565b610b5a565b6103146105053660046124a3565b610b68565b6103146105183660046124fb565b610c9e565b6102967f9f2df0fed2c77648de5860a4cc508cd0818c85b8b8a1ab4ceeef8d981c8956a681565b61031461055236600461244b565b610e02565b610296610565366004612565565b6001600160a01b03918216600090815260016020908152604080832093909416825291909152205490565b6102967f65d7a28e3265b37a6474929f336521b332c1681b933f6cb9f3376673440d862a81565b6105ca6105c536600461258f565b610e28565b60408051825163ffffffff1681526020928301516001600160e01b03169281019290925201610261565b60006001600160e01b03198216637965db0b60e01b148061062557506301ffc9a760e01b6001600160e01b03198316145b92915050565b60606003805461063a906125cf565b80601f0160208091040260200160405190810160405280929190818152602001828054610666906125cf565b80156106b35780601f10610688576101008083540402835291602001916106b3565b820191906000526020600020905b81548152906001019060200180831161069657829003601f168201915b5050505050905090565b6000336106cb81858561114b565b5060019392505050565b6000336106e385828561126f565b6106ee8585856112fb565b506001949350505050565b60008281526006602052604090206001015461071581336114da565b61071f838361153e565b505050565b600061072e6115c4565b905090565b6001600160a01b03811633146107a85760405162461bcd60e51b815260206004820152602f60248201527f416363657373436f6e74726f6c3a2063616e206f6e6c792072656e6f756e636560448201526e103937b632b9903337b91039b2b63360891b60648201526084015b60405180910390fd5b6107b282826116eb565b5050565b3360008181526001602090815260408083206001600160a01b03871684529091528120549091906106cb90829086906107f090879061261a565b61114b565b60004382106108465760405162461bcd60e51b815260206004820152601f60248201527f4552433230566f7465733a20626c6f636b206e6f7420796574206d696e656400604482015260640161079f565b6001600160a01b03831660009081526009602052604090206108689083611752565b9392505050565b7f65d7a28e3265b37a6474929f336521b332c1681b933f6cb9f3376673440d862a61089a81336114da565b6108a261180f565b50565b7f9f2df0fed2c77648de5860a4cc508cd0818c85b8b8a1ab4ceeef8d981c8956a66108d081336114da565b61071f83836118a2565b6108a233826118ac565b6108a233826118b6565b6001600160a01b038116600090815260096020526040812054610625906110a8565b61091b82338361126f565b6107b282826118ac565b6001600160a01b038116600090815260076020526040812054610625565b7f65d7a28e3265b37a6474929f336521b332c1681b933f6cb9f3376673440d862a61096e81336114da565b6108a261192f565b60004382106109c75760405162461bcd60e51b815260206004820152601f60248201527f4552433230566f7465733a20626c6f636b206e6f7420796574206d696e656400604482015260640161079f565b610625600a83611752565b60009182526006602090815260408084206001600160a01b0393909316845291905290205460ff1690565b60606004805461063a906125cf565b6001600160a01b0381166000908152600960205260408120548015610a80576001600160a01b0383166000908152600960205260409020610a4e600183612632565b81548110610a5e57610a5e612649565b60009182526020909120015464010000000090046001600160e01b0316610a83565b60005b6001600160e01b03169392505050565b7f3c11d16cbaffd01df69ce1c404f6340ee057498f5f00246190ea54220576a848610abe81336114da565b61071f83836118ac565b3360008181526001602090815260408083206001600160a01b038716845290915281205490919083811015610b4d5760405162461bcd60e51b815260206004820152602560248201527f45524332303a2064656372656173656420616c6c6f77616e63652062656c6f77604482015264207a65726f60d81b606482015260840161079f565b6106ee828686840361114b565b6000336106cb8185856112fb565b83421115610bb85760405162461bcd60e51b815260206004820152601d60248201527f4552433230566f7465733a207369676e61747572652065787069726564000000604482015260640161079f565b604080517fe48329057bfd03d55e49b547132e39cffd9c1820ad7b9d4c5307691425d15adf60208201526001600160a01b038816918101919091526060810186905260808101859052600090610c3290610c2a9060a001604051602081830303815290604052805190602001206119aa565b8585856119f8565b9050610c3d81611a20565b8614610c8b5760405162461bcd60e51b815260206004820152601960248201527f4552433230566f7465733a20696e76616c6964206e6f6e636500000000000000604482015260640161079f565b610c9581886118b6565b50505050505050565b83421115610cee5760405162461bcd60e51b815260206004820152601d60248201527f45524332305065726d69743a206578706972656420646561646c696e65000000604482015260640161079f565b60007f0000000000000000000000000000000000000000000000000000000000000000888888610d1d8c611a20565b6040805160208101969096526001600160a01b0394851690860152929091166060840152608083015260a082015260c0810186905260e0016040516020818303038152906040528051906020012090506000610d78826119aa565b90506000610d88828787876119f8565b9050896001600160a01b0316816001600160a01b031614610deb5760405162461bcd60e51b815260206004820152601e60248201527f45524332305065726d69743a20696e76616c6964207369676e61747572650000604482015260640161079f565b610df68a8a8a61114b565b50505050505050505050565b600082815260066020526040902060010154610e1e81336114da565b61071f83836116eb565b60408051808201909152600080825260208201526001600160a01b0383166000908152600960205260409020805463ffffffff8416908110610e6c57610e6c612649565b60009182526020918290206040805180820190915291015463ffffffff8116825264010000000090046001600160e01b0316918101919091529392505050565b610eb68282610f3c565b6002546001600160e01b031015610f285760405162461bcd60e51b815260206004820152603060248201527f4552433230566f7465733a20746f74616c20737570706c79207269736b73206f60448201526f766572666c6f77696e6720766f74657360801b606482015260840161079f565b610f36600a61102f83611a48565b50505050565b6001600160a01b038216610f925760405162461bcd60e51b815260206004820152601f60248201527f45524332303a206d696e7420746f20746865207a65726f206164647265737300604482015260640161079f565b610f9e60008383611bc1565b8060026000828254610fb0919061261a565b90915550506001600160a01b03821660009081526020819052604081208054839290610fdd90849061261a565b90915550506040518181526001600160a01b038316906000907fddf252ad1be2c89b69c2b068fc378daa952ba7f163c4a11628f55a4df523b3ef9060200160405180910390a36107b260008383611c07565b6000610868828461261a565b60006001600160e01b038211156110a45760405162461bcd60e51b815260206004820152602760248201527f53616665436173743a2076616c756520646f65736e27742066697420696e20326044820152663234206269747360c81b606482015260840161079f565b5090565b600063ffffffff8211156110a45760405162461bcd60e51b815260206004820152602660248201527f53616665436173743a2076616c756520646f65736e27742066697420696e203360448201526532206269747360d01b606482015260840161079f565b6001600160a01b0383811660009081526008602052604080822054858416835291205461071f92918216911683611c12565b60006108688284612632565b6001600160a01b0383166111ad5760405162461bcd60e51b8152602060048201526024808201527f45524332303a20617070726f76652066726f6d20746865207a65726f206164646044820152637265737360e01b606482015260840161079f565b6001600160a01b03821661120e5760405162461bcd60e51b815260206004820152602260248201527f45524332303a20617070726f766520746f20746865207a65726f206164647265604482015261737360f01b606482015260840161079f565b6001600160a01b0383811660008181526001602090815260408083209487168084529482529182902085905590518481527f8c5be1e5ebec7d5bd14f71427d1e84f3dd0314c0f7b2291e5b200ac8c7c3b925910160405180910390a3505050565b6001600160a01b038381166000908152600160209081526040808320938616835292905220546000198114610f3657818110156112ee5760405162461bcd60e51b815260206004820152601d60248201527f45524332303a20696e73756666696369656e7420616c6c6f77616e6365000000604482015260640161079f565b610f36848484840361114b565b6001600160a01b03831661135f5760405162461bcd60e51b815260206004820152602560248201527f45524332303a207472616e736665722066726f6d20746865207a65726f206164604482015264647265737360d81b606482015260840161079f565b6001600160a01b0382166113c15760405162461bcd60e51b815260206004820152602360248201527f45524332303a207472616e7366657220746f20746865207a65726f206164647260448201526265737360e81b606482015260840161079f565b6113cc838383611bc1565b6001600160a01b038316600090815260208190526040902054818110156114445760405162461bcd60e51b815260206004820152602660248201527f45524332303a207472616e7366657220616d6f756e7420657863656564732062604482015265616c616e636560d01b606482015260840161079f565b6001600160a01b0380851660009081526020819052604080822085850390559185168152908120805484929061147b90849061261a565b92505081905550826001600160a01b0316846001600160a01b03167fddf252ad1be2c89b69c2b068fc378daa952ba7f163c4a11628f55a4df523b3ef846040516114c791815260200190565b60405180910390a3610f36848484611c07565b6114e482826109d2565b6107b2576114fc816001600160a01b03166014611d4f565b611507836020611d4f565b60405160200161151892919061265f565b60408051601f198184030181529082905262461bcd60e51b825261079f9160040161237d565b61154882826109d2565b6107b25760008281526006602090815260408083206001600160a01b03851684529091529020805460ff191660011790556115803390565b6001600160a01b0316816001600160a01b0316837f2f8788117e7eff1d82e926ec794901d17c78024a50270940304540a733656f0d60405160405180910390a45050565b6000306001600160a01b037f00000000000000000000000000000000000000000000000000000000000000001614801561161d57507f000000000000000000000000000000000000000000000000000000000000000046145b1561164757507f000000000000000000000000000000000000000000000000000000000000000090565b50604080517f00000000000000000000000000000000000000000000000000000000000000006020808301919091527f0000000000000000000000000000000000000000000000000000000000000000828401527f000000000000000000000000000000000000000000000000000000000000000060608301524660808301523060a0808401919091528351808403909101815260c0909201909252805191012090565b6116f582826109d2565b156107b25760008281526006602090815260408083206001600160a01b0385168085529252808320805460ff1916905551339285917ff6391f5c32d9c69d2a47ea670b442974b53935d1edc7fd64eb21e047a839171b9190a45050565b8154600090815b818110156117b657600061176d8284611eeb565b90508486828154811061178257611782612649565b60009182526020909120015463ffffffff1611156117a2578092506117b0565b6117ad81600161261a565b91505b50611759565b81156117fa57846117c8600184612632565b815481106117d8576117d8612649565b60009182526020909120015464010000000090046001600160e01b03166117fd565b60005b6001600160e01b031695945050505050565b60055460ff166118585760405162461bcd60e51b815260206004820152601460248201527314185d5cd8589b194e881b9bdd081c185d5cd95960621b604482015260640161079f565b6005805460ff191690557f5db9ee0a495bf2e6ff9c91a7834c1ba4fdd244a5e8aa4e537bd38aeae4b073aa335b6040516001600160a01b03909116815260200160405180910390a1565b6107b28282610eac565b6107b28282611f06565b6001600160a01b038281166000818152600860208181526040808420805485845282862054949093528787166001600160a01b03198416811790915590519190951694919391928592917f3134e8a2e6d97e929a7e54011ea5485d7d196dd5f0ba4d4ef95803e8e3fc257f9190a4610f36828483611c12565b60055460ff16156119755760405162461bcd60e51b815260206004820152601060248201526f14185d5cd8589b194e881c185d5cd95960821b604482015260640161079f565b6005805460ff191660011790557f62e78cea01bee320cd4e420270b5ea74000d11b0c9f74754ebdbfc544b05a2586118853390565b60006106256119b76115c4565b8360405161190160f01b6020820152602281018390526042810182905260009060620160405160208183030381529060405280519060200120905092915050565b6000806000611a0987878787611f1e565b91509150611a168161200b565b5095945050505050565b6001600160a01b03811660009081526007602052604090208054600181018255905b50919050565b825460009081908015611a935785611a61600183612632565b81548110611a7157611a71612649565b60009182526020909120015464010000000090046001600160e01b0316611a96565b60005b6001600160e01b03169250611aaf83858763ffffffff16565b9150600081118015611aed57504386611ac9600184612632565b81548110611ad957611ad9612649565b60009182526020909120015463ffffffff16145b15611b4d57611afb8261103b565b86611b07600184612632565b81548110611b1757611b17612649565b9060005260206000200160000160046101000a8154816001600160e01b0302191690836001600160e01b03160217905550611bb8565b856040518060400160405280611b62436110a8565b63ffffffff168152602001611b768561103b565b6001600160e01b0390811690915282546001810184556000938452602093849020835194909301519091166401000000000263ffffffff909316929092179101555b50935093915050565b60055460ff161561071f5760405162461bcd60e51b815260206004820152601060248201526f14185d5cd8589b194e881c185d5cd95960821b604482015260640161079f565b61071f83838361110d565b816001600160a01b0316836001600160a01b031614158015611c345750600081115b1561071f576001600160a01b03831615611cc2576001600160a01b03831660009081526009602052604081208190611c6f9061113f85611a48565b91509150846001600160a01b03167fdec2bacdd2f05b59de34da9b523dff8be42e5e38e818c82fdb0bae774387a7248383604051611cb7929190918252602082015260400190565b60405180910390a250505b6001600160a01b0382161561071f576001600160a01b03821660009081526009602052604081208190611cf89061102f85611a48565b91509150836001600160a01b03167fdec2bacdd2f05b59de34da9b523dff8be42e5e38e818c82fdb0bae774387a7248383604051611d40929190918252602082015260400190565b60405180910390a25050505050565b60606000611d5e8360026126d4565b611d6990600261261a565b67ffffffffffffffff811115611d8157611d816126f3565b6040519080825280601f01601f191660200182016040528015611dab576020820181803683370190505b509050600360fc1b81600081518110611dc657611dc6612649565b60200101906001600160f81b031916908160001a905350600f60fb1b81600181518110611df557611df5612649565b60200101906001600160f81b031916908160001a9053506000611e198460026126d4565b611e2490600161261a565b90505b6001811115611e9c576f181899199a1a9b1b9c1cb0b131b232b360811b85600f1660108110611e5857611e58612649565b1a60f81b828281518110611e6e57611e6e612649565b60200101906001600160f81b031916908160001a90535060049490941c93611e9581612709565b9050611e27565b5083156108685760405162461bcd60e51b815260206004820181905260248201527f537472696e67733a20686578206c656e67746820696e73756666696369656e74604482015260640161079f565b6000611efa6002848418612720565b6108689084841661261a565b611f1082826121c6565b610f36600a61113f83611a48565b6000807f7fffffffffffffffffffffffffffffff5d576e7357a4501ddfe92f46681b20a0831115611f555750600090506003612002565b8460ff16601b14158015611f6d57508460ff16601c14155b15611f7e5750600090506004612002565b6040805160008082526020820180845289905260ff881692820192909252606081018690526080810185905260019060a0016020604051602081039080840390855afa158015611fd2573d6000803e3d6000fd5b5050604051601f1901519150506001600160a01b038116611ffb57600060019250925050612002565b9150600090505b94509492505050565b600081600481111561201f5761201f612742565b14156120285750565b600181600481111561203c5761203c612742565b141561208a5760405162461bcd60e51b815260206004820152601860248201527f45434453413a20696e76616c6964207369676e61747572650000000000000000604482015260640161079f565b600281600481111561209e5761209e612742565b14156120ec5760405162461bcd60e51b815260206004820152601f60248201527f45434453413a20696e76616c6964207369676e6174757265206c656e67746800604482015260640161079f565b600381600481111561210057612100612742565b14156121595760405162461bcd60e51b815260206004820152602260248201527f45434453413a20696e76616c6964207369676e6174757265202773272076616c604482015261756560f01b606482015260840161079f565b600481600481111561216d5761216d612742565b14156108a25760405162461bcd60e51b815260206004820152602260248201527f45434453413a20696e76616c6964207369676e6174757265202776272076616c604482015261756560f01b606482015260840161079f565b6001600160a01b0382166122265760405162461bcd60e51b815260206004820152602160248201527f45524332303a206275726e2066726f6d20746865207a65726f206164647265736044820152607360f81b606482015260840161079f565b61223282600083611bc1565b6001600160a01b038216600090815260208190526040902054818110156122a65760405162461bcd60e51b815260206004820152602260248201527f45524332303a206275726e20616d6f756e7420657863656564732062616c616e604482015261636560f01b606482015260840161079f565b6001600160a01b03831660009081526020819052604081208383039055600280548492906122d5908490612632565b90915550506040518281526000906001600160a01b038516907fddf252ad1be2c89b69c2b068fc378daa952ba7f163c4a11628f55a4df523b3ef9060200160405180910390a361071f83600084611c07565b60006020828403121561233957600080fd5b81356001600160e01b03198116811461086857600080fd5b60005b8381101561236c578181015183820152602001612354565b83811115610f365750506000910152565b602081526000825180602084015261239c816040850160208701612351565b601f01601f19169190910160400192915050565b80356001600160a01b03811681146123c757600080fd5b919050565b600080604083850312156123df57600080fd5b6123e8836123b0565b946020939093013593505050565b60008060006060848603121561240b57600080fd5b612414846123b0565b9250612422602085016123b0565b9150604084013590509250925092565b60006020828403121561244457600080fd5b5035919050565b6000806040838503121561245e57600080fd5b8235915061246e602084016123b0565b90509250929050565b60006020828403121561248957600080fd5b610868826123b0565b803560ff811681146123c757600080fd5b60008060008060008060c087890312156124bc57600080fd5b6124c5876123b0565b955060208701359450604087013593506124e160608801612492565b92506080870135915060a087013590509295509295509295565b600080600080600080600060e0888a03121561251657600080fd5b61251f886123b0565b965061252d602089016123b0565b9550604088013594506060880135935061254960808901612492565b925060a0880135915060c0880135905092959891949750929550565b6000806040838503121561257857600080fd5b612581836123b0565b915061246e602084016123b0565b600080604083850312156125a257600080fd5b6125ab836123b0565b9150602083013563ffffffff811681146125c457600080fd5b809150509250929050565b600181811c908216806125e357607f821691505b60208210811415611a4257634e487b7160e01b600052602260045260246000fd5b634e487b7160e01b600052601160045260246000fd5b6000821982111561262d5761262d612604565b500190565b60008282101561264457612644612604565b500390565b634e487b7160e01b600052603260045260246000fd5b7f416363657373436f6e74726f6c3a206163636f756e7420000000000000000000815260008351612697816017850160208801612351565b7001034b99036b4b9b9b4b733903937b6329607d1b60179184019182015283516126c8816028840160208801612351565b01602801949350505050565b60008160001904831182151516156126ee576126ee612604565b500290565b634e487b7160e01b600052604160045260246000fd5b60008161271857612718612604565b506000190190565b60008261273d57634e487b7160e01b600052601260045260246000fd5b500490565b634e487b7160e01b600052602160045260246000fdfea2646970667358221220c029cfca2de610e89e408051dc45a961c32bd92d1a9ba3ca3759d25838ba0cb564736f6c634300080b0033dec2bacdd2f05b59de34da9b523dff8be42e5e38e818c82fdb0bae774387a724",
  "immutableReferences": {
    "1951": [
      {
        "length": 32,
        "start": 3314
      }
    ],
    "4386": [
      {
        "length": 32,
        "start": 5669
      }
    ],
    "4388": [
      {
        "length": 32,
        "start": 5627
      }
    ],
    "4390": [
      {
        "length": 32,
        "start": 5585
      }
    ],
    "4392": [
      {
        "length": 32,
        "start": 5752
      }
    ],
    "4394": [
      {
        "length": 32,
        "start": 5789
      }
    ],
    "4396": [
      {
        "length": 32,
        "start": 5710
      }
    ]
  },
  "source": "// SPDX-License-Identifier: MIT\npragma solidity ^0.8.11;\n\nimport \"@openzeppelin/contracts/token/ERC20/ERC20.sol\";\nimport \"@openzeppelin/contracts/token/ERC20/extensions/ERC20Burnable.sol\";\nimport \"@openzeppelin/contracts/security/Pausable.sol\";\nimport \"@openzeppelin/contracts/access/AccessControl.sol\";\nimport \"@openzeppelin/contracts/token/ERC20/extensions/draft-ERC20Permit.sol\";\nimport \"@openzeppelin/contracts/token/ERC20/extensions/ERC20Votes.sol\";\n\n/**\n * @title PhlipDAO\n * @author Riley Stephens\n * @notice This is an ERC20 token will role-base access control that implements features for external governance.\n */\ncontract PhlipDAO is\n    ERC20,\n    ERC20Burnable,\n    Pausable,\n    AccessControl,\n    ERC20Permit,\n    ERC20Votes\n{\n    bytes32 public constant PAUSER_ROLE = keccak256(\"PAUSER_ROLE\");\n    bytes32 public constant MINTER_ROLE = keccak256(\"MINTER_ROLE\");\n    bytes32 public constant BURNER_ROLE = keccak256(\"BURNER_ROLE\");\n\n    /**\n     * @notice Create contract with initial supply of 5,479,500,000 tokens\n     * @dev Only DEFAULT_ADMIN_ROLE is assigned because other roles can be assigned later by admin\n     */\n    constructor(string memory _name, string memory _symbol)\n        ERC20(_name, _symbol)\n        ERC20Permit(_name)\n    {\n        _grantRole(DEFAULT_ADMIN_ROLE, msg.sender);\n        _mint(msg.sender, 5479500000 * 10**decimals());\n    }\n\n    /**\n     * @notice Allow address with PAUSER role to pause token transfers\n     */\n    function pause() public onlyRole(PAUSER_ROLE) {\n        _pause();\n    }\n\n    /**\n     * @notice Allow address with PAUSER role to unpause token transfers\n     */\n    function unpause() public onlyRole(PAUSER_ROLE) {\n        _unpause();\n    }\n\n    /**\n     * @notice Allow address with MINTER role to mint tokens to a given address\n     * @param to The address to mint tokens to\n     * @param amount The amount of tokens to mint\n     */\n    function mint(address to, uint256 amount) public onlyRole(MINTER_ROLE) {\n        _mint(to, amount);\n    }\n\n    /**\n     * @notice Allow address with MINTER role to mint tokens to a given address\n     * @param account The address holding tokens to burn\n     * @param amount The amount of tokens to burn\n     */\n    function burn(address account, uint256 amount)\n        public\n        onlyRole(BURNER_ROLE)\n    {\n        _burn(account, amount);\n    }\n\n    /**\n     * @notice Function called before tokens are transferred\n     * @dev Override to make sure that token tranfers have not been paused\n     * @param from The address tokens will be transferred from\n     * @param to The address tokens will be transferred  to\n     * @param amount The amount of tokens to transfer\n     */\n    function _beforeTokenTransfer(\n        address from,\n        address to,\n        uint256 amount\n    ) internal override whenNotPaused {\n        super._beforeTokenTransfer(from, to, amount);\n    }\n\n    /**\n     * @notice Function called after tokens have been transferred\n     * @dev Override of ERC20._afterTokenTransfer and ERC20Votes._afterTokenTransfer\n     * @param from The address tokens were transferred from\n     * @param to The address tokens were transferred  to\n     * @param amount The amount of tokens transferred\n     */\n    function _afterTokenTransfer(\n        address from,\n        address to,\n        uint256 amount\n    ) internal override(ERC20, ERC20Votes) {\n        super._afterTokenTransfer(from, to, amount);\n    }\n\n    /**\n     * @notice Internal mint function\n     * @dev Override of ERC20._mint and ERC20Votes._mint\n     * @param to The address to mint tokens to\n     * @param amount The amount of tokens to mint\n     */\n    function _mint(address to, uint256 amount)\n        internal\n        override(ERC20, ERC20Votes)\n    {\n        super._mint(to, amount);\n    }\n\n    /**\n     * @notice Internal token burn function\n     * @dev Override of ERC20._burn and ERC20Votes._burn\n     * @param account The address to burn tokens from\n     * @param amount The amount of tokens to burn\n     */\n    function _burn(address account, uint256 amount)\n        internal\n        override(ERC20, ERC20Votes)\n    {\n        super._burn(account, amount);\n    }\n}\n",
  "sourcePath": "/Users/rileystephens/Development/Accel/phlip.io/phlip-contracts/contracts/tokens/PhlipDAO.sol",
  "compiler": {
    "name": "solc",
    "version": "0.8.11+commit.d7f03943.Emscripten.clang"
  },
  "schemaVersion": "3.4.4",
  "updatedAt": "2022-03-08T18:12:57.751Z",
  "devdoc": {
    "author": "Riley Stephens",
    "kind": "dev",
    "methods": {
      "DOMAIN_SEPARATOR()": {
        "details": "See {IERC20Permit-DOMAIN_SEPARATOR}."
      },
      "allowance(address,address)": {
        "details": "See {IERC20-allowance}."
      },
      "approve(address,uint256)": {
        "details": "See {IERC20-approve}. NOTE: If `amount` is the maximum `uint256`, the allowance is not updated on `transferFrom`. This is semantically equivalent to an infinite approval. Requirements: - `spender` cannot be the zero address."
      },
      "balanceOf(address)": {
        "details": "See {IERC20-balanceOf}."
      },
      "burn(address,uint256)": {
        "params": {
          "account": "The address holding tokens to burn",
          "amount": "The amount of tokens to burn"
        }
      },
      "burn(uint256)": {
        "details": "Destroys `amount` tokens from the caller. See {ERC20-_burn}."
      },
      "burnFrom(address,uint256)": {
        "details": "Destroys `amount` tokens from `account`, deducting from the caller's allowance. See {ERC20-_burn} and {ERC20-allowance}. Requirements: - the caller must have allowance for ``accounts``'s tokens of at least `amount`."
      },
      "checkpoints(address,uint32)": {
        "details": "Get the `pos`-th checkpoint for `account`."
      },
      "constructor": {
        "details": "Only DEFAULT_ADMIN_ROLE is assigned because other roles can be assigned later by admin"
      },
      "decimals()": {
        "details": "Returns the number of decimals used to get its user representation. For example, if `decimals` equals `2`, a balance of `505` tokens should be displayed to a user as `5.05` (`505 / 10 ** 2`). Tokens usually opt for a value of 18, imitating the relationship between Ether and Wei. This is the value {ERC20} uses, unless this function is overridden; NOTE: This information is only used for _display_ purposes: it in no way affects any of the arithmetic of the contract, including {IERC20-balanceOf} and {IERC20-transfer}."
      },
      "decreaseAllowance(address,uint256)": {
        "details": "Atomically decreases the allowance granted to `spender` by the caller. This is an alternative to {approve} that can be used as a mitigation for problems described in {IERC20-approve}. Emits an {Approval} event indicating the updated allowance. Requirements: - `spender` cannot be the zero address. - `spender` must have allowance for the caller of at least `subtractedValue`."
      },
      "delegate(address)": {
        "details": "Delegate votes from the sender to `delegatee`."
      },
      "delegateBySig(address,uint256,uint256,uint8,bytes32,bytes32)": {
        "details": "Delegates votes from signer to `delegatee`"
      },
      "delegates(address)": {
        "details": "Get the address `account` is currently delegating to."
      },
      "getPastTotalSupply(uint256)": {
        "details": "Retrieve the `totalSupply` at the end of `blockNumber`. Note, this value is the sum of all balances. It is but NOT the sum of all the delegated votes! Requirements: - `blockNumber` must have been already mined"
      },
      "getPastVotes(address,uint256)": {
        "details": "Retrieve the number of votes for `account` at the end of `blockNumber`. Requirements: - `blockNumber` must have been already mined"
      },
      "getRoleAdmin(bytes32)": {
        "details": "Returns the admin role that controls `role`. See {grantRole} and {revokeRole}. To change a role's admin, use {_setRoleAdmin}."
      },
      "getVotes(address)": {
        "details": "Gets the current votes balance for `account`"
      },
      "grantRole(bytes32,address)": {
        "details": "Grants `role` to `account`. If `account` had not been already granted `role`, emits a {RoleGranted} event. Requirements: - the caller must have ``role``'s admin role."
      },
      "hasRole(bytes32,address)": {
        "details": "Returns `true` if `account` has been granted `role`."
      },
      "increaseAllowance(address,uint256)": {
        "details": "Atomically increases the allowance granted to `spender` by the caller. This is an alternative to {approve} that can be used as a mitigation for problems described in {IERC20-approve}. Emits an {Approval} event indicating the updated allowance. Requirements: - `spender` cannot be the zero address."
      },
      "mint(address,uint256)": {
        "params": {
          "amount": "The amount of tokens to mint",
          "to": "The address to mint tokens to"
        }
      },
      "name()": {
        "details": "Returns the name of the token."
      },
      "nonces(address)": {
        "details": "See {IERC20Permit-nonces}."
      },
      "numCheckpoints(address)": {
        "details": "Get number of checkpoints for `account`."
      },
      "paused()": {
        "details": "Returns true if the contract is paused, and false otherwise."
      },
      "permit(address,address,uint256,uint256,uint8,bytes32,bytes32)": {
        "details": "See {IERC20Permit-permit}."
      },
      "renounceRole(bytes32,address)": {
        "details": "Revokes `role` from the calling account. Roles are often managed via {grantRole} and {revokeRole}: this function's purpose is to provide a mechanism for accounts to lose their privileges if they are compromised (such as when a trusted device is misplaced). If the calling account had been revoked `role`, emits a {RoleRevoked} event. Requirements: - the caller must be `account`."
      },
      "revokeRole(bytes32,address)": {
        "details": "Revokes `role` from `account`. If `account` had been granted `role`, emits a {RoleRevoked} event. Requirements: - the caller must have ``role``'s admin role."
      },
      "supportsInterface(bytes4)": {
        "details": "See {IERC165-supportsInterface}."
      },
      "symbol()": {
        "details": "Returns the symbol of the token, usually a shorter version of the name."
      },
      "totalSupply()": {
        "details": "See {IERC20-totalSupply}."
      },
      "transfer(address,uint256)": {
        "details": "See {IERC20-transfer}. Requirements: - `to` cannot be the zero address. - the caller must have a balance of at least `amount`."
      },
      "transferFrom(address,address,uint256)": {
        "details": "See {IERC20-transferFrom}. Emits an {Approval} event indicating the updated allowance. This is not required by the EIP. See the note at the beginning of {ERC20}. NOTE: Does not update the allowance if the current allowance is the maximum `uint256`. Requirements: - `from` and `to` cannot be the zero address. - `from` must have a balance of at least `amount`. - the caller must have allowance for ``from``'s tokens of at least `amount`."
      }
    },
    "title": "PhlipDAO",
    "version": 1
  },
  "userdoc": {
    "kind": "user",
    "methods": {
      "burn(address,uint256)": {
        "notice": "Allow address with MINTER role to mint tokens to a given address"
      },
      "constructor": {
        "notice": "Create contract with initial supply of 5,479,500,000 tokens"
      },
      "mint(address,uint256)": {
        "notice": "Allow address with MINTER role to mint tokens to a given address"
      },
      "pause()": {
        "notice": "Allow address with PAUSER role to pause token transfers"
      },
      "unpause()": {
        "notice": "Allow address with PAUSER role to unpause token transfers"
      }
    },
    "notice": "This is an ERC20 token will role-base access control that implements features for external governance.",
    "version": 1
  }
}