{
  "contractName": "UpDownVote",
  "abi": [
    {
      "inputs": [
        {
          "internalType": "uint256",
          "name": "_ballotID",
          "type": "uint256"
        }
      ],
      "name": "ballotIsRegistered",
      "outputs": [
        {
          "internalType": "bool",
          "name": "",
          "type": "bool"
        }
      ],
      "stateMutability": "view",
      "type": "function"
    },
    {
      "inputs": [
        {
          "internalType": "uint256",
          "name": "_ballotID",
          "type": "uint256"
        }
      ],
      "name": "upVotesFor",
      "outputs": [
        {
          "internalType": "uint256",
          "name": "",
          "type": "uint256"
        }
      ],
      "stateMutability": "view",
      "type": "function"
    },
    {
      "inputs": [
        {
          "internalType": "uint256",
          "name": "_ballotID",
          "type": "uint256"
        }
      ],
      "name": "downVotesFor",
      "outputs": [
        {
          "internalType": "uint256",
          "name": "",
          "type": "uint256"
        }
      ],
      "stateMutability": "view",
      "type": "function"
    }
  ],
  "bytecode": "0x608060405234801561001057600080fd5b5061010f806100206000396000f3fe6080604052348015600f57600080fd5b5060043610603c5760003560e01c80630a6b570f146041578063a1829d06146071578063fce76f861460a0575b600080fd5b605e604c36600460c1565b60009081526001602052604090205490565b6040519081526020015b60405180910390f35b6091607c36600460c1565b60009081526020819052604090205460ff1690565b60405190151581526020016068565b605e60ab36600460c1565b6000908152600160208190526040909120015490565b60006020828403121560d257600080fd5b503591905056fea2646970667358221220930ac857c6e299c27d0f3aca7d47da2a191ebf75a840dc8d18cc89b2fec6cebc64736f6c634300080b0033",
  "immutableReferences": {},
  "source": "// SPDX-License-Identifier: MIT\npragma solidity ^0.8.11;\n\ncontract UpDownVote {\n    /**\n     * A Ballot tracks the number of up and down votes and how each\n     * address voted. Tracking addresses prevents double voting.\n     */\n    struct Ballot {\n        uint256 upVoteCount;\n        uint256 downVoteCount;\n        mapping(address => bool) upVoters;\n        mapping(address => bool) downVoters;\n    }\n\n    mapping(uint256 => bool) internal _registeredBallots;\n    mapping(uint256 => Ballot) internal _ballots;\n\n    /**\n     * @notice Returns true if _ballotID is registered, false if not.\n     * @param _ballotID The ID of a ballot\n     */\n    function ballotIsRegistered(uint256 _ballotID)\n        public\n        view\n        virtual\n        returns (bool)\n    {\n        return _registeredBallots[_ballotID];\n    }\n\n    /**\n     * @notice Returns the number of up votes for a given ballot.\n     * @param _ballotID The ID of a ballot\n     */\n    function upVotesFor(uint256 _ballotID)\n        public\n        view\n        virtual\n        returns (uint256)\n    {\n        return _ballots[_ballotID].upVoteCount;\n    }\n\n    /**\n     * @notice Returns the number of down votes for a given ballot.\n     * @param _ballotID The ID of a ballot\n     */\n    function downVotesFor(uint256 _ballotID)\n        public\n        view\n        virtual\n        returns (uint256)\n    {\n        return _ballots[_ballotID].downVoteCount;\n    }\n\n    /**\n     * @notice Requires _ballotID to be registered.\n     * @param _ballotID The ID of a ballot\n     */\n    modifier ballotExists(uint256 _ballotID) {\n        require(\n            _registeredBallots[_ballotID],\n            \"UpDownVote: Ballot does not exists\"\n        );\n        _;\n    }\n\n    /**\n     * @notice Count msg.sender's upvote for a token\n     * @dev Reverts if msg.send has already voted on token\n     * @param _newBallotID The ID of the token to upvote\n     */\n    function _createBallot(uint256 _newBallotID) internal virtual {\n        require(\n            !_registeredBallots[_newBallotID],\n            \"UpDownVote: Ballot already exists\"\n        );\n        _registeredBallots[_newBallotID] = true;\n    }\n\n    /**\n     * @notice Count msg.sender's upvote for a token\n     * @dev Reverts if msg.send has already voted on token\n     * @param _ballotID The ID of the token to upvote\n     */\n    function _castUpVote(uint256 _ballotID)\n        internal\n        virtual\n        ballotExists(_ballotID)\n    {\n        Ballot storage bal = _ballots[_ballotID];\n        require(\n            !bal.upVoters[msg.sender],\n            \"UpDownVote: ACCOUNT_ALREADY_UPVOTED\"\n        );\n        require(\n            !bal.downVoters[msg.sender],\n            \"UpDownVotes: ACCOUNT_ALREADY_DOWNVOTED\"\n        );\n        bal.upVoters[msg.sender] = true;\n        bal.upVoteCount += 1;\n    }\n\n    /**\n     * @notice Count msg.sender's downvote for a token\n     * @dev Reverts if msg.send has already voted on token\n     * @param _ballotID The ID of the token to downvote\n     */\n    function _castDownVote(uint256 _ballotID)\n        internal\n        virtual\n        ballotExists(_ballotID)\n    {\n        Ballot storage bal = _ballots[_ballotID];\n        require(\n            !bal.upVoters[msg.sender],\n            \"UpDownVote: ACCOUNT_ALREADY_UPVOTED\"\n        );\n        require(\n            !bal.downVoters[msg.sender],\n            \"UpDownVotes: ACCOUNT_ALREADY_DOWNVOTED\"\n        );\n        bal.downVoters[msg.sender] = true;\n        bal.downVoteCount += 1;\n    }\n}\n",
  "sourcePath": "/Users/rileystephens/Development/Accel/phlip.io/phlip-contracts/contracts/extensions/UpDownVote.sol",
  "compiler": {
    "name": "solc",
    "version": "0.8.11+commit.d7f03943.Emscripten.clang"
  },
  "schemaVersion": "3.4.4",
  "updatedAt": "2022-03-08T18:12:57.734Z",
  "devdoc": {
    "kind": "dev",
    "methods": {
      "ballotIsRegistered(uint256)": {
        "params": {
          "_ballotID": "The ID of a ballot"
        }
      },
      "downVotesFor(uint256)": {
        "params": {
          "_ballotID": "The ID of a ballot"
        }
      },
      "upVotesFor(uint256)": {
        "params": {
          "_ballotID": "The ID of a ballot"
        }
      }
    },
    "version": 1
  },
  "userdoc": {
    "kind": "user",
    "methods": {
      "ballotIsRegistered(uint256)": {
        "notice": "Returns true if _ballotID is registered, false if not."
      },
      "downVotesFor(uint256)": {
        "notice": "Returns the number of down votes for a given ballot."
      },
      "upVotesFor(uint256)": {
        "notice": "Returns the number of up votes for a given ballot."
      }
    },
    "version": 1
  }
}