{
  "contractName": "VestingCapsule",
  "abi": [
    {
      "anonymous": false,
      "inputs": [
        {
          "indexed": true,
          "internalType": "bytes32",
          "name": "role",
          "type": "bytes32"
        },
        {
          "indexed": true,
          "internalType": "bytes32",
          "name": "previousAdminRole",
          "type": "bytes32"
        },
        {
          "indexed": true,
          "internalType": "bytes32",
          "name": "newAdminRole",
          "type": "bytes32"
        }
      ],
      "name": "RoleAdminChanged",
      "type": "event"
    },
    {
      "anonymous": false,
      "inputs": [
        {
          "indexed": true,
          "internalType": "bytes32",
          "name": "role",
          "type": "bytes32"
        },
        {
          "indexed": true,
          "internalType": "address",
          "name": "account",
          "type": "address"
        },
        {
          "indexed": true,
          "internalType": "address",
          "name": "sender",
          "type": "address"
        }
      ],
      "name": "RoleGranted",
      "type": "event"
    },
    {
      "anonymous": false,
      "inputs": [
        {
          "indexed": true,
          "internalType": "bytes32",
          "name": "role",
          "type": "bytes32"
        },
        {
          "indexed": true,
          "internalType": "address",
          "name": "account",
          "type": "address"
        },
        {
          "indexed": true,
          "internalType": "address",
          "name": "sender",
          "type": "address"
        }
      ],
      "name": "RoleRevoked",
      "type": "event"
    },
    {
      "inputs": [],
      "name": "DEFAULT_ADMIN_ROLE",
      "outputs": [
        {
          "internalType": "bytes32",
          "name": "",
          "type": "bytes32"
        }
      ],
      "stateMutability": "view",
      "type": "function"
    },
    {
      "inputs": [],
      "name": "ENROLLER_ROLE",
      "outputs": [
        {
          "internalType": "bytes32",
          "name": "",
          "type": "bytes32"
        }
      ],
      "stateMutability": "view",
      "type": "function"
    },
    {
      "inputs": [],
      "name": "SWITCHER_ROLE",
      "outputs": [
        {
          "internalType": "bytes32",
          "name": "",
          "type": "bytes32"
        }
      ],
      "stateMutability": "view",
      "type": "function"
    },
    {
      "inputs": [],
      "name": "TREASURER_ROLE",
      "outputs": [
        {
          "internalType": "bytes32",
          "name": "",
          "type": "bytes32"
        }
      ],
      "stateMutability": "view",
      "type": "function"
    },
    {
      "inputs": [
        {
          "internalType": "bytes32",
          "name": "role",
          "type": "bytes32"
        }
      ],
      "name": "getRoleAdmin",
      "outputs": [
        {
          "internalType": "bytes32",
          "name": "",
          "type": "bytes32"
        }
      ],
      "stateMutability": "view",
      "type": "function"
    },
    {
      "inputs": [
        {
          "internalType": "bytes32",
          "name": "role",
          "type": "bytes32"
        },
        {
          "internalType": "address",
          "name": "account",
          "type": "address"
        }
      ],
      "name": "grantRole",
      "outputs": [],
      "stateMutability": "nonpayable",
      "type": "function"
    },
    {
      "inputs": [
        {
          "internalType": "bytes32",
          "name": "role",
          "type": "bytes32"
        },
        {
          "internalType": "address",
          "name": "account",
          "type": "address"
        }
      ],
      "name": "hasRole",
      "outputs": [
        {
          "internalType": "bool",
          "name": "",
          "type": "bool"
        }
      ],
      "stateMutability": "view",
      "type": "function"
    },
    {
      "inputs": [
        {
          "internalType": "bytes32",
          "name": "role",
          "type": "bytes32"
        },
        {
          "internalType": "address",
          "name": "account",
          "type": "address"
        }
      ],
      "name": "renounceRole",
      "outputs": [],
      "stateMutability": "nonpayable",
      "type": "function"
    },
    {
      "inputs": [
        {
          "internalType": "bytes32",
          "name": "role",
          "type": "bytes32"
        },
        {
          "internalType": "address",
          "name": "account",
          "type": "address"
        }
      ],
      "name": "revokeRole",
      "outputs": [],
      "stateMutability": "nonpayable",
      "type": "function"
    },
    {
      "inputs": [
        {
          "internalType": "bytes4",
          "name": "interfaceId",
          "type": "bytes4"
        }
      ],
      "name": "supportsInterface",
      "outputs": [
        {
          "internalType": "bool",
          "name": "",
          "type": "bool"
        }
      ],
      "stateMutability": "view",
      "type": "function"
    },
    {
      "inputs": [
        {
          "internalType": "address",
          "name": "_address",
          "type": "address"
        }
      ],
      "name": "enrollBeneficiary",
      "outputs": [],
      "stateMutability": "nonpayable",
      "type": "function"
    },
    {
      "inputs": [
        {
          "internalType": "address",
          "name": "_address",
          "type": "address"
        }
      ],
      "name": "transferBeneficiary",
      "outputs": [],
      "stateMutability": "nonpayable",
      "type": "function"
    }
  ],
  "bytecode": "0x608060405234801561001057600080fd5b506108d4806100206000396000f3fe608060405234801561001057600080fd5b50600436106100b45760003560e01c806352bdf9911161007157806352bdf9911461017457806391d148541461019b578063a217fddf146101ae578063b3feaf0d146101b6578063d547741f146101c9578063f0a3a97c146101dc57600080fd5b806301ffc9a7146100b957806314bbe21c146100e1578063248a9ca3146100f65780632f2ff15d1461012757806336568abe1461013a57806351b169fd1461014d575b600080fd5b6100cc6100c7366004610690565b610203565b60405190151581526020015b60405180910390f35b6100f46100ef3660046106d6565b61023a565b005b6101196101043660046106f1565b60009081526020819052604090206001015490565b6040519081526020016100d8565b6100f461013536600461070a565b61027c565b6100f461014836600461070a565b6102a7565b6101197f462bd302974b44ee0aa0f437807615ac99fec0706b31a95596f2180b4d3f999681565b6101197fe25884474344f1801dfe782f0324ae3ca430d26218e1ec0c99c86638e78f890181565b6100cc6101a936600461070a565b610326565b610119600081565b6100f46101c43660046106d6565b61034f565b6100f46101d736600461070a565b61037a565b6101197f3496e2e73c4d42b75d702e60d9e48102720b8691234415963a5a857b86425d0781565b60006001600160e01b03198216637965db0b60e01b148061023457506301ffc9a760e01b6001600160e01b03198316145b92915050565b7fe25884474344f1801dfe782f0324ae3ca430d26218e1ec0c99c86638e78f890161026581336103a0565b6001600160a01b03821661027857600080fd5b5050565b60008281526020819052604090206001015461029881336103a0565b6102a28383610404565b505050565b6001600160a01b038116331461031c5760405162461bcd60e51b815260206004820152602f60248201527f416363657373436f6e74726f6c3a2063616e206f6e6c792072656e6f756e636560448201526e103937b632b9903337b91039b2b63360891b60648201526084015b60405180910390fd5b6102788282610488565b6000918252602082815260408084206001600160a01b0393909316845291905290205460ff1690565b7f462bd302974b44ee0aa0f437807615ac99fec0706b31a95596f2180b4d3f999661026581336103a0565b60008281526020819052604090206001015461039681336103a0565b6102a28383610488565b6103aa8282610326565b610278576103c2816001600160a01b031660146104ed565b6103cd8360206104ed565b6040516020016103de929190610766565b60408051601f198184030181529082905262461bcd60e51b8252610313916004016107db565b61040e8282610326565b610278576000828152602081815260408083206001600160a01b03851684529091529020805460ff191660011790556104443390565b6001600160a01b0316816001600160a01b0316837f2f8788117e7eff1d82e926ec794901d17c78024a50270940304540a733656f0d60405160405180910390a45050565b6104928282610326565b15610278576000828152602081815260408083206001600160a01b0385168085529252808320805460ff1916905551339285917ff6391f5c32d9c69d2a47ea670b442974b53935d1edc7fd64eb21e047a839171b9190a45050565b606060006104fc836002610824565b610507906002610843565b67ffffffffffffffff81111561051f5761051f61085b565b6040519080825280601f01601f191660200182016040528015610549576020820181803683370190505b509050600360fc1b8160008151811061056457610564610871565b60200101906001600160f81b031916908160001a905350600f60fb1b8160018151811061059357610593610871565b60200101906001600160f81b031916908160001a90535060006105b7846002610824565b6105c2906001610843565b90505b600181111561063a576f181899199a1a9b1b9c1cb0b131b232b360811b85600f16601081106105f6576105f6610871565b1a60f81b82828151811061060c5761060c610871565b60200101906001600160f81b031916908160001a90535060049490941c9361063381610887565b90506105c5565b5083156106895760405162461bcd60e51b815260206004820181905260248201527f537472696e67733a20686578206c656e67746820696e73756666696369656e746044820152606401610313565b9392505050565b6000602082840312156106a257600080fd5b81356001600160e01b03198116811461068957600080fd5b80356001600160a01b03811681146106d157600080fd5b919050565b6000602082840312156106e857600080fd5b610689826106ba565b60006020828403121561070357600080fd5b5035919050565b6000806040838503121561071d57600080fd5b8235915061072d602084016106ba565b90509250929050565b60005b83811015610751578181015183820152602001610739565b83811115610760576000848401525b50505050565b7f416363657373436f6e74726f6c3a206163636f756e742000000000000000000081526000835161079e816017850160208801610736565b7001034b99036b4b9b9b4b733903937b6329607d1b60179184019182015283516107cf816028840160208801610736565b01602801949350505050565b60208152600082518060208401526107fa816040850160208701610736565b601f01601f19169190910160400192915050565b634e487b7160e01b600052601160045260246000fd5b600081600019048311821515161561083e5761083e61080e565b500290565b600082198211156108565761085661080e565b500190565b634e487b7160e01b600052604160045260246000fd5b634e487b7160e01b600052603260045260246000fd5b6000816108965761089661080e565b50600019019056fea264697066735822122087a4368ef749b4aa4934a8aa26783f388d25b520f3689e0ed14563289c476b1064736f6c634300080b0033",
  "immutableReferences": {},
  "source": "// SPDX-License-Identifier: MIT\npragma solidity ^0.8.11;\n\nimport \"@openzeppelin/contracts/access/AccessControl.sol\";\nimport \"@openzeppelin/contracts/utils/Context.sol\";\nimport \"@openzeppelin/contracts/utils/Counters.sol\";\nimport \"@openzeppelin/contracts/token/ERC20/IERC20.sol\";\nimport \"@openzeppelin/contracts/token/ERC20/utils/SafeERC20.sol\";\n\ncontract VestingCapsule is Context, AccessControl {\n    using SafeERC20 for IERC20;\n    using Counters for Counters.Counter;\n\n    bytes32 public constant ENROLLER_ROLE = keccak256(\"ENROLLER_ROLE\");\n    bytes32 public constant SWITCHER_ROLE = keccak256(\"SWITCHER_ROLE\");\n    bytes32 public constant TREASURER_ROLE = keccak256(\"TREASURER_ROLE\");\n\n    Counters.Counter private _beneficiaryIdCounter;\n\n    /**\n     * @notice Add address to the list of token beneficiaries.\n     * @param _address Address to the list of token beneficiaries.\n     */\n    function enrollBeneficiary(address _address)\n        public\n        onlyRole(ENROLLER_ROLE)\n    {\n        require(_address != address(0));\n    }\n\n    /**\n     * @notice Add address to the list of token beneficiaries.\n     * @param _address Address to the list of token beneficiaries.\n     */\n    function transferBeneficiary(address _address)\n        public\n        onlyRole(SWITCHER_ROLE)\n    {\n        require(_address != address(0));\n    }\n}\n",
  "sourcePath": "/Users/rileystephens/Development/Accel/phlip.io/phlip-contracts/contracts/VestingCapsule.sol",
  "compiler": {
    "name": "solc",
    "version": "0.8.11+commit.d7f03943.Emscripten.clang"
  },
  "schemaVersion": "3.4.4",
  "updatedAt": "2022-03-08T18:12:57.728Z",
  "devdoc": {
    "kind": "dev",
    "methods": {
      "enrollBeneficiary(address)": {
        "params": {
          "_address": "Address to the list of token beneficiaries."
        }
      },
      "getRoleAdmin(bytes32)": {
        "details": "Returns the admin role that controls `role`. See {grantRole} and {revokeRole}. To change a role's admin, use {_setRoleAdmin}."
      },
      "grantRole(bytes32,address)": {
        "details": "Grants `role` to `account`. If `account` had not been already granted `role`, emits a {RoleGranted} event. Requirements: - the caller must have ``role``'s admin role."
      },
      "hasRole(bytes32,address)": {
        "details": "Returns `true` if `account` has been granted `role`."
      },
      "renounceRole(bytes32,address)": {
        "details": "Revokes `role` from the calling account. Roles are often managed via {grantRole} and {revokeRole}: this function's purpose is to provide a mechanism for accounts to lose their privileges if they are compromised (such as when a trusted device is misplaced). If the calling account had been revoked `role`, emits a {RoleRevoked} event. Requirements: - the caller must be `account`."
      },
      "revokeRole(bytes32,address)": {
        "details": "Revokes `role` from `account`. If `account` had been granted `role`, emits a {RoleRevoked} event. Requirements: - the caller must have ``role``'s admin role."
      },
      "supportsInterface(bytes4)": {
        "details": "See {IERC165-supportsInterface}."
      },
      "transferBeneficiary(address)": {
        "params": {
          "_address": "Address to the list of token beneficiaries."
        }
      }
    },
    "version": 1
  },
  "userdoc": {
    "kind": "user",
    "methods": {
      "enrollBeneficiary(address)": {
        "notice": "Add address to the list of token beneficiaries."
      },
      "transferBeneficiary(address)": {
        "notice": "Add address to the list of token beneficiaries."
      }
    },
    "version": 1
  }
}