{
  "contractName": "WhiteCard",
  "abi": [
    {
      "inputs": [
        {
          "internalType": "string",
          "name": "_baseUri",
          "type": "string"
        },
        {
          "internalType": "uint256",
          "name": "_maxDownvotes",
          "type": "uint256"
        },
        {
          "internalType": "uint256",
          "name": "_maxUriChanges",
          "type": "uint256"
        },
        {
          "internalType": "uint256",
          "name": "_minDaoTokensRequired",
          "type": "uint256"
        },
        {
          "internalType": "address",
          "name": "_daoTokenAddress",
          "type": "address"
        }
      ],
      "stateMutability": "nonpayable",
      "type": "constructor"
    },
    {
      "anonymous": false,
      "inputs": [
        {
          "indexed": true,
          "internalType": "address",
          "name": "owner",
          "type": "address"
        },
        {
          "indexed": true,
          "internalType": "address",
          "name": "approved",
          "type": "address"
        },
        {
          "indexed": true,
          "internalType": "uint256",
          "name": "tokenId",
          "type": "uint256"
        }
      ],
      "name": "Approval",
      "type": "event"
    },
    {
      "anonymous": false,
      "inputs": [
        {
          "indexed": true,
          "internalType": "address",
          "name": "owner",
          "type": "address"
        },
        {
          "indexed": true,
          "internalType": "address",
          "name": "operator",
          "type": "address"
        },
        {
          "indexed": false,
          "internalType": "bool",
          "name": "approved",
          "type": "bool"
        }
      ],
      "name": "ApprovalForAll",
      "type": "event"
    },
    {
      "anonymous": false,
      "inputs": [
        {
          "indexed": false,
          "internalType": "address",
          "name": "account",
          "type": "address"
        }
      ],
      "name": "Paused",
      "type": "event"
    },
    {
      "anonymous": false,
      "inputs": [
        {
          "indexed": true,
          "internalType": "bytes32",
          "name": "role",
          "type": "bytes32"
        },
        {
          "indexed": true,
          "internalType": "bytes32",
          "name": "previousAdminRole",
          "type": "bytes32"
        },
        {
          "indexed": true,
          "internalType": "bytes32",
          "name": "newAdminRole",
          "type": "bytes32"
        }
      ],
      "name": "RoleAdminChanged",
      "type": "event"
    },
    {
      "anonymous": false,
      "inputs": [
        {
          "indexed": true,
          "internalType": "bytes32",
          "name": "role",
          "type": "bytes32"
        },
        {
          "indexed": true,
          "internalType": "address",
          "name": "account",
          "type": "address"
        },
        {
          "indexed": true,
          "internalType": "address",
          "name": "sender",
          "type": "address"
        }
      ],
      "name": "RoleGranted",
      "type": "event"
    },
    {
      "anonymous": false,
      "inputs": [
        {
          "indexed": true,
          "internalType": "bytes32",
          "name": "role",
          "type": "bytes32"
        },
        {
          "indexed": true,
          "internalType": "address",
          "name": "account",
          "type": "address"
        },
        {
          "indexed": true,
          "internalType": "address",
          "name": "sender",
          "type": "address"
        }
      ],
      "name": "RoleRevoked",
      "type": "event"
    },
    {
      "anonymous": false,
      "inputs": [
        {
          "indexed": true,
          "internalType": "address",
          "name": "from",
          "type": "address"
        },
        {
          "indexed": true,
          "internalType": "address",
          "name": "to",
          "type": "address"
        },
        {
          "indexed": true,
          "internalType": "uint256",
          "name": "tokenId",
          "type": "uint256"
        }
      ],
      "name": "Transfer",
      "type": "event"
    },
    {
      "anonymous": false,
      "inputs": [
        {
          "indexed": false,
          "internalType": "address",
          "name": "account",
          "type": "address"
        }
      ],
      "name": "Unpaused",
      "type": "event"
    },
    {
      "inputs": [],
      "name": "BASE_URI",
      "outputs": [
        {
          "internalType": "string",
          "name": "",
          "type": "string"
        }
      ],
      "stateMutability": "view",
      "type": "function"
    },
    {
      "inputs": [],
      "name": "BLOCKER_ROLE",
      "outputs": [
        {
          "internalType": "bytes32",
          "name": "",
          "type": "bytes32"
        }
      ],
      "stateMutability": "view",
      "type": "function"
    },
    {
      "inputs": [],
      "name": "DAO_TOKEN",
      "outputs": [
        {
          "internalType": "contract IERC20",
          "name": "",
          "type": "address"
        }
      ],
      "stateMutability": "view",
      "type": "function"
    },
    {
      "inputs": [],
      "name": "DEFAULT_ADMIN_ROLE",
      "outputs": [
        {
          "internalType": "bytes32",
          "name": "",
          "type": "bytes32"
        }
      ],
      "stateMutability": "view",
      "type": "function"
    },
    {
      "inputs": [],
      "name": "MAX_DOWNVOTES",
      "outputs": [
        {
          "internalType": "uint256",
          "name": "",
          "type": "uint256"
        }
      ],
      "stateMutability": "view",
      "type": "function"
    },
    {
      "inputs": [],
      "name": "MAX_URI_CHANGES",
      "outputs": [
        {
          "internalType": "uint256",
          "name": "",
          "type": "uint256"
        }
      ],
      "stateMutability": "view",
      "type": "function"
    },
    {
      "inputs": [],
      "name": "MINTER_ROLE",
      "outputs": [
        {
          "internalType": "bytes32",
          "name": "",
          "type": "bytes32"
        }
      ],
      "stateMutability": "view",
      "type": "function"
    },
    {
      "inputs": [],
      "name": "MIN_DAO_TOKENS_REQUIRED",
      "outputs": [
        {
          "internalType": "uint256",
          "name": "",
          "type": "uint256"
        }
      ],
      "stateMutability": "view",
      "type": "function"
    },
    {
      "inputs": [],
      "name": "PAUSER_ROLE",
      "outputs": [
        {
          "internalType": "bytes32",
          "name": "",
          "type": "bytes32"
        }
      ],
      "stateMutability": "view",
      "type": "function"
    },
    {
      "inputs": [],
      "name": "RECORDER_ROLE",
      "outputs": [
        {
          "internalType": "bytes32",
          "name": "",
          "type": "bytes32"
        }
      ],
      "stateMutability": "view",
      "type": "function"
    },
    {
      "inputs": [
        {
          "internalType": "address",
          "name": "to",
          "type": "address"
        },
        {
          "internalType": "uint256",
          "name": "tokenId",
          "type": "uint256"
        }
      ],
      "name": "approve",
      "outputs": [],
      "stateMutability": "nonpayable",
      "type": "function"
    },
    {
      "inputs": [
        {
          "internalType": "address",
          "name": "owner",
          "type": "address"
        }
      ],
      "name": "balanceOf",
      "outputs": [
        {
          "internalType": "uint256",
          "name": "",
          "type": "uint256"
        }
      ],
      "stateMutability": "view",
      "type": "function"
    },
    {
      "inputs": [
        {
          "internalType": "uint256",
          "name": "_ballotID",
          "type": "uint256"
        }
      ],
      "name": "ballotIsRegistered",
      "outputs": [
        {
          "internalType": "bool",
          "name": "",
          "type": "bool"
        }
      ],
      "stateMutability": "view",
      "type": "function"
    },
    {
      "inputs": [
        {
          "internalType": "address",
          "name": "_address",
          "type": "address"
        }
      ],
      "name": "blacklistAddress",
      "outputs": [],
      "stateMutability": "nonpayable",
      "type": "function"
    },
    {
      "inputs": [
        {
          "internalType": "address",
          "name": "_address",
          "type": "address"
        },
        {
          "internalType": "uint256",
          "name": "_amount",
          "type": "uint256"
        }
      ],
      "name": "createClaim",
      "outputs": [],
      "stateMutability": "nonpayable",
      "type": "function"
    },
    {
      "inputs": [
        {
          "internalType": "uint256",
          "name": "_tokenID",
          "type": "uint256"
        }
      ],
      "name": "downVote",
      "outputs": [],
      "stateMutability": "nonpayable",
      "type": "function"
    },
    {
      "inputs": [
        {
          "internalType": "uint256",
          "name": "_ballotID",
          "type": "uint256"
        }
      ],
      "name": "downVotesFor",
      "outputs": [
        {
          "internalType": "uint256",
          "name": "",
          "type": "uint256"
        }
      ],
      "stateMutability": "view",
      "type": "function"
    },
    {
      "inputs": [
        {
          "internalType": "uint256",
          "name": "tokenId",
          "type": "uint256"
        }
      ],
      "name": "getApproved",
      "outputs": [
        {
          "internalType": "address",
          "name": "",
          "type": "address"
        }
      ],
      "stateMutability": "view",
      "type": "function"
    },
    {
      "inputs": [
        {
          "internalType": "address",
          "name": "_address",
          "type": "address"
        },
        {
          "internalType": "uint256",
          "name": "_index",
          "type": "uint256"
        }
      ],
      "name": "getClaimableID",
      "outputs": [
        {
          "internalType": "uint256",
          "name": "",
          "type": "uint256"
        }
      ],
      "stateMutability": "view",
      "type": "function"
    },
    {
      "inputs": [
        {
          "internalType": "bytes32",
          "name": "role",
          "type": "bytes32"
        }
      ],
      "name": "getRoleAdmin",
      "outputs": [
        {
          "internalType": "bytes32",
          "name": "",
          "type": "bytes32"
        }
      ],
      "stateMutability": "view",
      "type": "function"
    },
    {
      "inputs": [
        {
          "internalType": "bytes32",
          "name": "role",
          "type": "bytes32"
        },
        {
          "internalType": "address",
          "name": "account",
          "type": "address"
        }
      ],
      "name": "grantRole",
      "outputs": [],
      "stateMutability": "nonpayable",
      "type": "function"
    },
    {
      "inputs": [
        {
          "internalType": "address",
          "name": "_address",
          "type": "address"
        }
      ],
      "name": "hasClaim",
      "outputs": [
        {
          "internalType": "bool",
          "name": "",
          "type": "bool"
        }
      ],
      "stateMutability": "view",
      "type": "function"
    },
    {
      "inputs": [
        {
          "internalType": "bytes32",
          "name": "role",
          "type": "bytes32"
        },
        {
          "internalType": "address",
          "name": "account",
          "type": "address"
        }
      ],
      "name": "hasRole",
      "outputs": [
        {
          "internalType": "bool",
          "name": "",
          "type": "bool"
        }
      ],
      "stateMutability": "view",
      "type": "function"
    },
    {
      "inputs": [
        {
          "internalType": "address",
          "name": "_address",
          "type": "address"
        },
        {
          "internalType": "uint256",
          "name": "_amount",
          "type": "uint256"
        }
      ],
      "name": "increaseClaim",
      "outputs": [],
      "stateMutability": "nonpayable",
      "type": "function"
    },
    {
      "inputs": [
        {
          "internalType": "address",
          "name": "owner",
          "type": "address"
        },
        {
          "internalType": "address",
          "name": "operator",
          "type": "address"
        }
      ],
      "name": "isApprovedForAll",
      "outputs": [
        {
          "internalType": "bool",
          "name": "",
          "type": "bool"
        }
      ],
      "stateMutability": "view",
      "type": "function"
    },
    {
      "inputs": [
        {
          "internalType": "address",
          "name": "_address",
          "type": "address"
        }
      ],
      "name": "isBlacklisted",
      "outputs": [
        {
          "internalType": "bool",
          "name": "",
          "type": "bool"
        }
      ],
      "stateMutability": "view",
      "type": "function"
    },
    {
      "inputs": [
        {
          "internalType": "address",
          "name": "_account",
          "type": "address"
        }
      ],
      "name": "isDaoTokenHolder",
      "outputs": [
        {
          "internalType": "bool",
          "name": "",
          "type": "bool"
        }
      ],
      "stateMutability": "view",
      "type": "function"
    },
    {
      "inputs": [
        {
          "internalType": "address",
          "name": "_to",
          "type": "address"
        },
        {
          "internalType": "string",
          "name": "_uri",
          "type": "string"
        }
      ],
      "name": "mintCard",
      "outputs": [],
      "stateMutability": "nonpayable",
      "type": "function"
    },
    {
      "inputs": [],
      "name": "name",
      "outputs": [
        {
          "internalType": "string",
          "name": "",
          "type": "string"
        }
      ],
      "stateMutability": "view",
      "type": "function"
    },
    {
      "inputs": [
        {
          "internalType": "address",
          "name": "_address",
          "type": "address"
        }
      ],
      "name": "nextClaimableID",
      "outputs": [
        {
          "internalType": "uint256",
          "name": "",
          "type": "uint256"
        }
      ],
      "stateMutability": "view",
      "type": "function"
    },
    {
      "inputs": [
        {
          "internalType": "uint256",
          "name": "tokenId",
          "type": "uint256"
        }
      ],
      "name": "ownerOf",
      "outputs": [
        {
          "internalType": "address",
          "name": "",
          "type": "address"
        }
      ],
      "stateMutability": "view",
      "type": "function"
    },
    {
      "inputs": [],
      "name": "pause",
      "outputs": [],
      "stateMutability": "nonpayable",
      "type": "function"
    },
    {
      "inputs": [],
      "name": "paused",
      "outputs": [
        {
          "internalType": "bool",
          "name": "",
          "type": "bool"
        }
      ],
      "stateMutability": "view",
      "type": "function"
    },
    {
      "inputs": [
        {
          "internalType": "string",
          "name": "_uri",
          "type": "string"
        }
      ],
      "name": "redeemCard",
      "outputs": [],
      "stateMutability": "nonpayable",
      "type": "function"
    },
    {
      "inputs": [
        {
          "internalType": "address",
          "name": "_address",
          "type": "address"
        }
      ],
      "name": "remainingClaims",
      "outputs": [
        {
          "internalType": "uint256",
          "name": "",
          "type": "uint256"
        }
      ],
      "stateMutability": "view",
      "type": "function"
    },
    {
      "inputs": [
        {
          "internalType": "bytes32",
          "name": "role",
          "type": "bytes32"
        },
        {
          "internalType": "address",
          "name": "account",
          "type": "address"
        }
      ],
      "name": "renounceRole",
      "outputs": [],
      "stateMutability": "nonpayable",
      "type": "function"
    },
    {
      "inputs": [
        {
          "internalType": "bytes32",
          "name": "role",
          "type": "bytes32"
        },
        {
          "internalType": "address",
          "name": "account",
          "type": "address"
        }
      ],
      "name": "revokeRole",
      "outputs": [],
      "stateMutability": "nonpayable",
      "type": "function"
    },
    {
      "inputs": [
        {
          "internalType": "address",
          "name": "from",
          "type": "address"
        },
        {
          "internalType": "address",
          "name": "to",
          "type": "address"
        },
        {
          "internalType": "uint256",
          "name": "tokenId",
          "type": "uint256"
        }
      ],
      "name": "safeTransferFrom",
      "outputs": [],
      "stateMutability": "nonpayable",
      "type": "function"
    },
    {
      "inputs": [
        {
          "internalType": "address",
          "name": "from",
          "type": "address"
        },
        {
          "internalType": "address",
          "name": "to",
          "type": "address"
        },
        {
          "internalType": "uint256",
          "name": "tokenId",
          "type": "uint256"
        },
        {
          "internalType": "bytes",
          "name": "_data",
          "type": "bytes"
        }
      ],
      "name": "safeTransferFrom",
      "outputs": [],
      "stateMutability": "nonpayable",
      "type": "function"
    },
    {
      "inputs": [
        {
          "internalType": "address",
          "name": "operator",
          "type": "address"
        },
        {
          "internalType": "bool",
          "name": "approved",
          "type": "bool"
        }
      ],
      "name": "setApprovalForAll",
      "outputs": [],
      "stateMutability": "nonpayable",
      "type": "function"
    },
    {
      "inputs": [
        {
          "internalType": "string",
          "name": "_newURI",
          "type": "string"
        }
      ],
      "name": "setBaseURI",
      "outputs": [],
      "stateMutability": "nonpayable",
      "type": "function"
    },
    {
      "inputs": [
        {
          "internalType": "address",
          "name": "_daoTokenAddress",
          "type": "address"
        }
      ],
      "name": "setDaoTokenAddress",
      "outputs": [],
      "stateMutability": "nonpayable",
      "type": "function"
    },
    {
      "inputs": [
        {
          "internalType": "uint256",
          "name": "_newMax",
          "type": "uint256"
        }
      ],
      "name": "setDownVoteMax",
      "outputs": [],
      "stateMutability": "nonpayable",
      "type": "function"
    },
    {
      "inputs": [
        {
          "internalType": "uint256",
          "name": "_newMin",
          "type": "uint256"
        }
      ],
      "name": "setMinDaoTokensRequired",
      "outputs": [],
      "stateMutability": "nonpayable",
      "type": "function"
    },
    {
      "inputs": [
        {
          "internalType": "uint256",
          "name": "_newMax",
          "type": "uint256"
        }
      ],
      "name": "setUriChangeMax",
      "outputs": [],
      "stateMutability": "nonpayable",
      "type": "function"
    },
    {
      "inputs": [
        {
          "internalType": "bytes4",
          "name": "interfaceId",
          "type": "bytes4"
        }
      ],
      "name": "supportsInterface",
      "outputs": [
        {
          "internalType": "bool",
          "name": "",
          "type": "bool"
        }
      ],
      "stateMutability": "view",
      "type": "function"
    },
    {
      "inputs": [],
      "name": "symbol",
      "outputs": [
        {
          "internalType": "string",
          "name": "",
          "type": "string"
        }
      ],
      "stateMutability": "view",
      "type": "function"
    },
    {
      "inputs": [
        {
          "internalType": "uint256",
          "name": "_tokenId",
          "type": "uint256"
        }
      ],
      "name": "tokenURI",
      "outputs": [
        {
          "internalType": "string",
          "name": "",
          "type": "string"
        }
      ],
      "stateMutability": "view",
      "type": "function"
    },
    {
      "inputs": [
        {
          "internalType": "address",
          "name": "from",
          "type": "address"
        },
        {
          "internalType": "address",
          "name": "to",
          "type": "address"
        },
        {
          "internalType": "uint256",
          "name": "tokenId",
          "type": "uint256"
        }
      ],
      "name": "transferFrom",
      "outputs": [],
      "stateMutability": "nonpayable",
      "type": "function"
    },
    {
      "inputs": [
        {
          "internalType": "address",
          "name": "_address",
          "type": "address"
        }
      ],
      "name": "unblacklistAddress",
      "outputs": [],
      "stateMutability": "nonpayable",
      "type": "function"
    },
    {
      "inputs": [],
      "name": "unpause",
      "outputs": [],
      "stateMutability": "nonpayable",
      "type": "function"
    },
    {
      "inputs": [
        {
          "internalType": "uint256",
          "name": "_tokenID",
          "type": "uint256"
        }
      ],
      "name": "upVote",
      "outputs": [],
      "stateMutability": "nonpayable",
      "type": "function"
    },
    {
      "inputs": [
        {
          "internalType": "uint256",
          "name": "_ballotID",
          "type": "uint256"
        }
      ],
      "name": "upVotesFor",
      "outputs": [
        {
          "internalType": "uint256",
          "name": "",
          "type": "uint256"
        }
      ],
      "stateMutability": "view",
      "type": "function"
    },
    {
      "inputs": [
        {
          "internalType": "uint256",
          "name": "_tokenID",
          "type": "uint256"
        },
        {
          "internalType": "string",
          "name": "_uri",
          "type": "string"
        }
      ],
      "name": "updateCardURI",
      "outputs": [],
      "stateMutability": "nonpayable",
      "type": "function"
    },
    {
      "inputs": [
        {
          "internalType": "uint256",
          "name": "_tokenID",
          "type": "uint256"
        }
      ],
      "name": "recordWin",
      "outputs": [],
      "stateMutability": "nonpayable",
      "type": "function"
    },
    {
      "inputs": [
        {
          "internalType": "uint256",
          "name": "_tokenID",
          "type": "uint256"
        }
      ],
      "name": "recordLoss",
      "outputs": [],
      "stateMutability": "nonpayable",
      "type": "function"
    }
  ],
  "bytecode": "0x60806040523480156200001157600080fd5b50604051620040e5380380620040e583398101604081905262000034916200067c565b6040518060400160405280601081526020016f141a1b1a5c0815da1a5d194810d85c9960821b8152506040518060400160405280600381526020016257504360e81b8152508686868686868681600090805190602001906200009892919062000570565b508051620000ae90600190602084019062000570565b50506006805460ff1916905550620000c86000336200018a565b620000e3600080516020620040c5833981519152336200018a565b6200010f7f65d7a28e3265b37a6474929f336521b332c1681b933f6cb9f3376673440d862a336200018a565b6200011a856200022f565b620001258462000265565b620001308362000287565b6200013b82620002a9565b6200014681620002cb565b505050505050506200017f7ff996da754c790e95d5c7ca3330cfcad529487fe9d1d8edb7afc65076fdf9adb4336200018a60201b60201c565b5050505050620008d4565b60008281526007602090815260408083206001600160a01b038516845290915290205460ff166200022b5760008281526007602090815260408083206001600160a01b03851684529091529020805460ff19166001179055620001ea3390565b6001600160a01b0316816001600160a01b0316837f2f8788117e7eff1d82e926ec794901d17c78024a50270940304540a733656f0d60405160405180910390a45b5050565b600080516020620040c58339815191526200024b81336200030a565b81516200026090600e90602085019062000570565b505050565b600080516020620040c58339815191526200028181336200030a565b50600f55565b600080516020620040c5833981519152620002a381336200030a565b50601055565b600080516020620040c5833981519152620002c581336200030a565b50601155565b600080516020620040c5833981519152620002e781336200030a565b50601280546001600160a01b0319166001600160a01b0392909216919091179055565b60008281526007602090815260408083206001600160a01b038516845290915290205460ff166200022b5762000356816001600160a01b03166014620003b060201b620019211760201c565b6200036c83602062001921620003b0821b17811c565b6040516020016200037f92919062000766565b60408051601f198184030181529082905262461bcd60e51b8252620003a791600401620007df565b60405180910390fd5b60606000620003c18360026200082a565b620003ce9060026200084c565b6001600160401b03811115620003e857620003e862000616565b6040519080825280601f01601f19166020018201604052801562000413576020820181803683370190505b509050600360fc1b8160008151811062000431576200043162000867565b60200101906001600160f81b031916908160001a905350600f60fb1b8160018151811062000463576200046362000867565b60200101906001600160f81b031916908160001a9053506000620004898460026200082a565b620004969060016200084c565b90505b600181111562000518576f181899199a1a9b1b9c1cb0b131b232b360811b85600f1660108110620004ce57620004ce62000867565b1a60f81b828281518110620004e757620004e762000867565b60200101906001600160f81b031916908160001a90535060049490941c9362000510816200087d565b905062000499565b508315620005695760405162461bcd60e51b815260206004820181905260248201527f537472696e67733a20686578206c656e67746820696e73756666696369656e746044820152606401620003a7565b9392505050565b8280546200057e9062000897565b90600052602060002090601f016020900481019282620005a25760008555620005ed565b82601f10620005bd57805160ff1916838001178555620005ed565b82800160010185558215620005ed579182015b82811115620005ed578251825591602001919060010190620005d0565b50620005fb929150620005ff565b5090565b5b80821115620005fb576000815560010162000600565b634e487b7160e01b600052604160045260246000fd5b60005b83811015620006495781810151838201526020016200062f565b8381111562000659576000848401525b50505050565b80516001600160a01b03811681146200067757600080fd5b919050565b600080600080600060a086880312156200069557600080fd5b85516001600160401b0380821115620006ad57600080fd5b818801915088601f830112620006c257600080fd5b815181811115620006d757620006d762000616565b604051601f8201601f19908116603f0116810190838211818310171562000702576200070262000616565b816040528281528b60208487010111156200071c57600080fd5b6200072f8360208301602088016200062c565b80995050505050506020860151935060408601519250606086015191506200075a608087016200065f565b90509295509295909350565b7f416363657373436f6e74726f6c3a206163636f756e7420000000000000000000815260008351620007a08160178501602088016200062c565b7001034b99036b4b9b9b4b733903937b6329607d1b6017918401918201528351620007d38160288401602088016200062c565b01602801949350505050565b6020815260008251806020840152620008008160408501602087016200062c565b601f01601f19169190910160400192915050565b634e487b7160e01b600052601160045260246000fd5b600081600019048311821515161562000847576200084762000814565b500290565b6000821982111562000862576200086262000814565b500190565b634e487b7160e01b600052603260045260246000fd5b6000816200088f576200088f62000814565b506000190190565b600181811c90821680620008ac57607f821691505b60208210811415620008ce57634e487b7160e01b600052602260045260246000fd5b50919050565b6137e180620008e46000396000f3fe608060405234801561001057600080fd5b50600436106103775760003560e01c806395d89b41116101d3578063d539139311610104578063ec859db5116100a2578063f7d5b0131161007c578063f7d5b013146107ce578063fa2ce79b146107e1578063fce76f861461080d578063fe575a871461083057600080fd5b8063ec859db514610795578063f2fc4ba6146107a8578063f3290d75146107bb57600080fd5b8063e45c084d116100de578063e45c084d146106f8578063e63ab1e91461071f578063e85b26c014610746578063e985e9c51461075957600080fd5b8063d5391393146106c8578063d547741f146106dd578063dbddb26a146106f057600080fd5b8063b18f973911610171578063c7cd5adb1161014b578063c7cd5adb14610686578063c87b56dd1461068f578063cd7e53cc146106a2578063d519ffa4146106b557600080fd5b8063b18f973914610643578063b88d4fde1461064c578063bea865811461065f57600080fd5b8063a1829d06116101ad578063a1829d06146105f2578063a217fddf14610615578063a22cb4651461061d578063a701b6841461063057600080fd5b806395d89b41146105c45780639d0bde7a146105cc5780639e6611a5146105df57600080fd5b80633f4ba83a116102ad57806368154a361161024b5780638456cb59116102255780638456cb591461058d5780638a0742b2146105955780638e512ce7146105a857806391d14854146105b157600080fd5b806368154a361461055457806370a0823114610567578063767855291461057a57600080fd5b806355f804b31161028757806355f804b3146105105780635c975abb146105235780636022743e1461052e5780636352211e1461054157600080fd5b80633f4ba83a146104e257806342842e0e146104ea57806345e34949146104fd57600080fd5b80631ae9392d1161031a57806327e26c8c116102f457806327e26c8c146104965780632b5827a9146104a95780632f2ff15d146104bc57806336568abe146104cf57600080fd5b80631ae9392d1461044d57806323b872dd14610460578063248a9ca31461047357600080fd5b8063081812fc11610356578063081812fc146103ce578063095ea7b3146103f95780630a6b570f1461040c5780630d893fad1461043a57600080fd5b80622369071461037c57806301ffc9a71461039157806306fdde03146103b9575b600080fd5b61038f61038a366004612f0f565b61085c565b005b6103a461039f366004612f4f565b6108be565b60405190151581526020015b60405180910390f35b6103c16108cf565b6040516103b09190612fc4565b6103e16103dc366004612fd7565b610961565b6040516001600160a01b0390911681526020016103b0565b61038f610407366004612f0f565b6109ee565b61042c61041a366004612fd7565b6000908152600d602052604090205490565b6040519081526020016103b0565b61038f610448366004612fd7565b610b04565b61038f61045b366004612fd7565b610b23565b61038f61046e366004612ff0565b610bdf565b61042c610481366004612fd7565b60009081526007602052604090206001015490565b61038f6104a43660046130d8565b610c10565b6012546103e1906001600160a01b031681565b61038f6104ca36600461310d565b610cc5565b61038f6104dd36600461310d565b610ceb565b61038f610d65565b61038f6104f8366004612ff0565b610d9b565b61038f61050b366004613139565b610db6565b61038f61051e3660046130d8565b610e06565b60065460ff166103a4565b61038f61053c366004612fd7565b610e32565b6103e161054f366004612fd7565b610eb5565b61042c610562366004613139565b610f2c565b61042c610575366004613139565b610fa3565b61038f610588366004612fd7565b61102a565b61038f611049565b61038f6105a3366004613154565b61107c565b61042c60115481565b6103a46105bf36600461310d565b611212565b6103c161123d565b61038f6105da366004612fd7565b61124c565b61038f6105ed366004612fd7565b61126b565b6103a4610600366004612fd7565b6000908152600c602052604090205460ff1690565b61042c600081565b61038f61062b36600461319b565b6112df565b61042c61063e366004612f0f565b6112ea565b61042c600f5481565b61038f61065a3660046131d7565b6113e8565b61042c7ff996da754c790e95d5c7ca3330cfcad529487fe9d1d8edb7afc65076fdf9adb481565b61042c60105481565b6103c161069d366004612fd7565b61141a565b61038f6106b0366004613253565b611586565b61038f6106c3366004613139565b6115c5565b61042c60008051602061378c83398151915281565b61038f6106eb36600461310d565b611601565b6103c1611627565b61042c7f8f2e0057cd5e35397007bcc8f5418f73dd64cc6e4073a0276563f247c307903781565b61042c7f65d7a28e3265b37a6474929f336521b332c1681b933f6cb9f3376673440d862a81565b61038f610754366004612f0f565b6116b5565b6103a461076736600461328b565b6001600160a01b03918216600090815260056020908152604080832093909416825291909152205460ff1690565b61038f6107a3366004612fd7565b611777565b61042c6107b6366004613139565b6117fb565b61038f6107c9366004613139565b611855565b6103a46107dc366004613139565b6118a8565b6103a46107ef366004613139565b6001600160a01b031660009081526009602052604090205460ff1690565b61042c61081b366004612fd7565b6000908152600d602052604090206001015490565b6103a461083e366004613139565b6001600160a01b031660009081526008602052604090205460ff1690565b60008051602061378c8339815191526108758133611ac4565b60005b828110156108b857600061088b60135490565b905061089b601380546001019055565b6108a58582611b28565b50806108b0816132cb565b915050610878565b50505050565b60006108c982611c2e565b92915050565b6060600080546108de906132e6565b80601f016020809104026020016040519081016040528092919081815260200182805461090a906132e6565b80156109575780601f1061092c57610100808354040283529160200191610957565b820191906000526020600020905b81548152906001019060200180831161093a57829003601f168201915b5050505050905090565b600061096c82611c53565b6109d25760405162461bcd60e51b815260206004820152602c60248201527f4552433732313a20617070726f76656420717565727920666f72206e6f6e657860448201526b34b9ba32b73a103a37b5b2b760a11b60648201526084015b60405180910390fd5b506000908152600460205260409020546001600160a01b031690565b60006109f982610eb5565b9050806001600160a01b0316836001600160a01b03161415610a675760405162461bcd60e51b815260206004820152602160248201527f4552433732313a20617070726f76616c20746f2063757272656e74206f776e656044820152603960f91b60648201526084016109c9565b336001600160a01b0382161480610a835750610a838133610767565b610af55760405162461bcd60e51b815260206004820152603860248201527f4552433732313a20617070726f76652063616c6c6572206973206e6f74206f7760448201527f6e6572206e6f7220617070726f76656420666f7220616c6c000000000000000060648201526084016109c9565b610aff8383611c70565b505050565b60008051602061378c833981519152610b1d8133611ac4565b50600f55565b3360009081526008602052604090205460ff1615610b535760405162461bcd60e51b81526004016109c99061331b565b80610b5d81611c53565b610b795760405162461bcd60e51b81526004016109c99061336d565b610b82336118a8565b610b9e5760405162461bcd60e51b81526004016109c9906133a2565b610ba782611cde565b600f546000838152600d602052604090206001015410610bdb576000828152601460205260409020600301805460ff191690555b5050565b610be93382611db2565b610c055760405162461bcd60e51b81526004016109c9906133ee565b610aff838383611e98565b60065460ff1615610c335760405162461bcd60e51b81526004016109c99061343f565b3360009081526009602052604090205460ff16610ca25760405162461bcd60e51b815260206004820152602760248201527f436c61696d61626c653a2041646472657373206973206e6f7420612062656e656044820152666669636961727960c81b60648201526084016109c9565b6000610cad33610f2c565b9050610cba33600061203f565b610bdb8133846121d8565b600082815260076020526040902060010154610ce18133611ac4565b610aff8383612285565b6001600160a01b0381163314610d5b5760405162461bcd60e51b815260206004820152602f60248201527f416363657373436f6e74726f6c3a2063616e206f6e6c792072656e6f756e636560448201526e103937b632b9903337b91039b2b63360891b60648201526084016109c9565b610bdb828261230b565b7f65d7a28e3265b37a6474929f336521b332c1681b933f6cb9f3376673440d862a610d908133611ac4565b610d98612372565b50565b610aff838383604051806020016040528060008152506113e8565b7f8f2e0057cd5e35397007bcc8f5418f73dd64cc6e4073a0276563f247c3079037610de18133611ac4565b610bdb826001600160a01b03166000908152600860205260409020805460ff19169055565b60008051602061378c833981519152610e1f8133611ac4565b8151610aff90600e906020850190612e02565b80610e3c81611c53565b610e585760405162461bcd60e51b81526004016109c99061336d565b7ff996da754c790e95d5c7ca3330cfcad529487fe9d1d8edb7afc65076fdf9adb4610e838133611ac4565b60008381526015602052604081206001808201805492939192909190610eaa908490613469565b909155505050505050565b6000818152600260205260408120546001600160a01b0316806108c95760405162461bcd60e51b815260206004820152602960248201527f4552433732313a206f776e657220717565727920666f72206e6f6e657869737460448201526832b73a103a37b5b2b760b91b60648201526084016109c9565b6001600160a01b038116600090815260096020526040812054829060ff16610f665760405162461bcd60e51b81526004016109c990613481565b6001600160a01b0383166000908152600a602052604081208054909190610f8f57610f8f6134b6565b906000526020600020015491505b50919050565b60006001600160a01b03821661100e5760405162461bcd60e51b815260206004820152602a60248201527f4552433732313a2062616c616e636520717565727920666f7220746865207a65604482015269726f206164647265737360b01b60648201526084016109c9565b506001600160a01b031660009081526003602052604090205490565b60008051602061378c8339815191526110438133611ac4565b50601155565b7f65d7a28e3265b37a6474929f336521b332c1681b933f6cb9f3376673440d862a6110748133611ac4565b610d98612405565b3361108683610eb5565b6001600160a01b0316146110f05760405162461bcd60e51b815260206004820152602b60248201527f50686c6970436172643a204164647265737320646f6573206e6f74206f776e2060448201526a3a3434b9903a37b5b2b71760a91b60648201526084016109c9565b600082815260146020526040902060105460028201541061116d5760405162461bcd60e51b815260206004820152603160248201527f50686c6970436172643a204d6178696d756d206e756d626572206f66205552496044820152701031b430b733b2b9903932b0b1b432b21760791b60648201526084016109c9565b60018101546001600160a01b031633146111e05760405162461bcd60e51b815260206004820152602e60248201527f50686c6970436172643a204f6e6c7920746865206d696e7465722063616e207560448201526d383230ba32903a3432902aa9249760911b60648201526084016109c9565b81516111f29082906020850190612e02565b5060018160020160008282546112089190613469565b9091555050505050565b60009182526007602090815260408084206001600160a01b0393909316845291905290205460ff1690565b6060600180546108de906132e6565b60008051602061378c8339815191526112658133611ac4565b50601055565b8061127581611c53565b6112915760405162461bcd60e51b81526004016109c99061336d565b7ff996da754c790e95d5c7ca3330cfcad529487fe9d1d8edb7afc65076fdf9adb46112bc8133611ac4565b600083815260156020526040812080549091600191839190610eaa908490613469565b610bdb33838361245d565b6001600160a01b038216600090815260096020526040812054839060ff166113245760405162461bcd60e51b81526004016109c990613481565b6001600160a01b0384166000908152600a602052604090206001015483106113aa5760405162461bcd60e51b815260206004820152603360248201527f436c61696d61626c652e676574436c61696d61626c6549443a20417373657420604482015272696e646578206f7574206f6620626f756e647360681b60648201526084016109c9565b6001600160a01b0384166000908152600a602052604090208054849081106113d4576113d46134b6565b906000526020600020015491505092915050565b6113f23383611db2565b61140e5760405162461bcd60e51b81526004016109c9906133ee565b6108b88484848461252c565b606061142582611c53565b61148d5760405162461bcd60e51b815260206004820152603360248201527f50686c6970436172642e746f6b656e5552493a2055524920717565727920666f60448201527239103737b732bc34b9ba32b73a103a37b5b2b760691b60648201526084016109c9565b600082815260146020526040812080546114a6906132e6565b80601f01602080910402602001604051908101604052809291908181526020018280546114d2906132e6565b801561151f5780601f106114f45761010080835404028352916020019161151f565b820191906000526020600020905b81548152906001019060200180831161150257829003601f168201915b50505050509050600061153061255f565b9050805160001415611543575092915050565b81511561157557808260405160200161155d9291906134cc565b60405160208183030381529060405292505050919050565b61157e8461256e565b949350505050565b60008051602061378c83398151915261159f8133611ac4565b60006115aa60135490565b90506115ba601380546001019055565b6108b88185856121d8565b60008051602061378c8339815191526115de8133611ac4565b50601280546001600160a01b0319166001600160a01b0392909216919091179055565b60008281526007602052604090206001015461161d8133611ac4565b610aff838361230b565b600e8054611634906132e6565b80601f0160208091040260200160405190810160405280929190818152602001828054611660906132e6565b80156116ad5780601f10611682576101008083540402835291602001916116ad565b820191906000526020600020905b81548152906001019060200180831161169057829003601f168201915b505050505081565b60008051602061378c8339815191526116ce8133611ac4565b60008267ffffffffffffffff8111156116e9576116e961302c565b604051908082528060200260200182016040528015611712578160200160208202803683370190505b50905060005b8381101561176c57600061172b60135490565b905061173b601380546001019055565b8083838151811061174e5761174e6134b6565b60209081029190910101525080611764816132cb565b915050611718565b506108b88482612638565b3360009081526008602052604090205460ff16156117a75760405162461bcd60e51b81526004016109c99061331b565b806117b181611c53565b6117cd5760405162461bcd60e51b81526004016109c99061336d565b6117d6336118a8565b6117f25760405162461bcd60e51b81526004016109c9906133a2565b610bdb826128b2565b6001600160a01b038116600090815260096020526040812054829060ff166118355760405162461bcd60e51b81526004016109c990613481565b50506001600160a01b03166000908152600a602052604090206001015490565b7f8f2e0057cd5e35397007bcc8f5418f73dd64cc6e4073a0276563f247c30790376118808133611ac4565b610bdb826001600160a01b03166000908152600860205260409020805460ff19166001179055565b6012546040516370a0823160e01b81526001600160a01b03838116600483015260009283929116906370a0823190602401602060405180830381865afa1580156118f6573d6000803e3d6000fd5b505050506040513d601f19601f8201168201806040525081019061191a91906134fb565b1192915050565b60606000611930836002613514565b61193b906002613469565b67ffffffffffffffff8111156119535761195361302c565b6040519080825280601f01601f19166020018201604052801561197d576020820181803683370190505b509050600360fc1b81600081518110611998576119986134b6565b60200101906001600160f81b031916908160001a905350600f60fb1b816001815181106119c7576119c76134b6565b60200101906001600160f81b031916908160001a90535060006119eb846002613514565b6119f6906001613469565b90505b6001811115611a6e576f181899199a1a9b1b9c1cb0b131b232b360811b85600f1660108110611a2a57611a2a6134b6565b1a60f81b828281518110611a4057611a406134b6565b60200101906001600160f81b031916908160001a90535060049490941c93611a6781613533565b90506119f9565b508315611abd5760405162461bcd60e51b815260206004820181905260248201527f537472696e67733a20686578206c656e67746820696e73756666696369656e7460448201526064016109c9565b9392505050565b611ace8282611212565b610bdb57611ae6816001600160a01b03166014611921565b611af1836020611921565b604051602001611b0292919061354a565b60408051601f198184030181529082905262461bcd60e51b82526109c991600401612fc4565b6001600160a01b038216600090815260096020526040902054829060ff16611b625760405162461bcd60e51b81526004016109c990613481565b6000828152600b60205260409020546001600160a01b031615611bed5760405162461bcd60e51b815260206004820152603960248201527f436c61696d61626c652e5f616464546f436c61696d3a2041737365742049442060448201527f68617320616c7265616479206265656e20636c61696d65642e0000000000000060648201526084016109c9565b6001600160a01b0383166000908152600a60209081526040822080546001818101835582855292842001859055818101805491939091610eaa908490613469565b60006001600160e01b03198216637965db0b60e01b14806108c957506108c982612983565b6000908152600260205260409020546001600160a01b0316151590565b600081815260046020526040902080546001600160a01b0319166001600160a01b0384169081179091558190611ca582610eb5565b6001600160a01b03167f8c5be1e5ebec7d5bd14f71427d1e84f3dd0314c0f7b2291e5b200ac8c7c3b92560405160405180910390a45050565b6000818152600c6020526040902054819060ff16611d0e5760405162461bcd60e51b81526004016109c9906135bf565b6000828152600d60209081526040808320338452600281019092529091205460ff1615611d4d5760405162461bcd60e51b81526004016109c990613601565b33600090815260038201602052604090205460ff1615611d7f5760405162461bcd60e51b81526004016109c990613644565b3360009081526003820160205260408120805460ff19166001908117909155828101805491929091611208908490613469565b6000611dbd82611c53565b611e1e5760405162461bcd60e51b815260206004820152602c60248201527f4552433732313a206f70657261746f7220717565727920666f72206e6f6e657860448201526b34b9ba32b73a103a37b5b2b760a11b60648201526084016109c9565b6000611e2983610eb5565b9050806001600160a01b0316846001600160a01b03161480611e645750836001600160a01b0316611e5984610961565b6001600160a01b0316145b8061157e57506001600160a01b0380821660009081526005602090815260408083209388168352929052205460ff1661157e565b826001600160a01b0316611eab82610eb5565b6001600160a01b031614611f0f5760405162461bcd60e51b815260206004820152602560248201527f4552433732313a207472616e736665722066726f6d20696e636f72726563742060448201526437bbb732b960d91b60648201526084016109c9565b6001600160a01b038216611f715760405162461bcd60e51b8152602060048201526024808201527f4552433732313a207472616e7366657220746f20746865207a65726f206164646044820152637265737360e01b60648201526084016109c9565b611f7c8383836129d3565b611f87600082611c70565b6001600160a01b0383166000908152600360205260408120805460019290611fb090849061368a565b90915550506001600160a01b0382166000908152600360205260408120805460019290611fde908490613469565b909155505060008181526002602052604080822080546001600160a01b0319166001600160a01b0386811691821790925591518493918716917fddf252ad1be2c89b69c2b068fc378daa952ba7f163c4a11628f55a4df523b3ef91a4505050565b6001600160a01b038216600090815260096020526040902054829060ff166120795760405162461bcd60e51b81526004016109c990613481565b6001600160a01b0383166000908152600a60205260409020600181015483106121005760405162461bcd60e51b815260206004820152603360248201527f436c61696d61626c652e5f72656d6f766546726f6d436c61696d3a20496e64656044820152723c1034b99037baba1037b3103137bab732399760691b60648201526084016109c9565b6000816000018481548110612117576121176134b6565b906000526020600020015490506001826001016000828254612139919061368a565b90915550508154829085908110612152576121526134b6565b60009182526020808320909101829055828252600b90526040902080546001600160a01b031916905560018201546121d1576001600160a01b0385166000908152600a60205260408120906121a78282612e86565b5060006001919091018190556001600160a01b0386168152600960205260409020805460ff191690555b5050505050565b604080516080810182528281526001600160a01b038416602080830191909152600082840181905260016060840152868152601482529290922081518051929391926122279284920190612e02565b5060208201516001820180546001600160a01b0319166001600160a01b03909216919091179055604082015160028201556060909101516003909101805460ff191691151591909117905561227c82846129f6565b610aff83612a10565b61228f8282611212565b610bdb5760008281526007602090815260408083206001600160a01b03851684529091529020805460ff191660011790556122c73390565b6001600160a01b0316816001600160a01b0316837f2f8788117e7eff1d82e926ec794901d17c78024a50270940304540a733656f0d60405160405180910390a45050565b6123158282611212565b15610bdb5760008281526007602090815260408083206001600160a01b0385168085529252808320805460ff1916905551339285917ff6391f5c32d9c69d2a47ea670b442974b53935d1edc7fd64eb21e047a839171b9190a45050565b60065460ff166123bb5760405162461bcd60e51b815260206004820152601460248201527314185d5cd8589b194e881b9bdd081c185d5cd95960621b60448201526064016109c9565b6006805460ff191690557f5db9ee0a495bf2e6ff9c91a7834c1ba4fdd244a5e8aa4e537bd38aeae4b073aa335b6040516001600160a01b03909116815260200160405180910390a1565b60065460ff16156124285760405162461bcd60e51b81526004016109c99061343f565b6006805460ff191660011790557f62e78cea01bee320cd4e420270b5ea74000d11b0c9f74754ebdbfc544b05a2586123e83390565b816001600160a01b0316836001600160a01b031614156124bf5760405162461bcd60e51b815260206004820152601960248201527f4552433732313a20617070726f766520746f2063616c6c65720000000000000060448201526064016109c9565b6001600160a01b03838116600081815260056020908152604080832094871680845294825291829020805460ff191686151590811790915591519182527f17307eab39ab6107e8899845ad3d59bd9653f200f220920489ca2b5937696c31910160405180910390a3505050565b612537848484611e98565b61254384848484612a94565b6108b85760405162461bcd60e51b81526004016109c9906136a1565b6060600e80546108de906132e6565b606061257982611c53565b6125dd5760405162461bcd60e51b815260206004820152602f60248201527f4552433732314d657461646174613a2055524920717565727920666f72206e6f60448201526e3732bc34b9ba32b73a103a37b5b2b760891b60648201526084016109c9565b60006125e761255f565b905060008151116126075760405180602001604052806000815250611abd565b8061261184612b92565b6040516020016126229291906134cc565b6040516020818303038152906040529392505050565b6001600160a01b03821660009081526009602052604090205460ff16156127135760405162461bcd60e51b815260206004820152607860248201527f436c61696d61626c652e5f637265617465436c61696d3a20436c61696d20686160448201527f7320616c7265616479206265656e206372656174656420666f7220746869732060648201527f616464726573732e2043616c6c205f757064617465436c61696d282920666f7260848201527f206578697374696e672062656e656669636961726965732e000000000000000060a482015260c4016109c9565b6001600160a01b0382166000908152600960205260408120805460ff191660011790555b815181101561285c5760006001600160a01b0316600b6000848481518110612761576127616134b6565b6020908102919091018101518252810191909152604001600020546001600160a01b0316146127f85760405162461bcd60e51b815260206004820152603a60248201527f436c61696d61626c652e5f637265617465436c61696d3a20417373657420494460448201527f2068617320616c7265616479206265656e20636c61696d65642e00000000000060648201526084016109c9565b82600b600084848151811061280f5761280f6134b6565b6020026020010151815260200190815260200160002060006101000a8154816001600160a01b0302191690836001600160a01b031602179055508080612854906132cb565b915050612737565b5060408051808201825282815282516020808301919091526001600160a01b0385166000908152600a82529290922081518051929391926128a09284920190612ea4565b50602082015181600101559050505050565b6000818152600c6020526040902054819060ff166128e25760405162461bcd60e51b81526004016109c9906135bf565b6000828152600d60209081526040808320338452600281019092529091205460ff16156129215760405162461bcd60e51b81526004016109c990613601565b33600090815260038201602052604090205460ff16156129535760405162461bcd60e51b81526004016109c990613644565b3360009081526002820160205260408120805460ff19166001908117909155825490918391611208908490613469565b60006001600160e01b031982166380ac58cd60e01b14806129b457506001600160e01b03198216635b5e139f60e01b145b806108c957506301ffc9a760e01b6001600160e01b03198316146108c9565b60065460ff1615610aff5760405162461bcd60e51b81526004016109c99061343f565b610bdb828260405180602001604052806000815250612c90565b6000818152600c602052604090205460ff1615612a795760405162461bcd60e51b815260206004820152602160248201527f5570446f776e566f74653a2042616c6c6f7420616c72656164792065786973746044820152607360f81b60648201526084016109c9565b6000908152600c60205260409020805460ff19166001179055565b60006001600160a01b0384163b15612b8757604051630a85bd0160e11b81526001600160a01b0385169063150b7a0290612ad89033908990889088906004016136f3565b6020604051808303816000875af1925050508015612b13575060408051601f3d908101601f19168201909252612b1091810190613730565b60015b612b6d573d808015612b41576040519150601f19603f3d011682016040523d82523d6000602084013e612b46565b606091505b508051612b655760405162461bcd60e51b81526004016109c9906136a1565b805181602001fd5b6001600160e01b031916630a85bd0160e11b14905061157e565b506001949350505050565b606081612bb65750506040805180820190915260018152600360fc1b602082015290565b8160005b8115612be05780612bca816132cb565b9150612bd99050600a83613763565b9150612bba565b60008167ffffffffffffffff811115612bfb57612bfb61302c565b6040519080825280601f01601f191660200182016040528015612c25576020820181803683370190505b5090505b841561157e57612c3a60018361368a565b9150612c47600a86613777565b612c52906030613469565b60f81b818381518110612c6757612c676134b6565b60200101906001600160f81b031916908160001a905350612c89600a86613763565b9450612c29565b612c9a8383612cc3565b612ca76000848484612a94565b610aff5760405162461bcd60e51b81526004016109c9906136a1565b6001600160a01b038216612d195760405162461bcd60e51b815260206004820181905260248201527f4552433732313a206d696e7420746f20746865207a65726f206164647265737360448201526064016109c9565b612d2281611c53565b15612d6f5760405162461bcd60e51b815260206004820152601c60248201527f4552433732313a20746f6b656e20616c7265616479206d696e7465640000000060448201526064016109c9565b612d7b600083836129d3565b6001600160a01b0382166000908152600360205260408120805460019290612da4908490613469565b909155505060008181526002602052604080822080546001600160a01b0319166001600160a01b03861690811790915590518392907fddf252ad1be2c89b69c2b068fc378daa952ba7f163c4a11628f55a4df523b3ef908290a45050565b828054612e0e906132e6565b90600052602060002090601f016020900481019282612e305760008555612e76565b82601f10612e4957805160ff1916838001178555612e76565b82800160010185558215612e76579182015b82811115612e76578251825591602001919060010190612e5b565b50612e82929150612ede565b5090565b5080546000825590600052602060002090810190610d989190612ede565b828054828255906000526020600020908101928215612e765791602002820182811115612e76578251825591602001919060010190612e5b565b5b80821115612e825760008155600101612edf565b80356001600160a01b0381168114612f0a57600080fd5b919050565b60008060408385031215612f2257600080fd5b612f2b83612ef3565b946020939093013593505050565b6001600160e01b031981168114610d9857600080fd5b600060208284031215612f6157600080fd5b8135611abd81612f39565b60005b83811015612f87578181015183820152602001612f6f565b838111156108b85750506000910152565b60008151808452612fb0816020860160208601612f6c565b601f01601f19169290920160200192915050565b602081526000611abd6020830184612f98565b600060208284031215612fe957600080fd5b5035919050565b60008060006060848603121561300557600080fd5b61300e84612ef3565b925061301c60208501612ef3565b9150604084013590509250925092565b634e487b7160e01b600052604160045260246000fd5b600067ffffffffffffffff8084111561305d5761305d61302c565b604051601f8501601f19908116603f011681019082821181831017156130855761308561302c565b8160405280935085815286868601111561309e57600080fd5b858560208301376000602087830101525050509392505050565b600082601f8301126130c957600080fd5b611abd83833560208501613042565b6000602082840312156130ea57600080fd5b813567ffffffffffffffff81111561310157600080fd5b61157e848285016130b8565b6000806040838503121561312057600080fd5b8235915061313060208401612ef3565b90509250929050565b60006020828403121561314b57600080fd5b611abd82612ef3565b6000806040838503121561316757600080fd5b82359150602083013567ffffffffffffffff81111561318557600080fd5b613191858286016130b8565b9150509250929050565b600080604083850312156131ae57600080fd5b6131b783612ef3565b9150602083013580151581146131cc57600080fd5b809150509250929050565b600080600080608085870312156131ed57600080fd5b6131f685612ef3565b935061320460208601612ef3565b925060408501359150606085013567ffffffffffffffff81111561322757600080fd5b8501601f8101871361323857600080fd5b61324787823560208401613042565b91505092959194509250565b6000806040838503121561326657600080fd5b61326f83612ef3565b9150602083013567ffffffffffffffff81111561318557600080fd5b6000806040838503121561329e57600080fd5b6132a783612ef3565b915061313060208401612ef3565b634e487b7160e01b600052601160045260246000fd5b60006000198214156132df576132df6132b5565b5060010190565b600181811c908216806132fa57607f821691505b60208210811415610f9d57634e487b7160e01b600052602260045260246000fd5b60208082526032908201527f426c61636b6c69737461626c653a20424c41434b4c49535445445f414444524560408201527129a9a2a9afa0a922afa327a92124a22222a760711b606082015260800190565b6020808252818101527f50686c6970436172643a20546f6b656e20646f6573206e6f742065786973742e604082015260600190565b6020808252602c908201527f50686c6970436172643a204d757374206f776e2050686c697044414f20746f6b60408201526b32b739903a37903b37ba329760a11b606082015260800190565b60208082526031908201527f4552433732313a207472616e736665722063616c6c6572206973206e6f74206f6040820152701ddb995c881b9bdc88185c1c1c9bdd9959607a1b606082015260800190565b60208082526010908201526f14185d5cd8589b194e881c185d5cd95960821b604082015260600190565b6000821982111561347c5761347c6132b5565b500190565b6020808252818101527f436c61696d61626c653a20436c61696d20646f6573206e6f742065786973742e604082015260600190565b634e487b7160e01b600052603260045260246000fd5b600083516134de818460208801612f6c565b8351908301906134f2818360208801612f6c565b01949350505050565b60006020828403121561350d57600080fd5b5051919050565b600081600019048311821515161561352e5761352e6132b5565b500290565b600081613542576135426132b5565b506000190190565b7f416363657373436f6e74726f6c3a206163636f756e7420000000000000000000815260008351613582816017850160208801612f6c565b7001034b99036b4b9b9b4b733903937b6329607d1b60179184019182015283516135b3816028840160208801612f6c565b01602801949350505050565b60208082526022908201527f5570446f776e566f74653a2042616c6c6f7420646f6573206e6f742065786973604082015261747360f01b606082015260800190565b60208082526023908201527f5570446f776e566f74653a204143434f554e545f414c52454144595f5550564f60408201526215115160ea1b606082015260800190565b60208082526026908201527f5570446f776e566f7465733a204143434f554e545f414c52454144595f444f57604082015265139593d5115160d21b606082015260800190565b60008282101561369c5761369c6132b5565b500390565b60208082526032908201527f4552433732313a207472616e7366657220746f206e6f6e20455243373231526560408201527131b2b4bb32b91034b6b83632b6b2b73a32b960711b606082015260800190565b6001600160a01b038581168252841660208201526040810183905260806060820181905260009061372690830184612f98565b9695505050505050565b60006020828403121561374257600080fd5b8151611abd81612f39565b634e487b7160e01b600052601260045260246000fd5b6000826137725761377261374d565b500490565b6000826137865761378661374d565b50069056fe9f2df0fed2c77648de5860a4cc508cd0818c85b8b8a1ab4ceeef8d981c8956a6a26469706673582212201212c6ec4472f9d75895c665750b5a4ed6765e75472103b096a8456d29476e6f64736f6c634300080b00339f2df0fed2c77648de5860a4cc508cd0818c85b8b8a1ab4ceeef8d981c8956a6",
  "immutableReferences": {},
  "source": "// SPDX-License-Identifier: MIT\npragma solidity ^0.8.11;\n\nimport \"./PhlipCard.sol\";\n\ncontract WhiteCard is PhlipCard {\n    bytes32 public constant RECORDER_ROLE = keccak256(\"RECORDER_ROLE\");\n\n    struct GameRecord {\n        uint256 wins;\n        uint256 losses;\n    }\n\n    mapping(uint256 => GameRecord) private _gameRecords;\n\n    constructor(\n        string memory _baseUri,\n        uint256 _maxDownvotes,\n        uint256 _maxUriChanges,\n        uint256 _minDaoTokensRequired,\n        address _daoTokenAddress\n    )\n        PhlipCard(\n            \"Phlip White Card\",\n            \"WPC\",\n            _baseUri,\n            _maxDownvotes,\n            _maxUriChanges,\n            _minDaoTokensRequired,\n            _daoTokenAddress\n        )\n    {\n        _grantRole(RECORDER_ROLE, msg.sender);\n    }\n\n    /**\n     * @notice Record token game win.\n     * @param _tokenID The ID of the token to record.\n     */\n    function recordWin(uint256 _tokenID)\n        external\n        tokenExists(_tokenID)\n        onlyRole(RECORDER_ROLE)\n    {\n        // NOTE - Should we explicitly prevent recording wins on unplayable cards?\n        GameRecord storage game = _gameRecords[_tokenID];\n        game.wins += 1;\n    }\n\n    /**\n     * @notice Record token game loss.\n     * @param _tokenID The ID of the token to record.\n     */\n    function recordLoss(uint256 _tokenID)\n        external\n        tokenExists(_tokenID)\n        onlyRole(RECORDER_ROLE)\n    {\n        // NOTE - Should we explicitly prevent recording losses on unplayable cards?\n        GameRecord storage game = _gameRecords[_tokenID];\n        game.losses += 1;\n    }\n}\n",
  "sourcePath": "/Users/rileystephens/Development/Accel/phlip.io/phlip-contracts/contracts/tokens/WhiteCard.sol",
  "compiler": {
    "name": "solc",
    "version": "0.8.11+commit.d7f03943.Emscripten.clang"
  },
  "schemaVersion": "3.4.4",
  "updatedAt": "2022-03-08T18:12:57.792Z",
  "devdoc": {
    "kind": "dev",
    "methods": {
      "approve(address,uint256)": {
        "details": "See {IERC721-approve}."
      },
      "balanceOf(address)": {
        "details": "See {IERC721-balanceOf}."
      },
      "ballotIsRegistered(uint256)": {
        "params": {
          "_ballotID": "The ID of a ballot"
        }
      },
      "blacklistAddress(address)": {
        "params": {
          "_address": "The address to add to the blacklist"
        }
      },
      "createClaim(address,uint256)": {
        "params": {
          "_address": "The beneficiary of the claim",
          "_amount": "The number of tokens that can be claimed"
        }
      },
      "downVote(uint256)": {
        "params": {
          "_tokenID": "The ID of the token upvoted"
        }
      },
      "downVotesFor(uint256)": {
        "params": {
          "_ballotID": "The ID of a ballot"
        }
      },
      "getApproved(uint256)": {
        "details": "See {IERC721-getApproved}."
      },
      "getClaimableID(address,uint256)": {
        "params": {
          "_address": "Beneficiary address of the claim."
        }
      },
      "getRoleAdmin(bytes32)": {
        "details": "Returns the admin role that controls `role`. See {grantRole} and {revokeRole}. To change a role's admin, use {_setRoleAdmin}."
      },
      "grantRole(bytes32,address)": {
        "details": "Grants `role` to `account`. If `account` had not been already granted `role`, emits a {RoleGranted} event. Requirements: - the caller must have ``role``'s admin role."
      },
      "hasClaim(address)": {
        "params": {
          "_address": "The address to check."
        }
      },
      "hasRole(bytes32,address)": {
        "details": "Returns `true` if `account` has been granted `role`."
      },
      "increaseClaim(address,uint256)": {
        "params": {
          "_address": "The beneficiary of the existing claim",
          "_amount": "The number of claimable tokens to add to the claim"
        }
      },
      "isApprovedForAll(address,address)": {
        "details": "See {IERC721-isApprovedForAll}."
      },
      "isBlacklisted(address)": {
        "params": {
          "_address": "The address to check."
        }
      },
      "isDaoTokenHolder(address)": {
        "params": {
          "_account": "Address to check."
        }
      },
      "mintCard(address,string)": {
        "params": {
          "_to": "The address to mint tokens to",
          "_uri": "The IPFS CID referencing the new tokens metadata"
        }
      },
      "name()": {
        "details": "See {IERC721Metadata-name}."
      },
      "nextClaimableID(address)": {
        "params": {
          "_address": "Beneficiary address of the claim."
        }
      },
      "ownerOf(uint256)": {
        "details": "See {IERC721-ownerOf}."
      },
      "paused()": {
        "details": "Returns true if the contract is paused, and false otherwise."
      },
      "recordLoss(uint256)": {
        "params": {
          "_tokenID": "The ID of the token to record."
        }
      },
      "recordWin(uint256)": {
        "params": {
          "_tokenID": "The ID of the token to record."
        }
      },
      "redeemCard(string)": {
        "params": {
          "_uri": "The IPFS CID referencing the new tokens metadata"
        }
      },
      "remainingClaims(address)": {
        "params": {
          "_address": "Beneficiary address of the claim."
        }
      },
      "renounceRole(bytes32,address)": {
        "details": "Revokes `role` from the calling account. Roles are often managed via {grantRole} and {revokeRole}: this function's purpose is to provide a mechanism for accounts to lose their privileges if they are compromised (such as when a trusted device is misplaced). If the calling account had been revoked `role`, emits a {RoleRevoked} event. Requirements: - the caller must be `account`."
      },
      "revokeRole(bytes32,address)": {
        "details": "Revokes `role` from `account`. If `account` had been granted `role`, emits a {RoleRevoked} event. Requirements: - the caller must have ``role``'s admin role."
      },
      "safeTransferFrom(address,address,uint256)": {
        "details": "See {IERC721-safeTransferFrom}."
      },
      "safeTransferFrom(address,address,uint256,bytes)": {
        "details": "See {IERC721-safeTransferFrom}."
      },
      "setApprovalForAll(address,bool)": {
        "details": "See {IERC721-setApprovalForAll}."
      },
      "setBaseURI(string)": {
        "params": {
          "_newURI": "New base URI"
        }
      },
      "setDaoTokenAddress(address)": {
        "params": {
          "_daoTokenAddress": "New contract address"
        }
      },
      "setDownVoteMax(uint256)": {
        "params": {
          "_newMax": "The new max number of downvotes allowed"
        }
      },
      "setMinDaoTokensRequired(uint256)": {
        "params": {
          "_newMin": "New min DAO tokens required"
        }
      },
      "setUriChangeMax(uint256)": {
        "params": {
          "_newMax": "New max changes allowed"
        }
      },
      "symbol()": {
        "details": "See {IERC721Metadata-symbol}."
      },
      "tokenURI(uint256)": {
        "details": "Modified implementation of ERC721URIStorage.tokenURI",
        "params": {
          "_tokenId": "ID of token"
        }
      },
      "transferFrom(address,address,uint256)": {
        "details": "See {IERC721-transferFrom}."
      },
      "unblacklistAddress(address)": {
        "params": {
          "_address": "The address to remove from the blacklist"
        }
      },
      "upVote(uint256)": {
        "params": {
          "_tokenID": "The ID of the token upvoted"
        }
      },
      "upVotesFor(uint256)": {
        "params": {
          "_ballotID": "The ID of a ballot"
        }
      },
      "updateCardURI(uint256,string)": {
        "params": {
          "_tokenID": "The ID of the token to update",
          "_uri": "The new URI"
        }
      }
    },
    "version": 1
  },
  "userdoc": {
    "kind": "user",
    "methods": {
      "ballotIsRegistered(uint256)": {
        "notice": "Returns true if _ballotID is registered, false if not."
      },
      "blacklistAddress(address)": {
        "notice": "Allow address with BLOCKER role to add an address to the blacklist"
      },
      "createClaim(address,uint256)": {
        "notice": "Create new claim of card(s) for given address."
      },
      "downVote(uint256)": {
        "notice": "Record token downvote. If the token has been downvoted more than the allowed number of times, it should be marked unplayable."
      },
      "downVotesFor(uint256)": {
        "notice": "Returns the number of down votes for a given ballot."
      },
      "getClaimableID(address,uint256)": {
        "notice": "Returns the asset ID at specified position in the claim."
      },
      "hasClaim(address)": {
        "notice": "Returns true if address has a claim, false if not."
      },
      "increaseClaim(address,uint256)": {
        "notice": "Increase the number of claimable cards for an existing claim."
      },
      "isBlacklisted(address)": {
        "notice": "Returns true if address is blacklisted, false if not."
      },
      "isDaoTokenHolder(address)": {
        "notice": "Check if the given address is a PhlipDAO token holder"
      },
      "mintCard(address,string)": {
        "notice": "Allow address with MINTER role to mint tokens to a given address"
      },
      "nextClaimableID(address)": {
        "notice": "Returns the first asset ID in the claim."
      },
      "pause()": {
        "notice": "Allow address with PAUSER role to pause token transfers"
      },
      "recordLoss(uint256)": {
        "notice": "Record token game loss."
      },
      "recordWin(uint256)": {
        "notice": "Record token game win."
      },
      "redeemCard(string)": {
        "notice": "Mint card to beneficiary and remove from claimable cards."
      },
      "remainingClaims(address)": {
        "notice": "Returns the number of remaining claims for an account."
      },
      "setBaseURI(string)": {
        "notice": "Set the base URI of all tokens created by this contract"
      },
      "setDaoTokenAddress(address)": {
        "notice": "Set the address of the PhlipDAO contract"
      },
      "setDownVoteMax(uint256)": {
        "notice": "Set the max number of downvotes a card can have before it is marked unplayable."
      },
      "setMinDaoTokensRequired(uint256)": {
        "notice": "Set min number of PhlipDAO tokens required to vote and mint."
      },
      "setUriChangeMax(uint256)": {
        "notice": "Set max number of times minter can change the URI of a card."
      },
      "tokenURI(uint256)": {
        "notice": "Getter method for getting token's URI from ID"
      },
      "unblacklistAddress(address)": {
        "notice": "Allow address with BLOCKER role to remove an address from the blacklist"
      },
      "unpause()": {
        "notice": "Allow address with PAUSER role to unpause token transfers"
      },
      "upVote(uint256)": {
        "notice": "Record token upvote."
      },
      "upVotesFor(uint256)": {
        "notice": "Returns the number of up votes for a given ballot."
      },
      "updateCardURI(uint256,string)": {
        "notice": "Updates the URI of an existing token."
      }
    },
    "version": 1
  }
}