{
  "contractName": "Whitelistable",
  "abi": [
    {
      "inputs": [
        {
          "internalType": "address",
          "name": "_address",
          "type": "address"
        }
      ],
      "name": "isWhitelisted",
      "outputs": [
        {
          "internalType": "bool",
          "name": "",
          "type": "bool"
        }
      ],
      "stateMutability": "view",
      "type": "function"
    }
  ],
  "bytecode": "0x608060405234801561001057600080fd5b5060ce8061001f6000396000f3fe6080604052348015600f57600080fd5b506004361060285760003560e01c80633af32abf14602d575b600080fd5b60566038366004606a565b6001600160a01b031660009081526020819052604090205460ff1690565b604051901515815260200160405180910390f35b600060208284031215607b57600080fd5b81356001600160a01b0381168114609157600080fd5b939250505056fea264697066735822122099fb4804530c81b302e4a131b0676cf5a097b3624dbc4a9dab856cdc805b484064736f6c634300080b0033",
  "immutableReferences": {},
  "source": "// SPDX-License-Identifier: MIT\npragma solidity ^0.8.11;\n\ncontract Whitelistable {\n    mapping(address => bool) private _whitelist;\n\n    /**\n     * @notice Returns true if address is whitelisted, false if not.\n     * @param _address The address to check.\n     */\n    function isWhitelisted(address _address) public view returns (bool) {\n        return _whitelist[_address];\n    }\n\n    /**\n     * @notice Adds address to the whitelist.\n     * @param _address The address to add.\n     */\n    function _addToWhitelist(address _address) internal virtual {\n        _whitelist[_address] = true;\n    }\n\n    /**\n     * @notice Removes address from the whitelist.\n     * @param _address The address to remove.\n     */\n    function _removeFromWhitelist(address _address) internal virtual {\n        _whitelist[_address] = false;\n    }\n}\n",
  "sourcePath": "/Users/rileystephens/Development/Accel/phlip.io/phlip-contracts/contracts/extensions/Whitelistable.sol",
  "compiler": {
    "name": "solc",
    "version": "0.8.11+commit.d7f03943.Emscripten.clang"
  },
  "schemaVersion": "3.4.4",
  "updatedAt": "2022-03-08T18:12:57.737Z",
  "devdoc": {
    "kind": "dev",
    "methods": {
      "isWhitelisted(address)": {
        "params": {
          "_address": "The address to check."
        }
      }
    },
    "version": 1
  },
  "userdoc": {
    "kind": "user",
    "methods": {
      "isWhitelisted(address)": {
        "notice": "Returns true if address is whitelisted, false if not."
      }
    },
    "version": 1
  }
}